S00B00004441544120492F4FF3
S1130000FFFFFFFFFFFFFFFFFFFFFFFFFFFFFFFFFC
S1130010405201B501C601C601F701A1004449538C
S11300204B202006A4434C4F5345200BD8434F4D3F
S113003042494E06B5434F5059202006BE43504115
S113004053535706C7435245415445095044454C00
S113005045544506D044495245435406D944524573
S1130060434F5206E244534B45525206EB4455501B
S11300704C4943073D464F524D4154074649444578
S11300804E5449074F494E5354414C07584D415221
S11300904B202007614F4646455252034E4F4E4572
S11300A052522003594F50454E202008804F50454E
S11300B04E4C20086E524154545249076A52434CE4
S11300C04F434B077A52454C454153078A52454D9D
S11300D04F5645079C52454E414D4507A552455341
S11300E045525607AE524C4F4341540A5252504F58
S11300F053495407C0525245434F5207D2523130EC
S11301004C4556072553434C4F434B07DB5345544B
S113011054494D07DB53504152414D07E453544178
S113012054555307ED54494D45202007FD5741547C
S1130130545249085357454F462020085C57454FB1
S11301405220200865574C4F4341540A855055545A
S113015044534B0ABB454F4944534B0AD447455477
S113016044534B0AF552535444534B0B1C00436FF6
S113017070722E28632954656B2E2C496E632738C0
S11301803214120D470D4714B20D470D470D470D9C
S11301900D0C330D470D47141214B2163418230DE9
S11301A0477E10E67E03BE7E03BE7E0C977E11BCA6
S11301B07E0B1F0D32BD40C3967CB7046EB6044857
S11301C08A02B7044839861536BD10524FBD02ADB8
S11301D0BD0330BD107B96973636860E36BD0C2C8B
S11301E03131329797BD1091319653816E2607961F
S11301F0A427037E12633930A602811526048617CC
S1130200A7028615364FBD02AD31D64BC127260352
S11302107E0C2CA6042A1A847FA704861536BD03F7
S113022009319653816E26089626A7059627A706B8
S11302303930A6078118260F964B815C26067F006D
S11302404BBD10527E0C2581122735140786189752
S113025029BD0400BD407B264EEE032614BD40DEBE
S1130260BD4141BD4030964B813926147F004B205F
S11302700FDF149614263096158109222ABD0BAC83
S113028032339714D71531313132339712D713865D
S1130290189F00BD411A9E0026037E0D4DDE126B91
S11302A0861536DE146E008614974B20D39720866D
S11302B01536964B3636860E367F004B86409706AB
S11302C09620841C44448A309707963597214F978B
S11302D035BD41EF96219735DE06A6042A0A8D3FE7
S11302E0D6202704847FA7043132D64B2602974BAD
S11302F0313196208403DF04489B0524037C0004E9
S11303009705DE04A605847F39860E364F8D9E8DB3
S11303100E86048D988D0886088D928D0231396F72
S1130320056F066F076F086F096F0A6F0B6F0C3943
S113033086409706864597079635971B861097350E
S1130340861536BD41EF31961B9735DE0639861585
S1130350360797120FDE4120308617972930080898
S1130360A60081172605860C974B390797120FBDF7
S11303700400861536BD407B964B2610EE03DF0045
S1130380BD40A8964B2605DE00FF03C596120696CF
S11303904B7E0CFD860C974B20F2A60081FF270AAA
S11303A008DF22BD4063DE2220F039DE9509A60075
S11303B0810A2701086F006A00CE02B520DC861886
S11303C09729965648CE017F211A186E00E6002020
S11303D005E601271C08082002DEC1A60008DFC1CB
S11303E0DE26270D09DF26DE22A70008DF225A2693
S11303F0E83917C60120E94F378DF8335A26F93901
S11304003A003A08DF1409DF00BD4024DE14420834
S1130410420016964B260A5D2704860C2003398673
S1130420247E0D3E08A60081082621EE01DF00EEA1
S113043007DF02DE00A6042BE6EE0BA602482BDF44
S11304400808089602A7009603A70139EE0339218C
S1130450A6001808DFC1DE26271609DF26DE22A73C
S11304600008DF224D2B04DEC120E4847F09A700AD
S11304703921E600180821A6001808DFC1DE262766
S11304800F09DF26DE22A70008DF22DEC15A26E696
S113049039CE02B5DF22DF98CE0104DF2639A6006B
S11304A081082706860E367E0D36EE01860E36DF6F
S11304B024A6042A11864897177F0016BD40489643
S11304C04B27077E0CFA6F076F0831DE24EE05DF39
S11304D004DE24EE0B1405DF028D4409DF93DE24D1
S11304E0EE07DF04DE24EE0B1405DF028D31DF9806
S11304F0DF95DF22DE93DF048D3608DF2639DE95B3
S1130500DF04DE24EE0B1405DF028D249602D603ED
S1130510DE24A707E708EE0BA60284BFA70239373B
S1130520D605DB03D703D604D902D70233DE02395A
S113053037D605D003D703D604D202D70233DE025E
S11305403937D64B2604D66DC5023339861536BDE8
S11305500ED33175DF1C3008DF00861536BD41E649
S113056030EE02A601811726043131313130DF1E0D
S1130570DF2086179729DE1C6E0075DF1C30080803
S1130580A60081082705860C974B39DF241404DF65
S1130590000820C69C412703BD0FC9860E36BD0541
S11305A0F82705BD0FEA20F6BD10443139860E3612
S11305B0BD05F82705BD0FEA20F63139964B261301
S11305C06BDE20A60075811327037E0D36BD0594CE
S11305D0BD0DA87E0CFD964B260A97269727BD05D0
S11305E094BD0D537E0CFDDFC1DE201404DF20DE3C
S11305F0C13931DE41DF2039860E36DE209C1E26CD
S113060004DF262004DE26262FDE20A60081112604
S11306100708DF20DF2620F1BD05E7811326D3EE8E
S1130620020896262612DF26CE02B58620A700DF12
S113063098DF9508DF222015A6007F00267F00277B
S1130640810C271281092758863E7E0CF831DE98EA
S11306503986247E0CF808A600844026F43C00CE9B
S113066005DF4500CE02B6DF02CE0010DF04BD4038
S113067087CE02B7FF0098DE04DF9508DF2220CD85
S1130680A6009704A60197050808DF02FF0098DE7C
S11306900426037E05FBBD051FDF2209DF9520AD7F
S11306A0EE0320DCBD054C8615368600BD0ED53123
S11306B0DE417E05BCBD054CCE1D3A7E05BCBD05A4
S11306C04CCE1D3E7E05BCBD054CCE1D427E05BCF8
S11306D0BD054CCE1D467E05BCBD057ACE1D4A7EA9
S11306E005D6BD054CCE1D4E7E05BCBD057ADE2467
S11306F0BD049EBD0330DF1EA6042B1FEE07271B7F
S1130700DF20DE1EEE0B1405A60008DF1CBD03F37C
S1130710DE20092706DF20DE1C20EDDE22DF95BD6A
S113072004FE7E0CFDBD057ADE24BD049ECE1EDCD7
S1130730BD044FDE22DF95BD04FE7E0CFDBD054CDD
S1130740CE1D527E05BCBD054CCE1D5E7E05BCBDD6
S1130750054CCE1D627E05BCBD054CCE1D667E05D6
S1130760BCBD054CCE1D6A7E05BCBD057A8615361A
S1130770BD0ED331CE1D727E05D6BD057A861536E3
S1130780BD0ED331CE1D767E05D6BD054C861536FD
S11307908608BD0ED531CE1D817E05BCBD054CCE6F
S11307A01D897E05BCBD054CCE1D8D7E05BCBD05D9
S11307B04C8615368608BD0ED531CE1D917E05BCFE
S11307C0BD057A8615368608BD0ED531CE1D997EB7
S11307D005D6BD054CCE1DA17E05BCBD054CCE1D68
S11307E0A57E05BCBD054CCE1DA97E05BCBD057A04
S11307F0861536BD0ED331CE1DAD7E05D6BD057A28
S1130800861536BD0ED331CE1D76964B263F9726E0
S11308109727BD0594BD1000964B2631CE02B8A68D
S113082000089C952727813A26F5DF20DE24BD04A5
S11308309EDE20A60008DF208C03A32710810D274D
S113084005BD03F320EBDE22DF95BD04FEBD10528F
S11308507E0CFDBD054CCE1DB17E05BCBD054CCE48
S11308601D567E05BCBD054CCE1D5A7E05BCBD057E
S11308707A861536BD0ED3317F00A47300A42006FA
S1130880BD054C7F00A4BD05F826037E0940A600E3
S1130890BD4225814C2618A601BD42258146260F5E
S11308A0A602BD4225814E2606A603813A27079C4F
S11308B09527D30820D80808089C95270308200505
S11308C0BD05F8277BA600812027EE80302F6981A3
S11308D0092265971A9C952606BD05F8270F09A6D7
S11308E0018120270881302D0481392F4BDE1EDF42
S11308F020CE1D6E96A42717BD0FC9BD05ADCE1E13
S11309001CBD0FC9BD1044BD0D537F00A42006BDFE
S11309100594BD0DA8BD0541262ABD09F8BD0541B4
S113092026255D260BCE02B58641A7018644A70283
S1130930961ABD0A407E0CFD8614D64B260620026C
S1130940863E974B7E0CFA961A9714BD0BBB20F487
S1130950BD054CBD05F8A600BD4225814127078190
S11309604227037E09EE971ABD05F826037E09EE99
S1130970A60081202678BD05F82773A600BD422570
S11309808144270881412704814E2662971BBD05B7
S1130990F8275BA60081202655CE1D6EBD0FC9BD6C
S11309A005ADCE1DC9BD0FC9961B81442605CE1DBC
S11309B04A200ACE1E1481412703CE1E18BD0FC93A
S11309C0CE1DFBBD0FC9DE1AFF02B58622B702B7E2
S11309D0CE02B5DF980808BD0FEDBD1044BD0DA8CB
S11309E0BD054126067F0015BD0BBB7E0CFD964B55
S11309F026037E0D367E0CFABD0491CE1DBDBD04CA
S1130A004F961A8B30BD03F3CE1DC5BD044FBD0FE9
S1130A10EABD1044BD0E67252481452719CE02D5B1
S1130A20BD1003BD1052867DC60FCE02C6A100279D
S1130A3004085A26F839861536BD0DF7315F20F5BE
S1130A40E60137E60237BD02AD33E70633CA80E775
S1130A500539BD054C8615368608BD0ED531964B35
S1130A602620DE20A600811327037E0D36CE1D79B5
S1130A70BD0FC9BD05ADCE1E20BD0FC9BD1044BDFF
S1130A800DA57E0CFDBD054C8615368608BD0ED51C
S1130A9031964B2623DE20A600811327037E0D36D4
S1130AA0CE1DB5BD0FC9BD05ADBD1044CE1EDBBD09
S1130AB00FC9BD1044BD0DA57E0CFDBD054C8615AA
S1130AC0368600BD0ED531964B2606BD05ADBD104C
S1130AD0267E0CFD860ACE02B5A700DF98DF95BD01
S1130AE0103A868097878615368600BD0ED531BDAF
S1130AF040CC7E1026BD057A8615368600BD0ED5FF
S1130B0031BD103A860E978E7F006ADE24BD049EA6
S1130B10BD40C6BD04FEBD101C7E0CFD7E105232CD
S1130B2097143297155FB600018109225B9720BDA7
S1130B3002AD26035F2051BD0491CE1D14BD047186
S1130B409620BD03F38601BD03F3BD0FEABD104437
S1130B50BD1000B602B6C60181492736C664814479
S1130B6026219620BD02ADC602814127165CB6023D
S1130B70B88106270E5C81072709810327058104B4
S1130B8027015C37BD105233375F3737BD40817E54
S1130B900D1EB602B8C6068152270AC60181462731
S1130BA004C66420DEA6052ADA5F20D797158109DA
S1130BB02209BD02AD27206F056F06BD0491CE1D2D
S1130BC01EBD04719615BD03F38601BD03F3BD0F6D
S1130BD0EABD1044BD0DA539BD054CDE20EE02A6CC
S1130BE001810C263A08BD407B964B262EA603268F
S1130BF02AA6042614BD40DEBD4141BD4030964BBB
S1130C00813926147F004B200F8109220EC67ED71E
S1130C1053BD0BACC66AD7537E0CFD8614200286E6
S1130C200C974B20F3860E36BD03093186FE9715CB
S1130C307E0BBBDE41DF24BD0491CE1D4ABD044FB3
S1130C4030A60281182744810C271B810A271781AB
S1130C50012707810827037E0D3208BD0424BD0344
S1130C60D1301405DF240808BD04000909A60527AE
S1130C70149624DF244D26058623BD03F3CE1E1CC3
S1130C80BD044FDE24A60B811826CCBD0FEABD108F
S1130C9044BD0DA87E0CF2DE41DF7E7F00A48618E1
S1130CA09729300808A1092714BD0400BD407B968C
S1130CB04B27037E0D3AEE03DF7E30140BBD040098
S1130CC0BD0CD9977DBD02AD2768A70586209797EF
S1130CD07F00908603978F2034A6012B10BD407BA4
S1130CE0A6032609A6042705810922013986147E54
S1130CF00D3E861897292015974BBD1052861797DD
S1130D00299F008615BD411A9E0027413132971450
S1130D103297159F009629BD411A9E00272F7F0008
S1130D20A4961536961436B6FF2A84BFB7FF2A7EDA
S1130D304027863E200A860C20BE861220023333CA
S1130D40974BBD105220C68625974B20C08E002895
S1130D50BD41F2860E36DE24BD049EBD04FEBD0EEA
S1130D606727348151273981452730BD04CB272695
S1130D70BD100ADE9509A600810A2608966A850434
S1130D802702DF95BD04FEDE95099C932708966A29
S1130D90850426CA20D54F317E1052BD0DF720BEE2
S1130DA0BD0F8920034F200286FFB703B8860E3695
S1130DB0BD0E673127E2815127388145272B8152A7
S1130DC027D6814627D2BD1000964B26CB966A368D
S1130DD09653817D270996552B08B603B82703BD82
S1130DE003AB32850426C120DD860E36BD0DF731F6
S1130DF020B6BD0F8920B196552B27BD1000BD0E1E
S1130E00F1BD0E9A2718964B2653966A3607360E6E
S1130E10BD03AB320632850427E18659974BBD10DA
S1130E205239FE03C527D4860E36DE24DF1CBD03EB
S1130E3030BD04AC964B2625BD100ABD0EF1BD0E87
S1130E409A271FDE9509A600810A2602DF95BD04B4
S1130E50FE966D8A02976D96548A409754BD10523F
S1130E603139BD04FE20F6CE02B7BD1003964B26E1
S1130E701CB602B5814527128140261AB602B681F6
S1130E800A270A815327080C2004BD10524F3986C3
S1130E900E36BD10EF314F0D20F486FF36CE1E26E0
S1130EA021A6001881FF2707360820F4323232DEEB
S1130EB0983281FF271B915326F232A10826EE3285
S1130EC0A10726EA32A10626E83281FF26FBDF9538
S1130ED04F4D3986049712861536DE206B36D713AC
S1130EE0860BBD02AD9612D613A7053175DF2031EE
S1130EF039860BBD02ADE60537DE988620A10626AD
S1130F0041A107263D8631A1082637DF1C961DD650
S1130F101C8B5AC9009715D7148B09C900971DD784
S1130F201CDE1C335D271A4FC00A2B034C20F9CB5F
S1130F300AD71216270409BD0F45D612DE1CBD0FB1
S1130F4045393120FCA6008120272C1081302C0D3E
S1130F508B0AA7009C14271F09C60120E8A700DEFE
S1130F6014A600812027088130260B8620A70008BC
S1130F709C1C270220EB39C6208609DE14E70008F2
S1130F804A26FAC630E70020EDBD1000964B2638FD
S1130F90966A36BD03AB32850427EECE0221DF9874
S1130FA0860D9797BD4108BD04918640BD03F3CEDD
S1130FB00221DFC1A600BD03F3810D2705DEC108B0
S1130FC020F0BD0FEABD104439DFC1CE02B5DF9871
S1130FD0DF95DEC121A6001808DFC1DE95A7002B2E
S1130FE0030820EC847FA7002003DE22094F9787A3
S1130FF08D48B6FF2A8A40B7FF2ADF95BD40CC3919
S9030000FC
