S00B00004441544120492F4FF3
S1130000CE03A3DF93CE02B5DF98860E978E7F00D2
S11300106A8D27BD40C6966D84F7976DBD400FBDB0
S113002040F6C65F2008BD400FBD40F6C63FBD4048
S1130030D2968F84EF978F7E40C9862097974F97EB
S113004090978F39BD4078C60ABD40D2BD40758DAA
S1130050D539BD400FBD40F6C63FBD40D2C65FBDD9
S113006040D2C620BD40D2C604BD40D2C63FBD402A
S1130070D2BD400C968F84EF978F3997C06249CEDA
S1130080008F3C00968E36968736860E3696C0656F
S11300904997C062493132978732978ED68FCE0006
S11300A08F4500CAEFD48FD78FDE91DF9896C06555
S11300B04996872705DE9508DF95BD40CC968727AE
S11300C011DE9509DF95BD107BBD1026BD0DA8BDC1
S11300D0109139436F70722E28632954656B2E2C4E
S11300E0496E63273832860E368D04317E0D2F9685
S11300F06D851026044F7E11A9968E9714BD400F6E
S1130100BD41DAC640BD40D2BD40EABD400C0EB68A
S1130110E1C6263786FDBD11AA86FEDE41F6FF053F
S1130120C54026070826F64C26F35F8602BD11B2A9
S11301305D2705BD40C0976AD78D86FB8D6CB6FFE1
S113014005854026F986048D69200CBD40CF964B69
S113015081A326037F008D0FBD400FBD40F6C65F0F
S1130160BD40D2C619BD40D2BD40C9968D85402739
S113017084D66DC4EFD76DBD41E3968D81E02736FB
S11301808508271F964B97157F004B860E36BD0EAC
S11301906731964B260D9615974B2507860E36BD6F
S11301A00DF7319614978E4F5F3994FC97FCB7FF87
S11301B001399AFC20F6863E974B20E7861897294A
S11301C030A60681132615EE08BD0424A602EE000F
S11301D0270ABD4225814127057E0D328642971E9E
S11301E0C653967B2602C650D71F9653815B2603BF
S11301F07E13068159262CBD0491CE1D6EBD044F7D
S113020030EE04BD13E92637BD03D1CE1DC9BD04AC
S11302104FCE1D4ABD044F86FF97A4BD0ED3BD0F1C
S1130220EA205B070FDE41FF03C506BD0491C60A41
S1130230BD03F7CE1D6EBD044F30EE04BD13E92798
S1130240037E12DFBD03D1CE1DC9BD044FCE1D4AAE
S1130250BD044FDE22DF24DE1EFF03B586FF97A414
S11302607E13B486189729FE03B5DF1EDE41DF2610
S1130270CE02BFDF98BD0ED3DE2409BD0FEDBD1045
S113028044BD0DA5BD05412722964B261AFE03C584
S1130290271596552A1196538159260B863E974B5E
S11302A0CE13016B624939863B2061961A364F970B
S11302B01ABD09F832971ABD05412705BD149520CA
S11302C0C85D271F961EA1012612E602C1502719F8
S11302D0C153271581422704C144270DBD149586B7
S11302E03E2029961E814227F34F977D977E977F64
S11302F0EE01DF1EDF2696278153260297807E13A8
S1130300B47F004B65498626D68027127E0D40BDFA
S11303101052BD1495DE18DF1ECE1DD42006DE1E3D
S1130320DF18DE41DF12BD0491CE1D6EBD044F30D7
S1130330EE04BD13E926A8BD03D1CE1E0DBD044FA6
S1130340DE122720BD044FCE1DDFB6E1C62703CE43
S11303501DEDBD044F961EBD03F3961FBD03F3862A
S113036022BD03F3BD0ED3BD0FEABD1044BD0E671D
S113037025728145260ABD0DF7BD054127972064E6
S11303804D2703BD10527F001ABD09F8BD05412653
S1130390505D270AA60281502707815327037E1345
S11303A00F4FBD02AD961EA705961FA7064F977D5A
S11303B0977E977F8603978F32971432971586110D
S11303C09F00BD411ADE0027039E0031961E814125
S11303D026037E0D21DE1421BC42171826F47E1953
S11303E0B5BD149586597E0D40BD0424DFC17F0040
S11303F0C086238D0B862A8D07863F8D0396C039D0
S1130400E6010808A10027055A26F8200297C0DE55
S1130410C1398D037E0D2FC620BD157EBD05412734
S1130420037E14ACBD10B1968E810C277F9687276E
S11304307BBD0491CE1D36BD04714FBD03F386010F
S1130440BD03F3BD0FEABD1044BD0E67255FBD05B6
S113045041265ABD0491CE1DB1BD044FCE1E0DBD23
S1130460044FCE1DDFB6E1C62703CE1DEDBD044FFC
S11304704FBD02ADA60636A605BD03F332BD03F398
S11304808622BD03F3BD0FEABD1044BD0E67251DD2
S1130490BD054126184FB70015BD02AD6F056F06A7
S11304A0964B367F004BBD0BBB32974B39BD105278
S11304B020E3C612BD157E277D81FF2729BD054196
S11304C0266D8144272081462716815227128145B3
S11304D02609860E36BD0DF7312054BD0DB6204FCA
S11304E0D67D272C2026BD40C6968E810D26028DF2
S11304F04B966A851C2738D67D27158501263085BD
S11305000427098A08976ADE9509DF95D76E201FAC
S1130510BD10529724BD107BBD101CBD1495BD1099
S113052091DE9509860DA7009624976A7E0D2F9675
S1130530A4811026F7398659974B20F396A481108D
S1130540260139DE00DF12DE41DF7E30140EDF00CB
S11305508618BD411ADE00EE02DF16CE1573DF1ECB
S1130560DE00961EA702961FA703861097A4DE122C
S1130570DF0039BD10527F00A4DE166B20AE96A4B6
S113058081102706968F8510270386FF3937BD040F
S113059091865CBD03F332BD03F3860FBD03F3966E
S11305A07DBD03F3CE00003C00967DBD02ADDFC1EE
S11305B0CE00004500DEC1968E810C2D1F810F2ECA
S11305C01BC641810E2D02C642E105270FC14227F9
S11305D006C642E1052605863E974B39DE7E271086
S11305E0CE1D22BD0471967EBD03F3967FBD03F339
S11305F08601BD03F3BD107BBD0FEABD1044968E8A
S113060081042710810D270C810E2708CE1EDBBD27
S11306100FC9201BBD0E6781442714814526078618
S11306200E36BD0DF731BD10528688976A8646BDD9
S113063010914D3986153696A427222A127E170664
S1130640FE03C5271486FF970086FC976E200ADEFA
S1130650008C400026004097A4317E0D2F7C00A41E
S1130660C612BD157EBD054126D68146271D815281
S11306702719CE02B5DF98DF93BD40C6B602B52B6D
S11306800AD66AC504260481152618967D976E7FBE
S1130690000196548A409754966D84F7976DBD1067
S11306A05220B6971481062612CE2008968A840812
S11306B0267BDF008C80002774209E8107271A8107
S11306C00327E6810427E2CE800081102DE427A2CF
S11306D081132EDEBD175B2087CE4000968A8408E6
S11306E0274BCE02B7DF937F006ABD40C6B602B582
S11306F026CDB602B685E026C68A409700B602B774
S11307009701317E0D2F96148107271681032750F8
S1130710810426037E179FBD40C67F00A4BD17CF6A
S113072020E0BD40C6DE41DF9A8D3020EDDF00BD04
S11307301052BD0491CE1D28BD0471967DBD03F3F6
S11307408601BD03F3BD107BBD0FEABD1044BD0E91
S113075067BD1091863E974B7E169EDE41DF7E3943
S1130760DE9314FADF93BD40C6DE98E601A6002AA4
S1130770064F5FE001A20037364F363636368630F4
S1130780368604E6002A02868436860C36BD179A1D
S1130790DE9845007F00A47E0D2F6249616549DE25
S11307A09309090909DF93BD40C6DE98A6002A1201
S11307B05F17A0033617A2023617A2013617A2004C
S11307C02009E60337E60237E60137364F20AD96B7
S11307D08A85012712DE9E2740DEA29C9E2631DEFA
S11307E0F8EE059C9A2629DE00DF12301409968A59
S11307F0840827020808DF00BD4012DE00A601813C
S11308000F260EBD1052968F84EF978FDE12DF00F5
S113081039968F8A10978F20F3DEF8EE059C882690
S1130820EF20C4960036960136964B26677300A4D3
S113083026037E189DDE98DF91968F8510261996E3
S11308407DBD02AD4FE606C14427014C9714C62076
S1130850BD157EBD0541263CDE91A600E601CE0213
S1130860B5DF988540272384BFA702E7036F01EE15
S1130870022610BD18D9260B868097879614270365
S11308804F97878607CE02B820028606DF95B70207
S1130890B5BD10B13297013297007E0D2FB602B567
S11308A08106270BDE959C98271409DF9520009676
S11308B01426088D24260486809787BD10B19614CB
S11308C0260220D08D1326FACE02B5DF9809DF95D3
S11308D086809787BD10B120E930A610810F261FAE
S11308E0968A8508261885012714DEF8EE05DF0EA2
S11308F0DEF8EE072703BD40F3DE0E9C88394F393E
S1130900BD405186599753CE04A1DF5615FE861873
S113091036BD19AB150321FE40BE186B964B260E4F
S113092096552A0ADE3DDF4F21FE418A186B7E0D63
S11309302F32975C32975D328118260836DE41C625
S1130940FF38005C3230EE0015024D26F008BD4041
S11309507BEE035F38005C9653816E27A37F00A46F
S11309604FBD02AD8642A705C612BD157E81442641
S11309701E860E978EDE41DF28BD1A5D964B260F2C
S1130980BD1B0D966A853C2606860197A420EAD6EF
S11309904B96A42602C63B377F004BBD10524FBD79
S11309A00BAC32974B7F00A47E1A1A3008DF008606
S11309B01836BD41E6964B26EFBD4000BD1931D730
S11309C01EDF14BD19312604DF16200DDE14DF16D8
S11309D0961E2705CEFFFFDF16964B26CB968E81FB
S11309E00426037E1957DE146B34BD40A230EE0199
S11309F01506DF022712DF14DF02EE079C16253FDF
S1130A002606DE41DF162037DE41DF00DF98DF9166
S1130A1008DF9586809787BD1417DE41DF64DF62A7
S1130A20BD101CBD102630EE018C19142603BD40E8
S1130A30F915FE21FE40FA186B7F00A47E0D2FBD30
S1130A401B415FD787BD1ADF7F0087966E9A4B26BE
S1130A50C9DE1627B3DE14EE03269B20ABCE0014AA
S1130A60DF98DF9108DF93BD40C6966A853C266B0C
S1130A709615276A961481812E5D2D048601978030
S1130A804FD615CBFB8901DB4699459F08D00992C7
S1130A9008252926035D27249700861536962936CE
S1130AA096283686073696003736860E36BD41DDE3
S1130AB03232972832972932964B2622CE02B5DF5E
S1130AC098DF919698D699C0018200DB158900972A
S1130AD093D794BD40C639863E974B4F971539CE70
S1130AE002B53C00C680967B27015CD702CE00028B
S1130AF0DF98DF9108DF95BD1417CE02B54500DFFE
S1130B0098960327074ACCDF95BD14173996152606
S1130B100139DE451407DF02CE02B5BD1BAABD1B99
S1130B20AADE00A6001680942513CE1E2F211C27B2
S1130B3009CE1EB91A18AD0020E718DE008D6D200D
S1130B40E2DE021407DF00CE02B5DF028D5A8D5AB1
S1130B50DE00A6001680942513CE1E2F211C270923
S1130B60CE1E991A18AD0020E718DE008D3E20E253
S1130B70DE008D36C19426FA20028D2CCE02B5DF1C
S1130B8000D603D0017F0002D7031502398D198DD9
S1130B90198D17398D128D128D105D262039860915
S1130BA0DE008D064A26FB39DE00E60008DF00DEA3
S1130BB002E70008DF02DE00398DED8DED1720E23B
S1130BC086D0200286D19726DE0008DF22EE00E6DA
S1130BD00317C4802711D626DF268DD0841F168DD7
S1130BE0CBDE26140D20088DBF8602EE0014028D84
S1130BF0B1DE221402DF00398DAEDF22EE00DF26E3
S1130C00E60317C48026D58602168DA0DE2620DDD5
S1130C1096AD260BDE008D92C19426FA7E1CD281FD
S1130C200226037E1D098D80C6948D807E1CD2967B
S1130C30AD27E1DE4514099C0226ED810227E4BDBF
S1130C401BA8BD1BAC20E196AD27C9DE00BD1BAAC5
S1130C50C194277EC1CF26F5DE0209DF0220C94FE9
S1130C60200286109735BD1BA88615363A00A600CB
S1130C709706A6019707BD41EFDE06420032DF0664
S1130C80DE00D606BD1BACD607BD1BAC39C6B04FC3
S1130C902004C6B186109735DE00BD1BACA60097B4
S1130CA01008DF0ECC14FEDF008615363A00BD4373
S1130CB00320C6BD1BA87F0035A600971008DF0ED1
S1130CC0CC14FEDF008615363A00BD430620AABDCB
S1130CD01BA8DE45D603D046E7016F00C608E7022D
S1130CE06F046F03D628E705D629E706070FDE2829
S1130CF02606DE45DF3D200AD645E703D646E7044F
S1130D00DE45DF28DE02DF4506150239434C4F205D
S1130D104C464EBA095C121100000001290F035C15
S1130D20030F0517010400000D5C12100000000001
S1130D3011000000000F035C0B0F434F4DA0434F05
S1130D4050A0435041A044454CA0444952A04452B1
S1130D5045A0445550A0454F46A0454F52A0464F8C
S1130D6052A0494445A0494E53A04D4152A04F5072
S1130D7045A0524154A05243CC524541204C464ECA
S1130D80BA52454C204C464EBA52454DA052454E9F
S1130D90A0524553204C464EBA52504F204C464E1A
S1130DA0BA525245A053434CA0535041A05354410E
S1130DB0A0574154A0575249204C464EBA52415470
S1130DC0204C464EBA204841D4204C464E3A30205E
S1130DD0545950BA5459503A444952205245D0209B
S1130DE04841543A227B343035322020FD2048419A
S1130DF0543A227B343035324120FD204E45572071
S1130E004841543A227B343035322020FD204C4670
S1130E104E3A30A041494EA04E494EA0204C4FCEF0
S1130E20204C454E3AB02032327E2032345BFF02F1
S1130E3000000000000000000000000000000406A4
S1130E400000000000000000000000080A0C0E1062
S1130E501214000000000000000000000000000068
S1130E600000000000000016181A1C1E20000000DC
S1130E70000000000000000000000000000000006E
S1130E80000000000000000000000000000000005E
S1130E9000000000000000000000001B7A1B701B13
S1130EA0701BC01BC41B8D1B8D1B8D1B941B9E1B99
S1130EB0F81BF81BB91B7041F241F21CCF1C471CF4
S1130EC0101C5F1C621B8D1B8D1B8D1B941B9E1C99
S1130ED0B31CB31BB91C2F1C8D1C92C03439303980
S1130EE020343035325231302076312EB0FFFFFFBE
S1130EF0FFFFFFFFFFFFFFFFFFFFFFFFFFFFFFFFFE
S1130F00FFFFFFFFFFFFFFFFFFFFFFFFFFFFFFFFED
S1130F10FFFFFFFFFFFFFFFFFFFFFFFFFFFFFFFFDD
S1130F20FFFFFFFFFFFFFFFFFFFFFFFFFFFFFFFFCD
S1130F30FFFFFFFFFFFFFFFFFFFFFFFFFFFFFFFFBD
S1130F40FFFFFFFFFFFFFFFFFFFFFFFFFFFFFFFFAD
S1130F50FFFFFFFFFFFFFFFFFFFFFFFFFFFFFFFF9D
S1130F60FFFFFFFFFFFFFFFFFFFFFFFFFFFFFFFF8D
S1130F70FFFFFFFFFFFFFFFFFFFFFFFFFFFFFFFF7D
S1130F80FFFFFFFFFFFFFFFFFFFFFFFFFFFFFFFF6D
S1130F90FFFFFFFFFFFFFFFFFFFFFFFFFFFFFFFF5D
S1130FA0FFFFFFFFFFFFFFFFFFFFFFFFFFFFFFFF4D
S1130FB0FFFFFFFFFFFFFFFFFFFFFFFFFFFFFFFF3D
S1130FC0FFFFFFFFFFFFFFFFFFFFFFFFFFFFFFFF2D
S1130FD0FFFFFFFFFFFFFFFFFFFFFFFFFFFFFFFF1D
S1130FE0FFFFFFFFFFFFFFFFFFFFFFFFFFFFFFFF0D
S1130FF0FFFFFFFFFFFFFFFFFFFFFFFFFFFFFFFFFD
S9030000FC
