S00B00004441544120492F4FF3
S113000000000000000000000000000000000000EC
S113001040520180018000000000000000373532AA
S113002041444300BB3132424954200180384249A3
S11300305420200184412F44322020029D425552F5
S113004053543203B9515343414E32052053434173
S11300504E32200628554E50414B3208EE554E5034
S113006041434B09045041434B2020090B4D494E59
S113007024202009CE4D415824202009D1554E4D2D
S11300804553480A97504C4F5424200AF946465485
S11300902420200D724946542420200D76504143DB
S11300A04B24200F74554E50414B240FBA00322E6E
S11300B03220313832303731320D00CE00AE0F21CC
S11300C0A600180E2708086BBD40337520F039755B
S11300D0DF59BD41CE260F30BD407B1509A604E68D
S11300E003EE03380059860C974B654975DF59BDFB
S11300F041CE812026F009EE006BEE00DF28750862
S113010008150538005975DF594F97284C97293041
S1130110A600810A26D0EE01A604847FA7048520C8
S11301202710BD41CE30EE01E605D728E606D729D3
S1130130EE0B15041505140538005975DF5930A662
S113014000810826A1EE01DF04A6042A14861536D0
S1130150864897177F0016BD404832964B261EDE10
S113016004EE059C282514DE049628A7079629A7E3
S113017008EE0BA60284BFA70220B986157E00E80C
S11301807F03B7398608B703B73975DFCABD41CED7
S1130190266F30A60116C47FE7018480B702FDBD37
S11301A000CF8103220D26028605BA02FDB702FDA7
S11301B03800CA861220C675DFCABD41CE26423039
S11301C0BD02491509A603B70335AA04AA05EE041E
S11301D04D2707961B270409260108DF2AED002C6A
S11301E0DF288608971A97A5B103B727097F001A55
S11301F0780029790028323681082736BD41CE2778
S1130200037E00E6308D42A6058001A705A6048280
S113021000A704A6038200B7FF79B70359A604B761
S1130220FF7AB7035AA605B7FF7BB7035BFF033614
S113023020147F00A5BD013BDF1CED002C961A267F
S113024003ED002CDF203800CA8618A002841F2684
S11302500286186403660466054A26F739970F7FF9
S1130260000EBD40F375DF20BD41CE2694DE0E6B3B
S113027036BD40814103EC8DFEA27983C05B5541BC
S113028003EFD4FDF3B6459E5EBD00CF865F914B70
S11302902602DE417F004BDF22DE206E006249BD74
S11302A041CE2613BD00CFB702C5BD0106FF02B57E
S11302B08601B702E52010BD0106FF02B59629B7F5
S11302C002E58601B702C5B602C5840FCE03730FDB
S11302D0211C180EB7FF4AC610F702DDFE02B58DC9
S11302E01186F7C6058D1946C6028D14465F8D101A
S11302F0202B3DE6E845008604A7008610A70139B7
S1130300B7FF4ED714C6285A26FDC682B7FF495AEE
S113031026FDF6FF482703532601393232F7FF48FA
S11303204F5F3686144A26FD32FBFF49B9FF48F772
S1130330FF4824026C027A02DD26E7A703E7043CA7
S11303400061BD039155BD03845E30A6029014A7DD
S11303500224026A01FE02B54500A600848FA700AC
S11303601408FF02B50E7A02E527067C02C57E0258
S1130370C765491DE9E8E1E0606168699D9C959461
S113038014151C1D6249410408CCCCCCCCCCCC65E2
S113039049624941040C8000000000006549C6F729
S11303A08120270E5681042709564A270532327EBA
S11303B000E6F7FF4EF702F5396249DE41DF2CDF34
S11303C01ABD00CF8DD8BD018ABD00CFCE037321E5
S11303D01C18B7FF4ABD41CE27037E00E64E4B05ED
S11303E0DFCE008F8601BD025DB7FF48BD01B78D2A
S11303F011850427037E04E6DE22273909DF227EE5
S113040007E3B602FD270A8501270716F8FF4C2BE0
S1130410FA39F6FF48F7FF494D2A0CF102EF230C95
S1130420C6045A26FD20EBF102EF23F4F7FF4886B9
S1130430054A26FD393D05DF8601CE0037D61A264A
S1130440021418BD025DDE22260308DF2296A526CB
S113045044D61A271CB6FF48F7FF49DE1CA700083C
S1130460DF1CDE22090126FCDE2A09DF2A26E665D6
S113047049B6FF48F6FF49F7FF480101DE1CA70013
S1130480E7010808DF1CDE22090126FCDE2A09DF59
S11304902A26DE6549DE2AD61A2720B6FF48F7FF4A
S11304A049B7FF78DF00DE22090126FCDE000101E6
S11304B0010926E77A03352AE26549B6FF48F6FFC3
S11304C049F7FF480101B7FF78F7FF78010101DF21
S11304D000DE22090126FCDE000926DF7A03352A24
S11304E0DA6549BD0402B6FF48F6FF49F7FF487DC7
S11304F000A5270CB7FF78961A2613F7FF78200E6D
S1130500DE1CA70008961A2603E70008DF1CDE2A73
S113051009DF2A26CE96A527057A03352AC565491B
S1130520624986E9B7FF4ADE41DF2CBD0638BD01CA
S11305308ABD00CF8D022021CE0373DF20CE033984
S1130540DF22DE2021E6011808DF20DE22E7000892
S11305504A26EDCE0339DF2039BD01B7BD0402B709
S1130560FF48C6025A26FDDE20089C222303CE0340
S113057039DF208504266796A52631DE20089C22D3
S11305802303CE0339DF20A600B7FF4AB6FF48F69F
S1130590FF49DE1CA70008961A2603E70008DF1CA3
S11305A0F7FF48DE2A09DF2A26D16549DE20089CA8
S11305B0222303CE0339DF20A600B7FF4AB6FF4843
S11305C0F6FF49B7FF78961A2603F7FF78F7FF4836
S11305D0DE2A09DF2A26D57A03352AD06549DE20AA
S11305E0089C222306BD0402CE0339DF20A600B7EF
S11305F0FF4AB6FF48F6FF497D00A5270CB7FF78F0
S1130600961A2613F7FF78200EDE1CA70008961A08
S11306102603E70008DF1CF7FF48DE2A09DF2A2645
S1130620BD7A03352AB8654962498603971BBD0024
S1130630CF08DF2C8D02203975DFCABD41CE2703D8
S11306407E00E64B02EDBD41CE26F54E3D02ED5B4C
S1130650BD03845BBD03915230A6028B04A7024BF9
S113066002EDBD00CFBD039ECE02ECBD407B380041
S1130670CABD018A7F035DBD00ECFF0325D629F7BF
S11306800315A600813923028007840FDF1ECE03E1
S113069073211C18DE1EA700085A26E6B60315CEE1
S11306A00252BD025DBD01B796A52708DE2C0927BD
S11306B0037E00E6FE0325E600D712DF18F60315D5
S11306C0DE2CDF0ADE1CDF268D7386024A26FD5AE5
S11306D0270A08DF18EE00EE0046204DFE0325DF52
S11306E01801F60315DE228C000A253D9623D62236
S11306F08002C2005446544654469701D700DE0097
S1130700B602FD85012713B8FF4C8880BA035DB794
S1130710035DF6FF4C740000200586054A26FD742F
S1130720000044F603150926D7B6FF48DE26A700C5
S113073008B6FF49A7007D001A272E202DDE18A633
S113074000B7FF4A97148510270B4D2B0486F7201A
S11307500C86FB2008B602F56D00B602F5B7FF4E15
S1130760861E4A26FDF7FF483908DF2696149112A3
S11307702644B6035D2B47B602FD27428502262296
S11307804925077DFF4C2A3620077DFF4C2B2F017E
S1130790010101DE0A0926037E06C0DF0A46467E01
S11307A006C849B6FF482507B102EF221120E4B17B
S11307B002EF230A20DD8605014A26FD20D5DF0E3F
S11307C0961B2717BD073D5A27094646464A08DFA8
S11307D0182010F60315FE0325DF18DE2227040176
S11307E00926FC8603014A26FD74000001DE2A273F
S11307F04009DF2ADE2096A5261CB6FF48A700B6CE
S1130800FF49F7FF4808A700961A260508DF2020AD
S1130810AF01DF2020AAB6FF48B7FF78B6FF49F73B
S1130820FF487D001A2605B7FF782094B600002003
S11308308F961B272DFE0325A600DF1ECE0383C63D
S11308401021A100182704095A26F6CB30C13923F8
S113085002CB07DE1EE700087A031526DBDE2C092F
S113086026026549FE001CDF20DE0EDF249C2027C3
S1130870F1DE20ED002C961A2603ED002CDF2296E3
S113088025D6249021D2209727D7269623D62290A6
S113089021D2209027D22624FA9B27D9269729D71C
S11308A0289623D6229025D224972FD72EDE24DF14
S11308B02ADE20DF2CDE2AA6006BDE2CE600A70051
S11308C008DF2C75E70008DF2ADE2E09DF2E26E577
S11308D09623D6229027D2269721D7209623D62254
S11308E09029D2289725D724DE28269365498601A6
S11308F0972297126249BD41CE4B02B5BD41CE4B02
S113090002F5200C86017F001220014F97226249D4
S1130910BD00CF4AB702E5BD00CFDF26BD0106DF2B
S11309202ADE289C262402DF267D0022271ABD0009
S1130930ECDF2CB602E52706740028760029DE28B1
S11309409C262402DF26204A9626D6277D02E52708
S11309500258499728D729BD013BDF2CDE2A86108F
S1130960A0019724A602E6037D0024270744567AB3
S1130970002426F91408DF2ADE2CE7007D02E5278F
S113098005A700E7010808DF2CDE2609DF2626CCB0
S1130990203ADE2C4FE600087D02E5270417E60026
S11309A008DF2CDE2A36BD02F232A702E7033C0040
S11309B061961227083D02F5553D02B55EDE2A45D3
S11309C0001408DF2ADE2609DF2626C665494F20E3
S11309D0028601971C6249BD00CF4A9718BD0106E3
S11309E0FF030DBD02F26C03BD0106FF02EDBD0263
S11309F0F2BD00EC0909DF24DE28260265490F9FB9
S1130A0016DE24A602AE02FE02EDAF029E41EE0205
S1130A10D6182753DF2274002876002931DE2408F3
S1130A2008DF24EE00961C27069C22231820049C31
S1130A30222412DF22FE030DAF02FE02ED9622A74E
S1130A40029623A703DE2809DF2826D09E160EFE71
S1130A5002ED3C0061FE02ED4500FE030D3C006129
S1130A60FE030D45006549FE02ED6F02A70331DE6A
S1130A7024A60208DF24FE02EDD61C2606A10325C7
S1130A8006200BA1032307A703FE030DAF02DE28F4
S1130A9009DF2826D920B56249BD00CF4A971ABD7F
S1130AA000CFDF24BD00CF09DF22BD00CFDF20DE71
S1130AB024961A2703ED0024DF28BD013BDF1EBD69
S1130AC000ECED0022961A2703ED0022DF1CDE1C49
S1130AD0A600E601ED00207D001A2703ED0020DFCB
S1130AE01CDE1EA700087D001A2703E70008DF1E8E
S1130AF0DE2409DF2426D765496249BD00CF4A9721
S1130B001ABD00CFDF24BD00CF09DF22BD00CFDF37
S1130B1020BD00CF97907F008FBD401BCE04F4DF33
S1130B20A0CE0504DF9E8601B703403DE6E84B02F4
S1130B30CDBD00ECED0022961A2703ED0022DF1C48
S1130B40DE1CA600E601ED00207D001A2705ED005D
S1130B50202002164F373636DF1CBD40814B05047A
S1130B603DE7023D02CD524E4B02CD4B04F48614B8
S1130B70BB03408D127F0340DE2409DF2426C1BD60
S1130B8041D4BD421F6549BD41809797978E7F0030
S1130B908F7E40B14F97A775FF02BDBD41CE27039D
S1130BA07E00E6BD00CFDF1ADF1C78001D79001C33
S1130BB08120222F7F02C17C02C1445624F91B26C6
S1130BC0227A02C1271DBD0C40DF20BD0C40DF1E70
S1130BD0D6A7270CBD0C40FF02C7BD0C40FF02C5C1
S1130BE03802BD86597E00E89753CEE54848240371
S1130BF0CEE6481A6E0032339759D75AEE00BD41FB
S1130C00A4BD40814104108000000000005538005C
S1130C1059DF0475DF5941041080000000000052C0
S1130C20CE05DE45016D012A044F5F2010BD407BD7
S1130C307F004BA603E604DE04A700E70138005951
S1130C4075FF02BF4FBD0C96FE02B79C1C25437472
S1130C5002BA7802BAFE02B99C1C241DED02BBDF65
S1130C6000DE008680A7006F010808DF00FE02B9DD
S1130C700808FF02B99C1C26E8FE02B5961CD61D86
S1130C80A707E708FE02BB3802BF7E00E686247E83
S1130C9000E8861520F9B702C475DF593236810899
S1130CA026E830EE01FF02B5A604811026DC6B6B4A
S1130CB0EE05FF02B775EE07FF02B975EE0BA6024B
S1130CC0852027C6854027097D02C427C08620A722
S1130CD0021405FF02BB150538005975FF02BFBD9C
S1130CE041CE3236810A26A230EE01DF20EE05DF46
S1130CF00EDE20EE072703BD40F3DE0EDF28DE20E4
S1130D00EE0B1405DF2015093802BFDF0C2A0DC8CD
S1130D108073000C70000D27037C000C3927285FBA
S1130D206BDE0E8DE6DF0E758DE137BD40F3335D6E
S1130D302A0B73000C70000D26037C000CDE0C5D86
S1130D402B06960E2A010839960E2A010939DF006E
S1130D50DE1ADF02DE00A600E60180804756C900E5
S1130D6089008B80A700E7011402DF00DE02092658
S1130D70E139868020014F97A56249BD0B948D020D
S1130D806549CE0001DF1208DF10DE1E1402DF22E7
S1130D90DE201402DF24DE1ADF147400147600153A
S1130DA0D61BD015D719961A92149718911225EAC2
S1130DB02204D11325E4DE14DF16DE1209DF1278D3
S1130DC00013790012780017790016DE1626F0CE8B
S1130DD08000DF16DE14740012760013740012769D
S1130DE000137400167600179C1626F0DE14ED002E
S1130DF012DF1608DF127800177900169C10233CC6
S1130E00DE22EE006BDE24EE006BDE1EED0016DF4C
S1130E1026A600E601DE22A700E701DE20ED00168B
S1130E20DF28A600E601DE24A700E701DE2832332E
S1130E30A700E701DE263233A700E701DE109C1A83
S1130E40271208DF10DE221402DF22DE241402DF60
S1130E50247E0D96CE0001DF143DE6E04B02E596BC
S1130E60A5B802E5B702E59614D61558499716D7E2
S1130E701796A5270ADE1EBD0D4EDE20BD0D4E3D84
S1130E80E6E84B02ED3D02E5DE146B36BD40815EC3
S1130E904B02F5CE0001DF18DE1EDF2CDE20DF2E34
S1130EA03D02ED4E864BBD0BE84B02D5864CBD0B87
S1130EB0E84B02DDDE18DF10DE2EDF24DE2CDF221D
S1130EC0ED0016DF26BD0BF63D02D55BDE24ED00FA
S1130ED016DF28BD0BF63D02DD5B554E4B05CFDE1C
S1130EE028BD0BF63D02D55BDE26BD0BF63D02DDCB
S1130EF05B524B05D7DE22BD0BF64E3D05CF55DECA
S1130F0026BD0C1152DE22BD0C11DE24BD0BF64EA3
S1130F103D05D755DE28BD0C113D05D752DE24BD55
S1130F200C11DE10ED0016DF10BC001A2217DE24AF
S1130F30ED0016ED0016DF24DE22ED0016ED00169E
S1130F40DF227E0EC03D02ED3D02F5524B02EDDE86
S1130F502C1402DF2CDE2E1402DF2EDE1808DF181C
S1130F609C1422037E0EA0DE16DF14BC001A240398
S1130F707E0E67396249BD0CDB86FFBD0C96DF1E11
S1130F80DE28ED0028DF26BC02B7222BDE203C0041
S1130F901408DF20DE1EBD0C111402DF1EDE28093A
S1130FA0DF2826E8FE02B59626D627A707E70832EB
S1130FB036811726C165497E0C926249BD0CDB4F10
S1130FC0BD0C96FE02BBDF1EFE02B92728DF267485
S1130FD00026760027DE289C2625DCDE1EBD0BF6C7
S1130FE0DE1E1402DF1EDE2045001408DF20DE268C
S1130FF009DF2626E63236811726C16549BD10135E
S9030000FC
