S00B00004441544120492F4FF3
S1130000D717DE06DF10AE042A118E1536BD484818
S113001032964B26178628A702200AEE0B140DDF12
S113002022DE189627A708DE14BD1C1C7E03787EEA
S113003003938E6BBD162FBD190A0A00020038EE19
S113004004BD1C4BBD143E4FBD143E30EE08BD181C
S113005019BD0992BD01B8964B26D930140ABE02C7
S1130060BC36BE02BB36BE02BA36BD16F8301C1012
S1130070080808B602B83EB602B73EB602B63EBDA0
S113008016F828A8864BBD162FBD190A0180090051
S113009030EE0CBD16DDBD0192BD1FAA30140E86D4
S11300A01536BD14C332BD136A7E19388666BD1673
S11300B02FBD190A0180090030EE0CBD144BBD148C
S11300C03EBD096BBD019ABD01B09E4B267038142C
S11300D006861D36BD14CB32DE06BE02B5810A2665
S11300E0555FFA02CCB60ACCA706FA02CDB60ACD01
S11300F0A707FA02CEB60ACEA708AE05840D5D277F
S1130100028A0AA705B60AB784F0AA05A7058D08CE
S1130110260B4FA709A70AA70BA70C2014B60AC8D9
S1130120A709BE02C9A70AB602CAAF0BB602CBA77B
S11301300CBD0CA920026F05BD01CEBD14F87E03D1
S113014070864ABD162FBD190A0188022030EE04BC
S1130150BD16DD30EE08BD1498BD1E4CBD019ABD20
S113016017AA38140A861D36BD14CB32BD17E9818F
S11301700226CDBD17FDBD04A920F98621BD1E2F81
S1130180BD190A0180010830EE04BD16DDBD0992D7
S1130190BD17AA3014068E1536BD1CC332BD1B6AAA
S11301A020CA8E20BD162FBD190A098000BD0992F0
S11301B0964B2E19300808861536BD14C3324F9756
S11301C08FBD1FAD81012E08BD135E20F47E0B9DF3
S11301D07E11388625BD1E2FBD190A00018038EE18
S11301E004BD1C98DF02EE002748DF008D5B9F12E0
S11301F027404A97177F08168D3B892D26348D3565
S113020097068D3197078D2D9708CEE181A6099128
S113021006260CA602910F2606A60B9108275D96CA
S113022016D61FEB0089089716D71F14048CE9B162
S113023026DB7E0397DE08270E09DF00DE02AE020E
S113024008DF0ABD4225394F398DEA5F80302B180B
S113025081092E14168DDE80302B0D81092E09366E
S1130260581748481B331B3917DE0808DF00DE0225
S113027009DF0A399612A9002E698CE1AD260C819A
S11302801F2E688DB0812D265A8DBE804C273B2AA7
S1130290068B6C81402E4C85032718D6162608D66B
S11302A017C13B273E250CD617C009D717D61EC247
S11302B000D71ED617CB6ED717D61EC901D71E4A34
S11302C026F1DE16DF0ECE5180BD48F3DE0EDF18B8
S11302D09616DE17DB0D990C9716DF17BD123D81BC
S11302E020270B7E0393BD1249811F2EF6970F7FA3
S11302F0000E9E18D619CE0E10BD48F0270B9E177F
S11303009B0D9F1724037C0016DE0EDF18BD1A35E3
S1130310813A2ECFBD1249813C2CC87F000E9F0F1D
S11303209618DE19CE003CBD40F02F05DE1608DF1E
S113033016DE0EDF18BD1A35813A2E17BD1249811B
S11303403C2CA89B199719240A7C08182605DE164C
S113035008DF1ECE0016CE04BD142E7E0EE4BE02AF
S1130360B7BD1E1BCEE09EBD141CCE02C6C60CBD7E
S11303701426CEE08ABD1C1CCE02DCC60ABD1C2697
S1130380CEE09EBD141CCE02DEC618BD1426CEE0FF
S1130390AABD1C1CFE02BADF18FE0ABCDF1ACE1D61
S11303A03DBD1D0FCEE0BB8D73FE0AC2DF18FE02F9
S11303B0C4DF1ACE1D3DBD150FCEE8BC8D5EFE0216
S11303C0BEDF18FE02C0DF1ACE1D3DBD150FCEE004
S11303D0DD8D49FE02D2DF1ACE1D4DBD150FCEE0D4
S11303E0C58D39CE02F6BD1582CEE8D08D2EFE0223
S11303F0B8DF1ACE1D4DBD150FCEE8E68D1EBE0228
S1130400FA27148580270736CEE0F58D0F32854014
S11304102705CEE1028D05860D7E143EE601271CDC
S113042008082002DE20A60008DF20DE26270D09AA
S1130430DF26DE22A70008DF225A26E83917C60184
S113044020E94F378DF8335A26F93908A6012B10C5
S1130450BD407BA6032609A604270581092201398C
S113046086147E039BA600810C272CDF14C60CE7A0
S11304700008810A270CEE02A600482A1286247E70
S1130480039BEE00A6042BF58615582AF214053CAE
S113049000DE14084500093908A60081082621EE6B
S11304A001DF00EE07DF02DE00A6042BD0EE0BA670
S11304B002482BC90808089602A7009603A7013929
S11304C0EE0339A60081012605DE41DF2639EE015F
S11304D0DF24A6042A15861536864897177F00164A
S11304E0BD404832B6004B260EDE24EE05DF26DE84
S11304F024EE0B1405DF2239DE24A605E606D027F8
S11305009226A707E708EE0BA60284BFA702398646
S113051030368D28DF148B30331127045F372003E6
S1130520378620BD143EDE1414048C1D5D26E33290
S1130530961B8B30BD143E86207E143E4F4CD61B3A
S113054021E00318D71BD61A21E20218D71AD619AC
S113055021E20118D719D61821E20018D7182ADD8C
S1130560D61B21EB0318D71BD61A21E90218D71A78
S1130570D61921E90118D719D61821E90018D71876
S11305804A39A600E6019718D719EE02DF1A260A9F
S1130590DE182606CEE0007E141CCE1D2C8D9D9701
S11305A002CE1D318D9636CE1D308D90335D2604DE
S11305B0813B250C36960285033227048B01C90042
S11305C0CEE181A000C2002B04140420F6AB004C41
S11305D0DF048D47862DBD143EDE0408C603BD141A
S11305E026862DBD143E96028B4C816425028064C0
S11305F08D298620BD143ECE1D35BD153C8D1C862F
S11306003ABD143ECE1D39BD153C8D0F862030EE0B
S1130610008C0FD52602863A7E143E164F4CC00A33
S11306202AFB4A378B30BD143E328B3A7E143ECEC1
S113063002B5DF22DF98CE0104DF267E143EBD0121
S11306408CA6042A04CEE012397E14A1961936969B
S11306501836A6002705863E7E039BDF16A60127D3
S11306600AA6028140275681242722BD163EA601F0
S11306702714BD141CDE16A6012733A602812327E6
S113068007862FBD143EDE16BD141C2021CEE01EAD
S1130690BD141CDE22DF18DE16E601C101270FA6F9
S11306A0038123271ABD141CDE18862FA700862475
S11306B0BD143EDE220932971832971939E6015AE1
S11306C027EC1403BD142620E5BD407B964B260879
S11306D0080808C6027E142686127E039B08BD40C5
S11306E07B964B26F3A60326EFA6047E143E329790
S11306F0143297154F3620073297143297154F3618
S11307003636863036860436860C36DF168D1ADE8B
S113071016A600810A2704EE032008EE018640A7EE
S11307200414054500DE146E006249616549A600A3
S11307302610E101230CE00137BD141C3386207E12
S1130740144308087E142639DF02EE00DF0027591F
S1130750BD12354D275381422606C4CFCA4020F02E
S113076081412606C4AFCA2020E681522604C4F77C
S113077020DE81552604CA0820D681532604C4FBF2
S113078020CE81432604CA0420C6814E2604CA0210
S113079020BE814D2604C4FD20B681482606C4BF70
S11307A0CA3020AC863E7E039B394F978FCE02B56C
S11307B0DF98CE02FADF93860E978E4F976ABD407C
S11307C0C6964B2611B602B5810126013930EE00DA
S11307D08C11C427F74FD653C17D27037E039B4F4B
S11307E039CE02B5DF98CE02D0DF93860E978E4FB6
S11307F0976ABD40C6964B26DDB602B539DE95DF55
S113080098CE03B8DF9386249778860D978E4F97FA
S11308106ABD40C6964B26BE3908A6012B2D80041E
S11308202B2E2627C618A603E002271B231D446689
S11308300466055A26F8240B6C0526076C04260367
S11308404C2708A7032010690620EB86127E039B21
S11308505FE703E704E705080808C6037E1426FFDC
S113086000980909EE00DF95860CB70097BD406932
S1130870DE1408BD407B964B263CEE03DF00CE021F
S1130880B6DF02CE0014DF04BD40D8DE0408863F84
S1130890A700DF95DE02FF0098BD4069CE0221DF8C
S11308A098860D9797BD4108B60221BD422581590E
S11308B02601394F200286127E039B964B27037E26
S11308C0039D97A4978FCE02B5DF98CE03B8DF932C
S11308D0860D978E4F976A86249778BD40C6964BAF
S11308E026DD966A811027068D0997A420D896A440
S11308F07E039DCE02B6DF98860DA700DE95A70085
S1130900860C9797BD40698659398617972830EE2B
S11309100021A6001808DF1821EE0018DF16313177
S113092030EE00DF20313130DF1ADE189714274F04
S11309300881042F0108DF1830A600810A270E81E0
S11309400B271681172755810C2614204FDF1AEE2A
S113095001A60485202645DE1A8600140920041405
S1130960058680D616C4C011263278001779001681
S11309707800177900167A001426BEDF1ADE1821D3
S1130980A6001808DF18DE1A97142617A600811788
S1130990260ADE18D62137D620376E00860CCE0301
S11309A09D20F109DF00BD41E61504DE1821E600B3
S11309B0EE0118D71CDF1D96148B0347475F9B1964
S11309C09719D918D71830A600811326CFA601D6B7
S11309D01C5757C4301126C4140478001E79001D16
S11309E079001C78001E79001D79001C7A001426F9
S11309F0D6A600811327A5DE182099861897289675
S1130A005648CE00DC211A186E00BD405186599715
S1130A1053CE04A1DF5615FE861836BD1AB215034F
S1130A2021FE40BE186B964B260E96552A0ADE3DD3
S1130A30DF4F21FE418A186B7E1D8F32975C3297FF
S1130A405D328118260836DE41C6FF38005C32303C
S1130A50EE0015024D26F008BD407BEE035F380022
S1130A605C9653816E27A37F00A44FBD016B86045F
S1130A70A7058640A704C680BD09EC860E978EDEC6
S1130A8041DF28BD1B70964B260FBD1C27966A8537
S1130A903C2606860197A420EAD64B96A42602C6D5
S1130AA03B377F004BBD01C64FBD01DF32974B7E04
S1130AB01B333008DF00861836BD41E6964B26EF1F
S1130AC0BD4000BD1A3BD71EDF14BD1A3B2604DF10
S1130AD016200DDE14DF16961E2705CEFFFFDF1647
S1130AE0964B26CB968E810426037E1A61D6153743
S1130AF0D6143737BD40A23330EE003131DF022641
S1130B0002201E3330EE00DF1415029614D6159120
S1130B1016220E253DD11722082537DE41DF162087
S1130B2031DE41DF00DF98DF9108DF95868097870B
S1130B30BD099ADE41DF64DF62BD421F30EE018CE5
S1130B401A1E2603BD40F915FE21FE40FA186B7EDD
S1130B501D8FBD1C5A5FD787BD1BF37F0087966E20
S1130B609A4B26CFDE1627B9DE1408DF147E1AED61
S1130B70CE0014DF98DF9108DF93BD40C6966A85E6
S1130B803C266C9615276B961481812E5E2D048667
S1130B900197804FD615CBFB8901DB4699459F0809
S1130BA0D0099208252926035D2724970086153647
S1130BB096293696283686073696003736860E36B8
S1130BC0BD41DD3232972832972932964B2623DEF7
S1130BD0451407DF98DF919698D699C0018200DB0F
S1130BE01589009793D794BD40C639863E974B4FDD
S1130BF0971539CE02B53C00C680967B27015CD799
S1130C0002CE0002DF98DF9108DF95BD099ACE027B
S1130C10B54500DF98D603270D8602CBB48900972B
S1130C2095D796BD099A399615260139DE98080894
S1130C30861536DF00E600C1B62E12CE1D5D860A8B
S1130C4021E10018230A14054A26F5DE000820E3F2
S1130C5026F921EE0118AD0020D9DE02EE0014F9C8
S1130C60DF00D601DF26CE02B5DF22DE021407BD87
S1130C701426DE00DF02CE02B7DF00E600CE1D5DE3
S1130C80860A21E10018230A14054A26F5DE000825
S1130C9020E726F921EE0318AD0020DD4F2002865F
S1130CA0109735DE00DF26A6019706A60297078671
S1130CB01536BD41EF319606D607DE26DF00A701C3
S1130CC0E702DE00140339DE00EE01A602E603DECD
S1130CD00020EBDE00140939DE009600D601EB0299
S1130CE0A9019700D70120DA3131393131DE459637
S1130CF0155F8B070FA7019B469746E700D945D799
S1130D0045DF0A8608A702DE28270A960AA7039663
S1130D100BA7042004DE0ADF3DDE0A9628A7059609
S1130D2029A706DF286F036F040E323901E285001C
S1130D30000151800000000E100000003C05F5E1A8
S1130D400000989680000F4240000186A000002712
S1130D5010000003E8000000640000000A941CEB8B
S1130D601CE8A31CEB1CE8A41CEB1CE8B01C9C1C9A
S1130D70C7B11C9F1CC7B21CC21CC2B31CC21CC27C
S1130D80B41CC21CC2B51CD81CD8B61CD31CD37E40
S1130D904027FFFFFFFFFFFFFFFFFFFFFFFFFFFFF6
S1130DA0FFFFFFFFFFFFFFFFFFFFFFFFFFFFFFFF4F
S1130DB0FFFFFFFFFFFFFFFFFFFFFFFFFFFFFFFF3F
S1130DC0FFFFFFFFFFFFFFFFFFFFFFFFFFFFFFFF2F
S1130DD0FFFFFFFFFFFFFFFFFFFFFFFFFFFFFFFF1F
S9030000FC
