S00B00004441544120492F4FF3
S1130000DE09C680A600270C81012706C6018102ED
S11300102608E700BD01A07E1BCA7E04A28686BD19
S11300201930BD1C1C00010030EE04BD1753BD1770
S113003046BD0175C604BD174ADE066F096F0A6F17
S11300400B6F0C7E1165BD1C1C0003288668BD194E
S11300503030EE04BD19DE30EE08BD178CBD194DED
S113006030EE0CBD178CBD194DBD01A37E1BCA8695
S1130070412002864097247F0012300808A60081A0
S11300800127048108262F09DF00BD4012BD40125C
S1130090DE00A601810C2713810A270F810B270B91
S11300A0BD1C1C00042A7C00122013BD1C1C000370
S11300B0287A00122008BD1C1C000B20A00030EE82
S11300C004DF14CEE151BD1B6E9624BD193030EE11
S11300D004A605BD174630EE08BD178CC60ABD1A26
S11300E02F307D00122704EE0C2002EE14BD178C75
S11300F0C618BD1A2F8601BD1746BD17467D0012CE
S11301002721860AC602BD174B8601C603BD174BBD
S11301107D00122B0530EE10202AC60A8620BD175A
S11301204B204230EE1CBD19DE30EE20BD19DE300E
S1130130EE24BD19DE30EE28BD19DE30EE2CBD19DB
S1130140DE30EE18BD178CC60ABD1A2F2017864262
S1130150BD1930BD1C1C00020030EE04BD19DE3098
S1130160EE08BD19DEBD01A0BD01E27E1BCA8615E5
S1130170360797120FDE412030861797283008087B
S1130180A60081172605860C974B390797120FBDD9
S1130190176D861536BD407B964B2610EE03DF00A7
S11301A0BD40A8964B2605DE00FF03C596120696B1
S11301B04B3139860C974B20F3300808A600810890
S11301C02641BD1C1C018000300808861536BD1769
S11301D0C4BD019A31DF1AEE0BA602482B1FDE1AAA
S11301E0A608E607EE0B1405DF959B96D99597961E
S11301F0D795DF98BD040CBD17F97E0473DE98DF34
S11302009520F1860C974B398624BD1930BD1C1CF2
S11302100400010030EE04BD19DEBD01A0BD02D70B
S11302202548BD01C2964B2641301406B602BC36A1
S1130230B602BB36DF18BD19EFB602BA36B602B93C
S113024036DE181409DF18BD19EFB602B836B60247
S1130250B736DE181409DF18BD19EFB602B636B684
S113026002B536DE181409BD19EF7E04738649BD44
S11302701930BD1C1C00042A30EE04BD19DE30EE1A
S113028008BD178CC60ABD1A2F30EE0CBD178CC6DC
S11302900ABD1A2F30EE10BD178CBD17247E1165D0
S11302A0BD1C1C018000CEE028DF98BD01A3BD0267
S11302B0D72523BD01C2964B261C30080886153667
S11302C0BD17C432CE02B5A6042608BD1883961BFA
S11302D0BD191CBD17F97E0473BD0194BD1C1C001F
S11302E0018030EE04BD178CDF14A600263A971661
S11302F0A6019727C61511222FD717DE06DF10A6F1
S1130300042A11861536BD404832964B261786209E
S1130310A7022002EE0B1405DF22DE109627A708A1
S1130320DE14BD17247E04737E049E866BBD1930D3
S1130330BD1C1C0200020030EE04BD1753BD17465D
S11303404FBD174630EE08BD1B28BD01A0BD01C23C
S1130350964B26D1BD02D725CC30140AB602BC3642
S1130360B602BB36B602BA36BD19F9301410080805
S113037008B602B836B602B736B602B636BD19F9B3
S113038020A3864BBD1930BD1C1C0180010030EE3A
S113039004BD19DEBD01A0BD1AAB301406861536A6
S11303A0BD17C432BD16727E143B8666BD1930BDBE
S11303B01C1C0180010030EE04BD1753BD1746BD5F
S11303C00175BD01A0BD01C2964B2675B602B527C5
S11303D073301406861536BD17C432DE06B602B570
S11303E0810226555FFA02CCB602CCA706FA02CDEA
S11303F0B602CDA707FA02CEB602CEA708A6058498
S11304000D5D27028A02A705B602B784F0AA05A7E4
S1130410058508260B4FA709A70AA70BA70C2014CC
S1130420B602C8A709B602C9A70AB602CAA70BB67C
S113043002CBA70CBD05C720026F05BD01D8BD17AF
S1130440F97E0473BD02D720F8864ABD1930BD1C5D
S11304501C0180022030EE04BD19DE30EE08BD1709
S11304608CBD194DBD01A0BD1AAB30140A861536DA
S1130470BD17C432BD1AE6810226C0BD1B07BD05E7
S1130480C720F18621BD1930BD1C1C01800100303C
S1130490EE04BD19DEBD01A0BD1AAB3014068615ED
S11304A036BD17C432BD167220CA8620BD1930BDB0
S11304B01C1C018000BD01A0964B2619300808863B
S11304C01536BD17C4324F978FBD1AAE8101260869
S11304D0BD166620F47E04AC7E143B8625BD19301F
S11304E0BD1C1C00018030EE04BD178CDF02EE0041
S11304F02748DF008D5B971227404A97177F001625
S11305008D3B812D26348D3597068D3197078D2DA2
S11305109708CEE181A6019106260CA60291072632
S113052006A603910827559616D617EB008900975F
S113053016D71714048CE1B126DB7E04A2DE002753
S11305400E09DF00DE02A60208DF02BD4225394F94
S1130550398DEA5F80302B1881092E14168DDE80C8
S1130560302B0D81092E0936581748481B331B3987
S113057017DE0008DF00DE0209DF02399612A1004F
S11305802E698CE1AD2604811F2E608DB0812D264D
S11305905A8DBE804C27332A068B6481402E4C85AD
S11305A0032718D6162608D617C13B273E250CD696
S11305B017C001D717D616C200D716D617CB6ED7D9
S11305C017D616C901D7164A26F1DE16DF0ECE510C
S11305D080BD40F3DE0EDF189616D617DB0D990C9E
S11305E09716D717BD153D812027037E049EBD15A0
S11305F05181172EF6970F7F000E9618D619CE0E3E
S113060010BD40F0270B96179B0D971724037C0011
S113061016DE0EDF18BD153D813A26CFBD1551817A
S11306203C2CC87F000E970F9618D619CE003CBDFF
S113063040F02705DE1608DF16DE0EDF18BD153D77
S1130640813A2617BD1551813C2CA09B199719247A
S11306500A7C00182605DE1608DF16CE0016C6042E
S1130660BD172E7E1165B602B7BD191CCEE096BD2E
S11306701724CE02C6C60CBD172ECEE08ABD1724A1
S1130680CE02D4C60ABD172ECEE09EBD1724CE02DC
S1130690DEC618BD172ECEE0AABD1724FE02BADFAF
S11306A018FE02BCDF1ACE2130BD1810CEE0B38D87
S11306B073FE02C2DF18FE02C4DF1ACE2130BD1859
S11306C010CEE0BC8D5EFE02BEDF18FE02C0DF1A53
S11306D0CE2130BD1810CEE0DD8D49FE02D2DF1AE6
S11306E0CE2140BD1810CEE0C58D39CE02F6BD181E
S11306F083CEE0D08D2EFE02B8DF1ACE2140BD1885
S113070010CEE0E68D1EB602FA2714858027073640
S1130710CEE0F58D0F3285402705CEE1028D0586AA
S11307200D7E1746E601271C08082002DE20A600DD
S113073008DF20DE26270D09DF26DE22A70008DFDA
S1130740225A26E83917C60120E94F378DF8335A63
S113075026F93908A6012B10BD407BA6032609A65D
S1130760042705810922013986147E04AA3A003A35
S113077008DF1409DF00BD4024DE14420842004DA6
S11307802605964B26033986247E04AA08A60081F2
S1130790082621EE01DF00EE07DF02DE00A6042BAF
S11307A0E6EE0BA602482BDF0808089602A700967F
S11307B003A70139810127098109270531317E0405
S11307C0A6EE0339A60081012605DE41DF2639EEB7
S11307D001DF24A6042A15861536864897177F005C
S11307E016BD404832B6004B260EDE24EE05DF2649
S11307F0DE24EE0B1405DF2239DE24A605E606D03E
S1130800279226A707E708EE0BA60284BFA70239A2
S11308108630368D28DF148B30331127045F372060
S113082003378620BD1746DE1414048C215026E3BA
S113083032961B8B30BD174686207E17464F4CD60A
S11308401B21E00318D71BD61A21E20218D71AD6A7
S11308501921E20118D719D61821E20018D7182A4D
S1130860DDD61B21EB0318D71BD61A21E90218D7B2
S11308701AD61921E90118D719D61821E90018D771
S1130880184A39A600E6019718D719EE02DF1A268E
S11308900ADE182606CEE0007E1724CE211F8D9D89
S11308A09702CE21248D9636CE21238D90335D265A
S11308B004813B250C36960285033227048B01C93B
S11308C000CEE181A000C2002B04140420F6AB008A
S11308D04CDF048D47862DBD1746DE0408C603BDD4
S11308E0172E862DBD174696028B4C8164250280F7
S11308F0648D298620BD1746CE2128BD183D8D1C48
S1130900863ABD1746CE212CBD183D8D0F8620306A
S1130910EE008C12CE2602863A7E1746164F4CC045
S11309200A2AFB4A378B30BD1746328B3A7E17466C
S1130930CE02B5DF22DF98CE0104DF267E1746BD46
S11309400194A6042A04CEE012397E17959619362E
S1130950961836A6002705863E7E04AADF16A60151
S1130960270AA6028140275681242722BD193FA6C3
S1130970012714BD1724DE16A6012733A6028123FE
S11309802707862FBD1746DE16BD17242021CEE08B
S11309901EBD1724DE22DF18DE16E601C101270F73
S11309A0A6038123271ABD1724DE18862FA70086E5
S11309B024BD1746DE220932971832971939E60109
S11309C05A27EC1403BD172E20E5BD407B964B2619
S11309D008080808C6027E172E86127E04AA08BDDF
S11309E0407B964B26F3A60326EFA6047E174632D9
S11309F097143297154F3620073297143297154FB4
S1130A00363636863036860436860C36DF168D1A30
S1130A10DE16A600810A2704EE032008EE018640B4
S1130A20A70414054500DE146E006249616549A6F9
S1130A30002610E101230CE00137BD172433862082
S1130A407E174B08087E172E39DF02EE00DF0027E1
S1130A5059BD153D4D275381422606C4CFCA4020B7
S1130A60F081412606C4AFCA2020E681522604C480
S1130A70F720DE81552604CA0820D681532604C4F3
S1130A80FB20CE81432604CA0420C6814E2604CA14
S1130A900220BE814D2604C4FD20B681482606C42A
S1130AA0BFCA3020AC863E7E04AA394F978FCE024F
S1130AB0B5DF98CE02FADF93860E978E4F976ABD04
S1130AC040C6964B2615B602B58101260139BD02F2
S1130AD0D730EE008C14CC27F4964BD653C17D2727
S1130AE0037E04AA4F39CE02B5DF98CE02D0DF933D
S1130AF0860E978E4F976ABD02D725DDBD40C696F8
S1130B004B26D8B602B539DE95DF98CE03B8DF930D
S1130B1086249778860D978E4F976ABD02D725B99C
S1130B20BD40C6964B26B43908A6012B2D80042B54
S1130B302E2627C618A603E002271B231D4466049D
S1130B4066055A26F8240B6C0526076C0426034C0C
S1130B502708A7032010690620EB86127E04AA5FEB
S1130B60E703E704E705080808C6037E172EFF001D
S1130B70980909EE00DF95860CB70097BD4069DE41
S1130B801408BD407B964B263CEE03DF00CE02B634
S1130B90DF02CE0014DF04BD40D8DE0408863FA780
S1130BA000DF95DE02FF0098BD4069CE0221DF9888
S1130BB0860D9797BD4108B60221BD42258159266D
S1130BC001394F200286127E04AA964B27037E0425
S1130BD0AC97A4978FCE02B5DF98CE03B8DF938687
S1130BE00D978E4F976A86249778BD40C6964B26FC
S1130BF0DD966A81102709BD03A5964B97A420D5DD
S1130C0096A47E04ACCE02B6DF98860DA700DE95CE
S1130C10A700860C9797BD4069865939861797288F
S1130C2030EE0021A6001808DF1821EE0018DF16A8
S1130C30313130EE00DF20313130DF1ADE18971405
S1130C40274F0881042F0108DF1830A600810A27E6
S1130C500E810B271681172755810C2614204FDF90
S1130C601AEE01A60485202645DE1A860014092002
S1130C700414058680D616C4C0112632780017796C
S1130C8000167800177900167A001426BEDF1ADEE3
S1130C901821A6001808DF18DE1A97142617A600D4
S1130CA08117260ADE18D62137D620376E00860C27
S1130CB0CE04AC20F109DF00BD41E61504DE1821A5
S1130CC0E600EE0118D71CDF1D96148B0347475F1F
S1130CD09B199719D918D71830A600811326CFA6C7
S1130CE001D61C5757C4301126C4140478001E7949
S1130CF0001D79001C78001E79001D79001C7A0003
S1130D001426D6A600811327A5DE182099861897E5
S1130D1028965648CE00E4211A186E00BD4051862C
S1130D20599753CE04A1DF5615FE861836BD1DC44F
S1130D30150321FE40BE186B964B260E96552A0AC3
S1130D40DE3DDF4F21FE418A186B7E21FC32975C29
S1130D5032975D328118260836DE41C6FF38005CC2
S1130D603230EE0015024D26F008BD407BEE035FE5
S1130D7038005C9653816E27A37F00A44FBD017594
S1130D808604A7058640A704C680BD0BD8860E97A7
S1130D908EDE41DF28BD1E70964B260FBD1F2096A8
S1130DA06A853C2606860197A420EAD64B96A4269B
S1130DB002C63B377F004BBD01D84FBD01F13297CE
S1130DC04B7E1E333008DF00861836BD41E6964B55
S1130DD026EFBD4000BD1D4DD71EDF14BD1D4D26A1
S1130DE004DF16200DDE14DF16961E2705CEFFFF46
S1130DF0DF16964B26CB968E810426037E1D73DE6A
S1130E00146B34BD40A230EE011506DF022712DF59
S1130E1014DF02EE079C1625392606DE41DF162074
S1130E2031DE41DF00DF98DF9108DF958680978708
S1130E30BD0B7EDE41DF64DF62BD421F30EE018CFC
S1130E401D302603BD40F915FE21FE40FA186B7EC5
S1130E5021FCBD1F545FD787BD1EF27F0087966EAD
S1130E609A4B26CFDE1627B9DE14EE0326A120B155
S1130E70CE0014DF98DF9108DF93BD40C6966A85E3
S1130E803C266B9615276A961481812E5D2D048667
S1130E900197804FD615CBFB8901DB4699459F0806
S1130EA0D0099208252926035D2724970086153644
S1130EB096293696283686073696003736860E36B5
S1130EC0BD41DD3232972832972932964B2622CE05
S1130ED002B5DF98DF919698D699C0018200DB15A0
S1130EE089009793D794BD40C639863E974B4F9758
S1130EF01539CE02B53C00C680967B27015CD7022B
S1130F00CE0002DF98DF9108DF95BD0B7ECE02B5DF
S1130F104500DF98960327074ACCDF95BD0B7E3941
S1130F209615260139DE451407DF02CE02B5BD1F32
S1130F30BDBD1FBDDE00A6001680942513CE215032
S1130F40211C2709CE21DA1A18AD0020E718DE008B
S1130F508D6D20E2DE021407DF00CE02B5DF028DC4
S1130F605A8D5ADE00A6001680942513CE215021F6
S1130F701C2709CE21BA1A18AD0020E718DE008D0F
S1130F803E20E2DE008D36C19426FA20028D2CCE5E
S1130F9002B5DF00D603D0017F0002D70315023962
S1130FA08D198D198D17398D128D128D105D262096
S1130FB0398609DE008D064A26FB39DE00E6000884
S1130FC0DF00DE02E70008DF02DE00398DED8DED83
S1130FD01720E286D0200286D19726DE0008DF2281
S1130FE0EE00E60317C4802711D626DF268DD084B1
S1130FF01F168DCBDE26140D20088DBF8602EE0051
S9030000FC
