S00B00004441544120492F4FF3
S1130000284D27062E08C5042006C5012002C50276
S11300102610BD036DBD034725DF1510753DE6E8C9
S113002020101512F60387FE0388BD03188D0BBD3F
S1130030069EFE03A645007E026AF60387FE038839
S1130040BD0C0039BD036DBD034124D039BD03BCD3
S1130050DE91FF03A87F0029BD1F6F2717BD028A09
S11300602705B1039123037E1B464A9729B60391C2
S113007081BE22F3BD1F3E8DCECE02B5DF988DBA70
S1130080B6039136BD10F2CE02B59629CCDF2232EA
S113009090297F0026E600085327067C00264A267E
S11300A0F4FE03A8FF03AA96949727DE22A600363F
S11300B008DF22FE03AAA600D628C5102704813F24
S11300C02731C54036333226048A20CA201107D688
S11300D028062720BC03A82609C50827057A002678
S11300E026C9062204C5042002C5022615BD2044E3
S11300F07E2080317A0027261E7A00262607C50135
S113010027EB7E2024C5012606C50426E02004C56D
S11301102027EFC50220077A00262606C50426E21A
S113012020CB08FF03AA2083BD0759582B037E1B4D
S11301305AB60391B703748601B703627F0387CE6F
S11301400001FF03888D29BD028AB703628D21BD9A
S1130150028AB703748D19BD028AF70387FF0388E7
S11301608D0EBD028ABD0368F7038AFF038B200747
S11301707A002027013975BD40FFCE026BDF2CFECB
S1130180038B26037A038A09FF038BF60387FE0396
S113019088F70369FF036AF70366FF03677F036455
S11301A0BD0C00DF229724B6039148BD15B1CE02E1
S11301B06BDF2CB603624ABB03641DD70E53270EB4
S11301C0BB03911D53273553D10E2722252EF60349
S11301D066FE0367BD0368F70366FF0367F70369F9
S11301E0FF036ABD034726B5BD40FC7E026AB60321
S11301F0644CB1037424D7B7036420B7DE22FF0331
S1130200849624B70386BD046FCE026BB60391B700
S1130210037DE600371DE700331E087A037D26F2CE
S113022048BD1387F60369FE036ABD0352279FBDC9
S1130230037CF70369FF036A7E219D4F2002860138
S11302409724BD0755582B037E1B5ACE0001FF038C
S1130250887F0387D620C00223EED720BD02CCFFBF
S1130260036BBD02CCFF03698D1EBD028AF70387B1
S1130270FF03888D13BD028ABD0368BD0347240FA5
S1130280F7038AFF038B20077A002027013975863C
S113029001B7037796249720F60387D726FE0388B1
S11302A0DF27BD0C00CE05D7BD0F47CE05D79F2451
S11302B03C003C00FE036B45009F222006BD0F4915
S11302C0CE05D73C00BD408A7D002027184D2C1850
S11302D0FE036B45009E243C00F60387D726FE03ED
S11302E088DF2720054D2EE89E22B60387FE03886B
S11302F0BD036DBD034726C5D626DE27BD0318FE04
S1130300036945007E026ABD0759CA012005BD077D
S113031059C4FEF70390BD069E20E9BD0759582B2A
S1130320037E1B5A7F0387CE0001FF0388D620C0BB
S113033002D72022037E1B4630EE023C02CE05CFBC
S113034045001504BD028A4A97268D19BD028AF715
S11303500387FF03888D0EBD028ABD0368F7038AF5
S1130360FF038B20077A002027013975CE05D7DFDC
S113037098F60387FE0388BD0C008601B70377FE59
S11303800384DF10B603869712BD0F49CE05CF3C18
S113039000CE05D73C0096264426082503522009A2
S11303A055200625035B20015E4B05D7DE10FF03B5
S11303B0849612B703867F0377BD0F49BD036DBDD5
S11303C0034726B67E026ABD0759D7CEFE037ADFFD
S11303D0227F0024FE0378DFD3BD028ABC03782683
S11303E0037E1B46DFD1FF0378BD06972A0AC501A9
S11303F027037E1B50BD1EEE96CEBD0842FE037A37
S1130400DFCFDF107F0012DED3FF0378BD0697FE37
S1130410038DB6038FDF269713DECFFF037ADED179
S1130420FF0378DE41FF038DCE02B5DF2CBD40FF14
S1130430DE22FF03849624B70386FFFF59B7FF5BD0
S11304409627D613C04082003696268200240B32AB
S11304509613DE41DF26DF1320099726329727D72C
S113046013864097D1BD15B1CE02B5DF2CFE0384AF
S1130470DF22B603869724DE10FF03849612B703A7
S113048086FFFF59B7FF5B96D1BD1387FE0384DF58
S113049010B603869712DE2626967D00132691B7A2
S11304A0038FBD069EBD40FC7E026A7E1B4B7E1BF5
S11304B05ABD0759D7CFB6039197CEFE0378DFD341
S11304C0BD028ABC037826037E1B46FF0378BD0663
S11304D0972AD8B6039191CE26D4B603908460951A
S11304E0CF27CBF6038AFE038BBD037CD70EDF0F29
S11304F0FE037ADF22C62CD724B6038F802C9713F1
S1130500B6038E82009727B6038D82009726DED32A
S1130510FF0378BD06979610BB038CB7038C960F28
S1130520B9038BB7038B960EB9038AB7038AF60314
S11305308DFE038ED70DDF0EFE037ABD0C29FE035C
S113054084DF1097127E2428BD0755BD1B42CE00C0
S113055001DF24FF03887F0387BD02F4BD02CCFFC3
S11305600369323681182705BD028ADF243DE6E897
S11305703DE70255FE036945003D05CF3C00860179
S1130580B70377BD0341BD0C003008DF987F00201E
S1130590BD0F49BD408AD62097205D270C2D054DFF
S11305A02F1920084D2C1420034D270F4E4B05D72F
S11305B0BD036DBD034725D87E026ADE2409DF240E
S11305C026EA962027253D05D755BD088F3D05D73A
S11305D03D05CF55BD088F515E3DE70255BD034132
S11305E0BD031852FE0369450020CDBD0341BD0380
S11305F01820F14F20068601200286809724BD072B
S113060059BD1B42CE0001FF03887F0387BD034110
S1130610BD0C00CE05CFDF98962427052A557E26EB
S1130620D7BD036DBD0347240E8D128D268D245135
S1130630558D158D2C20EABD0FAF7E026AFE038412
S1130640B60386DF22972539DE229625FF0384B779
S11306500386398601B70377BD0FAF753D05CF6BB0
S1130660394FB70377754B05CF6BBD0FAF39860292
S11306707E03138DC88DDC4E4B05D786038DF15B4D
S11306808DD186048DEA5B51558DC8558DE05E8D04
S1130690B78DCEBD036D8DA5BD036DBD0347241974
S11306A03D05D74E4B05DF8DAA4B05D78DA551557A
S11306B08DBC5E8D938DAA20DD8D9886038DB15BF4
S11306C03D05D786048DA95B553D05DF528D9F5EA0
S11306D0BD26488D8C20363DE6E8BD263DBD26531B
S11306E04B05DF2016BD263D3D05DFBD26534E4B91
S11306F005DF52BD266E5E3D05D7524E4B05D7BD74
S11307002648BD2661BD036DBD034725D87E026A18
S1130710B6FF578A042005B6FF5784FBB7FF55621E
S113072049BD027AF7FF59FFFF5AF6FF57C5042661
S1130730058A01B7FF5BB7FF546549B6FF533962B9
S113074049BD02D7DF18CEE702B6FF57442403CED3
S1130750E6E83C00DE1845006549DE4186209790B6
S1130760DF14BD0476DE14FFFF59BC037E2606BDEC
S113077004397E0A8B08DF144FB7FF5BC65AD71CB7
S1130780DE41DF16F7FF585C4A26F9DE1409FFFF45
S1130790597FFF5BF6FF58D11C2705DE1608DF16CC
S11307A07C001C4A26EEDE1627BBC608BD0A29DEDD
S11307B014C608BD0A29BD0A6920AABD028A972267
S11307C0BD028A9723BD028ADE22FFFF59B7FF5B71
S11307D020F820E7BD02CCDF22BD02CCDF20B6FF2B
S11307E057364FB7FF55B6FF578426BD0313DE2295
S11307F045008626B7FF55B6FF578426BD0313DE92
S113080020450032B7FF556549B6FF59B6FF5AB6C1
S1130810FF50B6FF51B6FF52B6FF56B6FF54B6FFAF
S11308205320E6BD028ADF1CBD028ADE1CA70065D8
S113083049BD028AA6009724BD02CCDF1C9624BDC4
S11308400313DE1C45006549BD0760092784092799
S11308508309271B09273F0927760927730927A935
S113086009276B0927BD0927C88659974B65495F36
S1130870D720D721D722CE1000DF1CD71EDE20D6EA
S113088022FFFF59F7FF5BDE1CD61EB6FF585A261F
S1130890FA0926F720E75FD720D721D722CE080010
S11308A0DF1CD71EBD028A9724BD028A9726DE204C
S11308B0D622FFFF59F7FF5BDE1CD61E9624B7FF36
S11308C0589626B7FF585A26F30926F020E0201739
S11308D0BD028AD720DF21BD028AD71CDF1DB603E3
S11308E0798105279820BDBD028AC401D71EDF2463
S11308F0BD028A48971CDE24D61EF7FF59FFFF5A13
S113090086FFB7FF58B7FF58F7FF59FFFF5AB6FFE6
S1130910588D34B6FF588D2FF7FF59FFFF5A4FB744
S1130920FF58B7FF58F7FF59FFFF5AB6FF588D1706
S1130930B6FF588D12860DBD4033961E8B02971E4E
S1130940B1001C26B36549376BC608D720972278B7
S113095000222404863120028630BD40337A0020F0
S113096026ED8620BD40337533396249BD027A973E
S113097026BD02D7DF22BD046C9626BD19D04FBB1D
S1130980FF585A26FA0926F7BD0313DE22450065EF
S113099049CE29977E0A1F4669726D776172652078
S11309A04C6576656C20352E312D4120313833313C
S11309B03031350D000A44FFFFFFFFFFFFFFFFFF4B
S11309C0FFFFFFFFFFFFFFFFFFFFFFFFFFFFFFFF33
S11309D0FFFFFFFFFFFFFFFFFFFFFFFFFFFFFFFF23
S11309E0FFFFFFFFFFFFFFFFFFFFFFFFFFFFFFFF13
S11309F0FFFFFFFFFFFFFFFFFFFFFFFFFFFFFFFF03
S9030000FC
