S00B00004441544120492F4FF3
S113000000000000000000000000000000000000EC
S11300104052043900000000000001FE0052454136
S11300204420200E955752495445200E6D52425992
S11300305445530383574259544553039A4D5341EE
S113004056452012234D4F4C44202014304D4C492A
S11300504E4B2017484D415050454E168154534144
S11300605645201837544C4F41442018CE54424131
S1130070434B20196D54524553544F1A0C4F50455D
S11300804E202007BC4D435245415407BC4D4F50B0
S1130090454E2008974E585446494C08FF46494C53
S11300A05459500BBB50524F5420202307554E50E7
S11300B0524F54230E4745544950200C98534554ED
S11300C04950200BD24C53544950200C955345545D
S11300D04C53540CE44745544144440D5C47455447
S11300E04941200D4C4D53504143450A8B444952DC
S11300F0202020092146494C4844520B6E4B494C60
S11301004C20201ED6494E49542020047644554E96
S113011049542005174D554E4954200527434F5047
S113012059202023C74D434F50592023C7434F4ED6
S113013043415424B1534F52542020212853434166
S11301404C4520231B4D494E312020223B4D415824
S1130150312020223E494E534552540D7652444597
S11301604C45540D805345415243481F754D504CE6
S11301704F54201CFA52504C4F54201D02524D50E3
S11301804C4F541CFE41504C4F54201D0646504CBD
S11301904F54201CF54D43524F535325484D444969
S11301A046322025F34D444946332025F64D494E29
S11301B054202025FA444D41535441273F434C5287
S11301C0444D41273B444D413820202710444D41A4
S11301D031362027174D434845434B275A4D544544
S11301E053542028483736344D454D2991455843BA
S11301F04C5544140B4D4353554D20296A007E023F
S1130200107E02117E02117E023C7E11F47E0210E9
S113021039965648CE021A211A186E0000000000C2
S113022000000000000000001EC80210092123C7BE
S11302300000000000000E950E380210DE41DF7E43
S11302407F00A475DF14BD027AFF03783337C11829
S11302502708DF7EBD027AFF0378862097977F0008
S1130260908603978FDE146B200A9F008618BD4189
S11302701A9E0031BD40FC7E402775DF59BD41CE3A
S11302802647308D1C150938005975DF5932811302
S1130290263731756BDF00BD4024758D0338005956
S11302A008A60197148618A002251E271564036664
S11302B00466054A26F7240A6C0526066C04260201
S11302C06C03E603A605EE04397E1B8875DF5930FE
S11302D0EE02150408200675DF59301509A600EE54
S11302E001810A26E4A604847F854027DCA7041440
S11302F00538005975DF5930EE02A60115043C0299
S113030030A700200375DF59BD41CE26BC4B05CF75
S1130310380059364F36755FDF2E6249DE2E4F3670
S113032036366B37CE04186B860C366165494353F9
S1130330CB018900DF2EDB2F992E972ED72FDE2EAF
S113034039F60387FE0388F1038A221B2519BC03AF
S11303508B39F103872210250EBC038839DF2E91D7
S11303602E22042502D12F390826015C39F6038791
S1130370FE03888DF3F70387FF038839DF2E2601F8
S11303805A09396249BD027ADF93BD027AF7FF59EF
S1130390FFFF5A8D5CBD070665496249BD027AF7C5
S11303A0FF59FFFF5A8D05BD06F7654975DF5930C2
S11303B0098D0415052077DF00BD40248120270323
S11303C07E1B8309EE006BEE00DF9396947508089C
S11303D0DF98DF91DE93ED0098DF95397E1B8875F9
S11303E0DF59301504EE0208200D75DF59DE2A208E
S11303F01075DF59301505A600810826DFEE01DFF0
S11304002AA6042A0ACE0048DF16DE2ABD4048DEAA
S11304102AEE059693D694BD035D22C0DE2AA70773
S1130420E708EE0BA60284BFA7021405DF988DA48B
S1130430DE98DF9196943800597F00ADB6046E269D
S11304400D967CB7046EB604488A02B704488D1C26
S1130450B6FF5386DFB7FF558606B7FF5BB6FF5876
S113046081402612B6FF588150260B39DE414FFFDA
S1130470FF59B7FF5B398DF4FF037EB7FF58C608F9
S1130480F7FF59B7FF5BF7FF58B7FF59B7FF5BF6A4
S1130490FF58C1082702C610D720B7FF5BC6A5F7CF
S11304A0FF58B7FF5BF6FF58C1A5260D7C037EB647
S11304B0037EB7FF59912026E18DB1F6037E4FB735
S11304C0FF58B7FF58F7FF58B7FF585AF7FF585C63
S11304D05C58535CF7FF58C640F7FF58C650F7FF07
S11304E058F6FF58F6FF58CE01F6B7FF580926FA1A
S11304F0C602F7FF5AB7FF5BC680B6037E4C480FAF
S1130500F7FF58F7FF584A26F7FE037EB7FF58B7A0
S1130510FF580926F70E398D23B6FF588156260653
S1130520B6FF58B7046E398D13B6046E917C27F666
S1130530C656F7FF58B7FF58967C20E7DE41860879
S11305407E046F7F00027FFF59FE03786B323358BD
S113055049CB0E8900B7FF5A85FE270FFE0384DFBF
S11305602CCE00018D0ADE2CFF0384F7FF5B5F397C
S1130570374A9722FF0384BD05EFB6FF58F6FF58AC
S11305804D2B0E3736757A002226E9FFFF594F337B
S11305903996C82BFA96229702BD06104F5FB7FF13
S11305A0585A26FA7A002226F0FE038420DD7FFFC3
S11305B059CE0208FFFF5ACE0004B6FF58BAFF58BE
S11305C0270808BC037E26F2203DFF03846B3233E8
S11305D0FE0380273209FF03807FFF5958498B02AD
S11305E0B7FF5AF7FF5B8680B7FF58FE038439DFF5
S11305F01E961ED61F58498B02971ED71FDE1E4F0C
S1130600B7FF59FFFF5A397F00D3BD068B7E1B55B8
S1130610DF91FE03848DD8B6FF582B13B70384B63D
S1130620FF58B70385FE0384BD046EDE915F396B0A
S1130630FE038D08FF038D75B6FF58B6FF58BAFF49
S113064058262EFFFF5AFE038408BC037E2722FF90
S11306500384B60384B7FF58B60385B7FF58868072
S1130660B7FF58FE0380279F09FF0380FE03842001
S1130670B7BD05AEDE1EFFFF5AFE03846B32B7FF23
S11306805832B7FF5820E8860120014F97C87F00F1
S11306900220298680200286017F039020014F9743
S11306A0C8BD05432B35CE037AC6028D32FE037ACC
S11306B0270ABD046ECE0384C62C8D23BD046CCEE4
S11306C0037C8D1996C8270EFE038096022707091E
S11306D04A26FCFF03804FF60390395F39C608961B
S11306E0C8270AB6FF58A700085A26F739A600B744
S11306F0FF58085A26F739DE980FA600B7FF5808A6
S11307009C9526F60E39DE980FB6FF58A700089C74
S11307109526F60E3975DF5C308618367F00200882
S1130720DF00DE00A6018117272581113627F0326C
S1130730D60137D60037F60377270636BD40122098
S113074004BD402436C613377C0020813026D338BC
S1130750005C7E1B46860120094F2006861120027C
S113076086101684F0971EC40FF7037775DF598D32
S1130770A475756BDF00BD4024757F03938120262B
S113078015730393BD03B7BD08AC260FBD091186CD
S113079001B703932005BD02A027B7FF0378961E77
S11307A02605BD06932003BD06972B07961E260338
S11307B07E1B4BFE0378F6039038005975DF14BD99
S11307C041CE30A6019724BD088FDE146BBD0760AF
S11307D07F03918D2AF603902A04C510261CBD02BE
S11307E08AC680544A26FC96242A02CA04F7039037
S11307F0C5402706BD028AB703918D227E026A7F17
S1130800039330A60381202611EE04BD03B78601AD
S1130810B703937515046B7A002039F703907D03B1
S113082093271C0F9F009E9134CE03934F339194D2
S11308302502C6011E4C811C26F36F1C9E000EF679
S11308400390CA80B60391270681032202CA08FADC
S11308500390F70390FE037AFF03842620BD05AEC0
S1130860FF037ADE41FF038D862CB7038FCE000190
S11308707F038AFF038BFE037C08FF037CCE000109
S11308807F0387FF0388862CB70386BD069E393015
S1130890A603847FA703396249BD03ACBD02D7DF39
S11308A0248D09BD0317DE2445006549BD0687FE76
S11308B0037C2740FF0375DE41FF0378FE037808BD
S11308C0FF0378BD06932B054D2B2920EFCE039310
S11308D0DF22DE91DF98DE22A60008DF22DE989C6C
S11308E0952714E60008DF981127EBFE037509FF2E
S11308F0037526C8DE4139811022F0FE037839627F
S113090049BD02D7DF248D09BD0317DE24450065E8
S113091049DE4108FF0378BD0697FE03785D2BF39B
S1130920396249CE0C20DF56BD06877F008FBD415A
S1130930CE2605BD027A9757BD4000FE03828C4047
S11309405027037E1B7EFE037C2609CE0AE8BD0ADF
S1130950447E097EFF03B5DE41FF0378CE0AFFBD66
S11309600A44FE037808FF0378BD06932B054D2B3C
S11309700D20EF8D2DFE03B509FF03B526E4BD0A56
S113098069FE037C5FBD0A29CE0AD3BD0A44CE05A5
S1130990DFBD0AAC5F8D74CE0ADBBD0A44BD421FC5
S11309A06549FE0378C606BD0A29CE0393A6002630
S11309B003CE0B61BD0A44B60390CE0B2C854026B2
S11309C011CE0B418502260ACE0B3685102603CEA6
S11309D00B50BD0A44B603912706C6098D4720066D
S11309E0CE0B6ABD0A44F6038DFE038EBD03184B7D
S11309F005DF8D15B60390442405CE0B5E8D45CEE0
S1130A000AFD8D403986209790C609D72BCE02B5B2
S1130A10DF02CE0009DF04BD4087D62B37201186C4
S1130A20209790201F364F3675377F004BBD40D539
S1130A30D605D0035C321024014F841FDE04A701C5
S1130A406F02DE02DF1EDE1E8C03B5230121A60029
S1130A5018272F08DF1E810C23048D0F20E836860B
S1130A60208D08324A26F720DD860DD6902714C142
S1130A702026037E4033CE026BDF98A700DF95BDAE
S1130A8041D439DE06A70008DF06396249323697B9
S1130A9022CE05DF811727067F0022BD02D78D0CE9
S1130AA096222706BD0A05BD0A696549DF26BD06EB
S1130AB087FE03828C40502617FE03808C20002280
S1130AC00FBD0317CE0100BD03175BDE26450039B9
S1130AD07E1B7E2046696C65732000204279746514
S1130AE07320467265650D004E6F2046696C657310
S1130AF020696E204469726563746F72790D000D0C
S1130B004E6F2E20202046696C65204E616D650A6B
S1130B100B5479706509526563204C656E2020552D
S1130B207365642042797465730D0D002020526151
S1130B306E646F6D0600202050726F6772616D05E0
S1130B400020205365637265742050726F67010042
S1130B50202053657175656E7469616C020077704D
S1130B60004E6F6E616D650B0B00202D070062490E
S1130B70CE0043DF93BD03F1BD027AFF0378BD06C7
S1130B80932A0CDE98DF067F0090BD09A22004DEC4
S1130B902A6F086549D728DF26200CDF2620059711
S1130BA0277F00267F00286249BD02CCDF22D62899
S1130BB0DE26BD0318DE2245006549BD075C8D05B0
S1130BC08DDD7E026A4FF603902A064C2703582ACD
S1130BD0FA39BD07599620810227037E1B46BD02C0
S1130BE08A8D067E026A7E1B5FBD034722F8F703E7
S1130BF087FF0388B60390852026588D037E069EC2
S1130C00BD03183DE70255B60391BD03135B862C63
S1130C10BD031352BD027AD70DDF0EFE037AFF0324
S1130C20848D06FE03847E046F6BDE0D75271DBD67
S1130C3005EF0FB6FF58F6FF580EDE0D09DF0D273E
S1130C4005BD05F520ECB70384F70385B6000FB79F
S1130C50038639D724DF25FE037AFF0384862CB765
S1130C600386D624DE25BD037C2792D724DF25DE28
S1130C7041DF98B60377368602B70377BD10F232A8
S1130C80B70377DE00B60386CDDF0E7F000DFE03CB
S1130C90848D9620CD4F200286019726CE05DFDF76
S1130CA022BD07559620810223037E1B46323697C8
S1130CB027811827087F0027BD02CCDF22F6038A8C
S1130CC0FE038BBD037C96262706F60387FE038866
S1130CD0BD0318DE22450096272706BD0A05BD0A76
S1130CE0697E026ABD0759F6038AFE038BBD0C00B8
S1130CF0BD028ABD0368DF20D7229621B0038C97FA
S1130D001F9620B2038B971EF2038A2530DE1EBD88
S1130D100318B60391BD03135BBD027AD724F6030F
S1130D20860F4FB7FF585C26050EBD06100F092627
S1130D30F17A00242AEC0EF70386F7038FDE20D61F
S1130D4022FF038BF7038ABD069E2095BD0755BD80
S1130D5002CCDF18F60384FE03852011BD0755BDC0
S1130D6002CCDF18FE037AC62C376B3375BD03182B
S1130D70DE18450020D4860120077E1B5A7E1B46C0
S1130D804F9724BD0759582AF1B6039181BE22ED2D
S1130D90CE02B5DF98BD028AF70387FF0388D72008
S1130DA0DF21BD0347245196242750FE038BF6030D
S1130DB08ADF24D726DE24D626BD037CDF24D7266B
S1130DC0BD0C008601B70377B60391BD10F27F0313
S1130DD077B60391BD10F2BD036DBD034725D6BDA3
S1130DE010C8BD0C00B60386B7038FD620DE21FFE2
S1130DF00388F70387BD0BFB7E026ABD0C008601E6
S1130E00B70377BD036DBD034724E0FE0384B60337
S1130E10866B36B60391BD10F2B60391BD10F23263
S1130E2075FF0384B70386BD046F7F0377B6039110
S1130E30BD10F220C97E4027964B9A6E26F77300A8
S1130E40A42710968F8510260A8A10978FFE0378A0
S1130E50BD0697BD1AA6DE98BD1A63DE98A6006B80
S1130E60BD1A6B759C9527CD08DF9820EEBD0760F1
S1130E702A0EC51027037E1B5AC50127387E1B5036
S1130E8030C648A60181202702C608F70391C6C0D0
S1130E90BD081B2020BD0755C51027197E1B5ABD50
S1130EA0069E317F008FBD40FC7E40277532811144
S1130EB02701366B39BD40FF30A60481112606BDDB
S1130EC0028ABD0BE98DE530A601E600C11827CFE3
S1130ED08130274EEE0215044D2755810B2746819C
S1130EE020261CEE04B60390482B09DF98EE000878
S1130EF0087E1061A600E6010808DF987E102AEE3D
S1130F0002DF2A811026037E1066810A261BA604AE
S1130F10847FA70485202604140520168A04A704C8
S1130F2020E57E1B88EE042009810826F57E113613
S1130F300808DF98BD10C88D10B603772606B603DF
S1130F4086B7038F7E0EC5DF98B60390482B60B634
S1130F50037726037E10108602BD10F2DE98A601E8
S1130F60EE008C000826BBBD10F239BD10F27F00E4
S1130F7020DE98F60390C504270BA60016847FA7ED
S1130F8000C480D720B603914A2607A600BD0313E8
S1130F9020114A2607EE00BD03172007E600EE01E4
S1130FA0BD0318DE984500A600BA0020A70039B694
S1130FB003918108224C810322ADF6037726ACDE2F
S1130FC098FF03B63C00B60390BD027AFF05E0CE5D
S1130FD005DFE700D614C480D720B603914A260360
S1130FE00820034A260108DF98B6039085042706E3
S1130FF09620AA00A700B60391BD10F2FE03B6DF47
S9030000FC
