S00B00004441544120492F4FF3
S113000098398608BD10F2B603918008BD11953960
S1130010DE986BCE0008DF2ECE002EDF988602BD60
S113002010F275DF9886087E10F24D2609B603910A
S113003010B703B62408B603917F03B6200317272D
S113004003BD10F2B603B6271586FFCE02B5A7008E
S1130050DF988601BD10F2B603B64ABD1195206340
S1130060FFBD10F6205DEE0B1405DF98DE2AA60511
S1130070E606970ED70FEE07260108BD40F3DE0E05
S1130080DF1CB60388F60389BD0334FF03888600AA
S1130090B90387B70387DE98B6039181082616B69D
S11300A00390482A10CE0008BD40F3DE0E8D472091
S11300B00EDE981408BD0F47DE1C09DF1C26F28DE6
S11300C00A20028D037E0EC5BD036DBD0341220DC2
S11300D0B60377261CB60390482B16200EB603777A
S11300E027037E1B5FB60386B7038FF7038AFF03DC
S11300F08B39364F3675DF2C273BBD03D6FE038480
S1130100F6038617BD046FB60377260CDE98A600A7
S11301100FB7FF588D0E20F6DE980FB6FF58A700D4
S11301208D0220F60E5C2603BD0610089C9526055C
S11301303131F70386397F00937F0094BD03EADEF3
S11301402AB60390482A5AA6052607A606B10391A3
S11301502303B60391B703B6B703B7FE0384F603CC
S11301608617BD046FDE98B6FF5843270F43A700D8
S11301705C2603BD0610087A03B626EBF70386B6A1
S113018003B7B003B6DE2AA7086F07B60391A00829
S11301908D037E10C3BB0386B703862403BD0610FC
S11301A0398602BD10F2DE98EE00FF03B6DE2AA601
S11301B005E606FE03B6DF10270EBD035D2406DE4A
S11301C02AEE05DF10BD10F6DE2A9610A707D61119
S11301D0E708EE07BC03B62718FE03B6BD032EFBE3
S11301E0038689007F000D970ED70FFE0384BD0C94
S11301F0297E10C375BD07FFBD08AC2608BD0911D3
S11302008601B70393F603909653815B271B816E97
S113021027037E16757E14337E1B507E1B5A863B45
S11302207E1BBDBD0760BD0802F603902A0BC560A6
S113023026E9C50126E2BD1EEEC6909680260A96E2
S11302407B2606968284012702CA027F0391BD0899
S11302501BFE0384B60386BD046FDE3D27C0DF109A
S1130260DE41FF03733281112701363236811827AC
S11302702EBD028A6B34BD40A2301506EE01279EC6
S1130280DF10EE03FF0373323681182712BD028A92
S11302906B34BD40AB301506EE01EE03FF0373BDB6
S11302A040FFDE10273BBC03732736DF12DF2CEE42
S11302B003DF104FBD137B8609BD1387DF2CDE2CB3
S11302C0E600CE1310861021E10018270A14054A0F
S11302D026F5BD1385200621EE0118AD00DF2C2084
S11302E0DD86FFBD137BB603908A08B70390B6037F
S11302F086B7038FBD069EBD40FC9F008617BD4197
S11303001A27037E026A6B21FE40FA186B7E40278F
S1130310B013BF15D5B113C315D8B2136A151CB3E6
S1130320136A151CB513731526B6136F1522B4136F
S11303306A151CA413601597A313601532941363F4
S1130340163ACC13D71616CD13D71616CE1401159C
S1130350A9CF13601553D041F215F3D141F215F82A
S11303608D44398D2032327E12A286038D1939864E
S11303700920F9DE2CA6028B0320F1C601F70375D0
S1130380F60386200C8601B70375DE2CF60386A6D9
S1130390000FB7FF580E5C2603BD0610087A0375DC
S11303A026EDF7038639DE2CF60386A60081942712
S11303B0F10FB7FF580E5C2603BD06100820EC862B
S11303C0D0200286D19720DE2CEE01E603C48027DC
S11303D009DE2C8DA620057F00208DA9EE00E60302
S11303E017140D841FC480260914F586027D00208D
S11303F0260509368D8532B703758D90DE2C1403DE
S113040039DE2CA6018B02BD136C396249BD027A18
S11304108102220497AD65497E1B885D2A09C510B7
S11304202708C5082707397E1B4B7E1B5A7E1B6F86
S1130430BD07598DE6F60390C502270486FF978011
S1130440FE037AFF0384862CBD046FB70386BD4088
S1130450FF965381592707866E9753BD4051F60383
S113046090C5022704C6FFD780DE41DF99DE45DF51
S11304703DDF12DF2CBD15AFDF2CDF45E600265C27
S11304808609BD15B1DE12EE00DF029602D603CB5B
S1130490F48901DB4699459F08D009920825102666
S11304A0035D270B9708D709BD17A8964B262DDEA9
S11304B0129699D69AA705E706DF996F036F04BDD4
S11304C015AFCE1310861021E10018270714054A32
S11304D026F520EB21EE0318AD0020E3BD40FCDE41
S11304E099260CDE129C2C260ADE41DF3D20046F87
S11304F0036F0496538159260139964B261B965354
S11305008159270896552A11DE3DDF4F96548520E0
S11305102607CE40BD6B7E41897E40BD8602BD1557
S1130520B139860820F88602BD15B1172703BD1519
S1130530B139DE2CF603860FB6FF58A7005C2603FC
S1130540BD0610A60008819426EE0EF70386DF2C64
S11305507E163A96AD27DBDE45140A9C2C263181A3
S113056002273BDE2C86CFA70008DF2C8D0ADE2C69
S1130570A70008DF2C7E163AF603860FB6FF580E46
S11305805C260536BD061032819426EFF7038639C2
S1130590DE2C09DF2C20D596AD27974A27CE8DD89F
S11305A0DE45DF2C15027E14758D04178D03398604
S11305B001B70375DE2CF603860FB6FF580EA700AD
S11305C05C2603BD0610087A037526EDF70386DF63
S11305D02C09E600394F20028610973586028DD10A
S11305E009DF2CEE00DF06861536BD41EFDE2CDF79
S11305F00E20374FC6B020048610C6B19735DE2CC6
S113060009E7008DAA179710DF0EDF2C8DA386153E
S113061036BD430320147F00358D94179710DF0EE9
S1130620DF2C8D8D861536BD4306329606D607DE41
S11306300EA700E7011402DF2C39DE12DF26962C08
S1130640D62DA703E704D0139212A700E701DE2CEE
S1130650DF1232327E14758615360FDE41BD41A499
S1130660BD41DD0E31964B27037E1BBD39BD407263
S1130670860E7E1BBD31BD141B8DDCBD14357E136F
S113068006BD0759BD141B8DCEBD404BCE000ADFFD
S11306901ADF27DE41DF4F3236811827D0BD028AA8
S11306A0DF1832368118270EBD028ADF1A7F002830
S11306B03236811826B7DE186B34BD40AB301506D0
S11306C0EE01DF102706EE079C182705860F7E1B18
S11306D0BDDF06DF08DE10EE036B860736DE10EEA4
S11306E0052603CE003A6B36BD403FBD4072DE3D69
S11306F06B860636DE41DF3D86599753BD4072BD99
S11307001435CE418921EE01188653CD869621A158
S113071000270F08A100270A0808A1001827037E54
S11307201B88186B6249CEE5FAEE008685CD2186DA
S113073031A10027074C1402A1002603186E0018EB
S1130740BD401886257E1BBDBD0759BD141BBD02C7
S11307508AFF05DF26037E166D0F7F0080DE41DFF2
S11307603D08BD41A4CE03B96F00088C041A26F8D5
S11307707F006DBD41DD0E964B262A86599753BDE9
S11307801435DE41DF4DFE05DFDF00BD40A8DE008D
S11307902710DF4F9F008619BD411A2603BD41F281
S11307A09E007E14FA7E1BBD8615363A003A08DE9A
S11307B0992604DE3D2002EE036B860E36DE996F29
S11307C0036F04DE12E6003737363C016B36DE99E0
S11307D06B36DE456B36DE086B36BD41DD323233B7
S11307E0D04692459702D70330EE012606DF9915CD
S11307F0032005CE00998D25CE00128D20DE1245F2
S113080001150232A7001409DF2CDE992605CE005B
S11308103D200214038D06420842003239DF0430C1
S1130820A603E604EE00DF001505D0039202DE0401
S1130830A700E701380000BD0759BD1959BD1923A8
S1130840FE0378FF01838D3CFE038DB6038F2701E1
S1130850088D46FF018508DFB5CE18A1BD19F0BD8E
S113086040DE8D62BD19508D50CE011FDF98CE023F
S11308701FDF955FBD1118BD1950DEB526EBBD40D5
S1130880307E026ACE0142DF001405DF02BD400360
S11308903D05DFBD027ADF00399C002201397E1B51
S11308A07442494E4152592020415558204D454DDE
S11308B04F52592046494C4500FE037AFF03847F7A
S11308C00386BD046E3996BC97BEBD41CB396249DF
S11308D0BD1959F6013A8637C146267BFE0183FFCE
S11308E00378FE0185DFB5BD41CE2606BD027AFF41
S11308F00378BD06972A037E1B79BD085D8DBA8DEA
S113090048CE011FDF98CE021FDF955FBD110CDEBC
S1130910B526EC7F00C8FE038009FF0380BD06BC3A
S11309207E19BB8637F60127C14E2715C1422630F2
S1130930F60131C1582029CE011FDF91CE021EDFFE
S11309409339CE011F5F7E06E38DECBD4165200522
S11309508DE5BD416B964B2007F6FF2A8639C50805
S1130960260339862436BD4030327E1BBD62498D54
S1130970E88DB0BD068786019724B6037EFE038208
S11309808C4050270286029725BD41CE260A4C97FB
S113099025BD027A27CD9724BD18848D2309BD185F
S11309A099BD40DEBD18C6DE24FF01838D3FBD190D
S11309B050BD1942BD1950DEB526F6BD403065491B
S11309C096244A8D0BBD046E96258D0408DFB53937
S11309D05F3736753942494E4152592020415558A6
S11309E0204D454D4F52592044554D5000CE19D5F8
S11309F0DF24CE0127DF22DE2421A60018270C08DD
S1130A00DF24DE22A70008DF2220EC396249BD1969
S1130A1059F601318637C158BD1960FE0183DF24C0
S1130A208D9E09DFB5BD1949CE011F5FBD06EDDE00
S1130A30B526F27E19BB3014028D10DECC088D0B66
S1130A408605DECC088D06BD1AA639860997CBDF4C
S1130A50CCA6008D16DECC087A00CB26F28620BD0B
S1130A60403339DFC996C98D0696CA8D0220EE97A8
S1130A70C8444444448D0496C8840F8A3081392381
S1130A80028B077E4033860A97CBBD1A63863ABD34
S1130A9040338DC9DEC9DFCCEE00BD1A63DECC1451
S1130AA0027A00CB26F0860D7E403397C88DAE9631
S1130AB0C84A26F739361397CB0E3297CDD7CCDFF9
S1130AC0C98DE396CDBD1A6B96CCBD1A6B96CBBD82
S1130AD01A6BDEC9BD1A63301402BD1A6375BD1AE0
S1130AE063860ABD1AAB964BBD1A6BDE59BD1A63F9
S1130AF08DB4BD1A364FCE0000BD1A86CE0014BD8B
S1130B001A868604CE0028BD1A88CE04F4BD1A863F
S1130B1020FE6B37368D1B3236840F8D19333237F6
S1130B20368D0F3236840F8D0D8620BD403333321F
S1130B307539444444448A30813923028B07BD40CB
S1130B403339582A1539CE1BD82040CE1BF0203B10
S1130B50CE1BFE2036CE1C172031CE1C28202CFEA6
S1130B6003C92605CE1C3B20228680976E204DCEDD
S1130B701C542017CE1C692012CE1C80200DCE1CC4
S1130B80932008CE1CA82003CE1CBC862097906B13
S1130B90BD0A6975BD0A4421A6011836DE4DEE076B
S1130BA0270C6BCE1CECBD0A44755FBD0A29CE1C14
S1130BB0D6BD0A44325FBD0A25BD0A694F974B0F63
S1130BC09E43861936DE3DDF4F0ECE041186086F34
S1130BD000084A26FA7E40BD496E76616C6964203D
S1130BE046696C6520506172616D657465720001BF
S1130BF04E6F20537563682046696C650002466930
S1130C006C652069732057726974652050726F7423
S1130C1065637465640003417578204D656D6F727A
S1130C20792046756C6C0004496C6C6567616C20B6
S1130C3046696C6520547970650005456E64206FC3
S1130C40662046696C6520456E636F756E746572C7
S1130C50656400064E6F7420612056616C696420DF
S1130C6050726F6772616D000746696C65204D6153
S1130C70726B656420546F6F20536D616C6C000857
S1130C8046696C6520416C726561647920557365B1
S1130C90640009496E76616C6964204D656D6F72FC
S1130CA0792044617461000A556E646566696E65F5
S1130CB064205661726961626C650024496E7661D4
S1130CC06C696420436F6D6D616E64204172677559
S1130CD06D656E74000C202D20417578204D656D76
S1130CE06F7279204572726F7220230020696E2022
S1130CF04C696E65004F97A4200FC6802009C681F9
S1130D002005C60120015F8604978FF7035BBD07AA
S1130D1059582A5686209790DE41DF2230A6048156
S1130D20112609BD028ADF22317A0020CE04F4DFC5
S1130D30A0CE0504DF9E7F0387CE0001FF038896C3
S1130D408F270C8D28BD028A97909614B7035C8D6B
S1130D501CBD028AF70387FF03888D11BD028ABD7B
S1130D600368F7038AFF038B200A7E1B5A7A00204C
S1130D7027013975F6038CF00389B6038BB2038817
S1130D80DE22261336B6038AB203872406C601314F
S1130D904F200444324456B70375F70376F60387AD
S1130DA0FE03886B37BD0C00DF269725DE22271350
S1130DB0FF0378BD06972AB23375BD0C00DF229776
S1130DC024200233758601B70377968F26037E1E8F
S1130DD0503DE6E84E4B034B4B0353861836969032
S1130DE0BD0313861236BD1E7EC603B6035B4424C0
S1130DF002C604482B05B6035C2006B604F4BA0503
S1130E00042A02C002D7533D04F4F6035B2A0FBD43
S1130E10088F5424094E3D034B55514B034B3D055C
S1130E2004F6035B2A0FBD088F5424094E3D035377
S1130E3055514B035396538D0B7F035CBD1EC02647
S1130E40A5322023CEE548482403CEE6481A6E0096
S1130E508D2CDEA08D14FA0504D7218D15DE9E8D10
S1130E60098D0F8D5B26E97E026AA60016847FA792
S1130E700039DF9C96212B037E40577E405DDE22A5
S1130E80270ADE26FF03849625B70386CE04F48D55
S1130E902AFE0384DF26B603869725DE222708FF71
S1130EA003849624B70386CE05048D0FDE22270A19
S1130EB0FE0384DF22B60386972439DF987E0F4928
S1130EC0FE037509FF03753975BD03ACBD08AC2776
S1130ED096F603902003BD07602A028D11323681F5
S1130EE0182784BD028AFF0378BD069720EBC5014D
S1130EF027037E1B507F0390FE037C09FF037CFEC7
S1130F00037ABD05EFB6FF58F6FF582616847F26F0
S1130F1012FFFF5A4FB7FF588D1CDE41FF037ABD05
S1130F20069E39D71FFFFF5A5FF7FF58F7FF588D0A
S1130F3005BD05F320CFFE038008FF038039624915
S1130F407F0387CE0001FF03888D1BBD028AF70350
S1130F5087FF03888D10BD028ABD03472406F7036B
S1130F608AFF038B6549753236811827F76E003086
S1130F70A602811839BD0755BD1B428601B7037708
S1130F809728BD02CCFF03A630EE021504DF14300F
S1130F90E601C10827035A2646EE02BD03B715042D
S1130FA0DE984FE60008C13D26028A01C13E2602B2
S1130FB08A02C13C26028A04C12A26028A08C13F49
S1130FC026028A10C14026028A20CA20C163260252
S1130FD08A407A009426CC850726028A019728DE67
S1130FE014DF00BD40242665BD1F3E8D5A15F73021
S1130FF008DF98DE143C028D41BD0F49BD408AD6FE
S9030000FC
