S00B00004441544120492F4FF3
S113000000000000000000000000000000000000EC
S113001040520000000000000000000000373530AE
S113002053505502BF4E414D452020067E544C4945
S1130030322020071346494C453F2007DB545950D2
S1130040453F2007FE53544154555308414F5045F2
S11300504E3F2008784D41524B322008B25446524C
S113006057524409A1544241434B2009CD545245AF
S113007041442009F15457524954450A5246494EC5
S11300804420200AB05345544150450AD8524F5792
S11300902020200AEC434F4C2020200AF0504F53DC
S11300A02020200B454E444F5554200BCF4E44493D
S11300B04E20200BD253454E4420200CC0414C4FBF
S11300C04144200D2B5752495445240DEE524541CD
S11300D04424200F095357415020200F9C41534F73
S11300E052542010A041525241592012AA4F504557
S11300F05241541378434F4D50415214464D415888
S113010020202015654D494E202020156953554D5A
S1130110202020163B41525953455416AB444543C5
S113012042494E16D842494E444543171250414362
S11301304B202020B7554E5041434B2128524F525B
S11301404220201755524F4C42202017584C5352EE
S1130150422020175C41534C4220201760414E44FA
S113016042202018194F5242202020181C454F527B
S11301704220201820414444422020186C53554208
S1130180422020186F4D554C422020187347504987
S113019042494E19964D415849202019EC4D494E7B
S11301A049202019E9554E4C4541561AC1504C4F2F
S11301B05424201B264253574150201BC3494E54FC
S11301C04552501CB8494E544547201E4C44455294
S11301D04956201F3B534554242020218544494D32
S11301E024202021ED4C4953542420220224534F2F
S11301F0525420222545444954202023C7474554BE
S113020043485224B64C524546202024D4585245E3
S113021046202026C952554E202020287647455492
S1130220524554289342454550202028B445445211
S1130230454144291D4C494E45532029A953554253
S113024053545229EB5245504C41432A4B494E5387
S11302504552542AD444454C4554452B45464E44B6
S11302604C494E2BC94C494E4E554D2C264C494EAB
S11302704C454E2C81435552524C4E2CF242414334
S11302804B4C4E2D4F4E4558544C4E2DB700312EED
S11302903320313832313232330D284329202D2096
S11302A0436F70797269676874205472616E734524
S11302B0726120436F72702E20313938320D00CEB6
S11302C0028E0F21A600180E2708086BBD40337557
S11302D020F03975DF0ABD41CE27067E03EF75DFB6
S11302E00A30A60181042253254A410400800000FB
S11302F000000052A60281102241EE03DF00CE036B
S11303000948CC9601D6006E0054465446544654CF
S11303104654465446544654465446544654465409
S11303204654465446544654463637758C00001598
S11303300938000ACE00004F5F20F4CEFFFF86FF8D
S11303401620EC75DF5930A600810B2617EE011438
S113035005DF2630EE03DF2A30EE05DF2E9F00BDD9
S1130360412C2032810A27037E03EFEE01DF2EA603
S1130370048540270F847FA7041405DF26DF2A089D
S113038008082012EE0B1405DF26DF2A8520275FDC
S1130390BD41CE30EE03DF2C962DD62C8B05C90043
S11303A0902BD22A25495446544654469729D72897
S11303B015097F004BDE2A38005975DF59BD41CE3F
S11303C08120262B09EE00DF2EEE00DF28DE2E082A
S11303D008DF2E1505380059DF2875DF59BD41CED9
S11303E0260DDE284500380059DE490909DF498613
S11303F00C974B654975DF5930A600810826F0EE4D
S113040001DF2EA6042A28864897177F00163A0093
S11304103A083A103A183A203A28DE2EBD404842AB
S11304202842204218421042084200964B2615DE0C
S11304302EEE0BA60284BFA702DE2E150538005946
S1130440323286157E03F1364F3675DF006249413C
S11304500410000000000000309601D600A704E755
S113046003616549972ADE2EEE0708DF16DE2EEEBD
S113047005089C1627CADE2EA60BE60CEB08A90776
S1130480972CD72DDE2C962AA705DE2E9616D61786
S1130490A707E70839A605E606D029922825A196DC
S11304A028A7079629A708EE0B14053975DF59CE3E
S11304B005CF4500862064026603660466056C0168
S11304C0A10126F2380059096F016F026F036F040E
S11304D06F056F066F076F08399753CEE5484824B8
S11304E003CEE6481A6E0086FB94BA7E41E9C60F35
S11304F0DE91EB00C9009C9327030820F539DF281F
S113050075DF269628D629DE2EE00CA20B4456442D
S11305105644569728D729EE07260CBD044BDE28EF
S113052008BD044B380026DE28BD044BDE2EEE0742
S1130530BD044B5E8643BD04D94B02B5DE28BD0421
S11305404BDE2EEE07BD044B3D02B55B553DE70285
S1130550523D02B53DE702523800264F2002860183
S11305609728DF2275DF249622D623584958495804
S113057049373675ED002614F896282704450020DF
S1130580023C0038002432975932975A6B30680184
S11305906900680169006801690075380059360FFF
S11305A021B64303180E817E323996024A260EDEA6
S11305B000A60097048620970586029702398DEAE3
S11305C08DDC2716DE00A600E601CE003BEE0027F8
S11305D008A10226F8E10326F439DE009602AB00F6
S11305E0840748CE0846CCD6020400EE002706FC59
S11305F0072EF82702DE413996022703BD05AABD5E
S1130600059E272FDE00EE00DF04CE003B7F000AAC
S1130610EE00271CDF0EEE02960227089C0422043B
S1130620DE0E20ECDE0E1402DF088602970A14FEAA
S1130630DF0C394F970ACE0844DF06DE068C0854D7
S113064024331402DF06EE0027F10400D602270645
S1130650FC072EF227F0D60A27060408FC072DDB38
S1130660DF0CC6021402A6012A05841F16140BD738
S11306700ADF0820C6DE41D60A2702DE0C396249A9
S11306808639F6FF2AC508260E8637D682C5202766
S113069006C5402709863D974BBD40306549863DD8
S11306A0D681C50426F1CE011FFF0091CE021E960D
S11306B08185012703CE019EFF0093BD40DED6BC99
S11306C0BD413B964B26D0BD4177964B26C9BD0311
S11306D0BAD6299628C01B82002505CE001BDF2828
S11306E0CE014BDF20DE282715DE2EA60008DF2EE4
S11306F0DE20A70008DF20DE2809DF2826EBDE2025
S1130700860DA7008613A701BD416E7F0082BD4000
S1130710306549624930E6008620C1172703BD02CF
S1130720D3D681C50427037E07D39790860C979769
S11307308603978FBD401B964B27037E07D14F97A7
S11307402096903686219790BD401BBD40DED62072
S11307505CD720BD413BBD4030329790964B26710B
S1130760CE0142DF00CE0148DF02BD4003CE05DFEB
S11307703C00CE0100968185012703CE0080BD0494
S11307804B5BCE05DF4500CE0141DF02CE0008DF22
S113079004BD4087CE01498620A700A701860DB776
S11307A0016608A10026FB088613A700B6044327A8
S11307B009860AA700088613A700DF95CE011FDF6C
S11307C098BD41D4964B26099682851C27057E0741
S11307D041974BBD421FBD403065496249BD03434B
S11307E0DF20B6FF2A8408270A8601BD0447BD40DE
S11307F090200596BCBD0447DE204500654962494A
S1130800BD0343DF204FD682C51C270B4CC51026E1
S1130810064CC50826014CBD0447DE204500BD0337
S113082043DF209682840244BD0447DE204500BD98
S11308300343DF2096828401BD0447DE2045006522
S1130840496249BD0343DF20968184044444BD04C6
S113085047DE204500BD0343DF209681840244BD6A
S11308600447DE204500BD0343DF2096818401BD9B
S11308700447DE20450065496249BD0343DF20BDCE
S11308800343DF224FD682C52027064CC5402701EB
S11308904CBD0447DE2045004FF6FF2AC508260953
S11308A04CF6FF18C51026014CBD0447DE22450056
S11308B0654962498639F6FF2AC50826188638F63E
S11308C0FF18C510260F863DD682C5402607BD41B8
S11308D0CE2709860C974BBD403065498601BD047F
S11308E04755CE0100968185012703CE0080BD04C3
S11308F04B5E8643BD04D9BD02D3088C0003240398
S1130900CE0003DF12CE011FDF91CE021EDF9396CD
S1130910BC2607C680D7707C00BCBD40DED6702BD9
S113092003BD41779681850427064FBD414D20398B
S11309308620BD414DCEF582BD4138DE91DF02CE29
S11309400008DF04DEBBDFA0DF00BD40D8CE0141DC
S1130950DF02CE0008DF04DE12DF00BD40D8CE0186
S113096049860DA7008613A70186FFD6119714DECA
S113097091DF85861997B4BD04EE9681850226031E
S1130980E70108DF83DE1296818504260108DFBDB6
S1130990BD4120964B2605D6A1BD413BBD403065E7
S11309A0496249B6FF2A8508270586397E03F1DEA8
S11309B0B526068680976E200F09DFB59670847F72
S11309C09770BD40DEBD41D1BD403065496249B636
S11309D0FF2A850826D4967085802610DEB508DFA8
S11309E0B5BD40DEBD4015BD420D0101BD403065C1
S11309F0496249BD03F5B6FF2A850826ADCE01003C
S1130A00968185012703CE0080DF20DE2EA605E631
S1130A1006D02192202506C0028200240586157E78
S1130A2003F19621D620A708E707EE0B1405DF9102
S1130A309B92D9918001C2009794D793BD40DEBDAB
S1130A404165964B2707813526037F004BBD403017
S1130A5065496249BD03F5B6FF2A8508269DCE0186
S1130A6000968185012703CE0080DF20DE2EA605B7
S1130A70E606D021922025A5C0028200259FEE071C
S1130A809C202699DE2EEE0B1405DF919691D692CA
S1130A90DB219920C0018200D7949793DEB5260507
S1130AA086307E03F1BD40DEBD416BBD40306549FB
S1130AB06249BD02D35D27037E03EF97A1CE011FD8
S1130AC0DF91CE021EDF93BD4174964B2605D6A15D
S1130AD0BD413BBD403065496249CE011FDF91CE27
S1130AE0021EDF93BD4174BD40306549860120017B
S1130AF04F9720624930A609CE000081172703BD15
S1130B000343FF0338BD0343DE2E96202602080864
S1130B10EE05BD044BFE03382704450020254B0594
S1130B20DFCE02B5DF02CE001EDF04BD4087DE0249
S1130B30A600BD4033DE0208DF029C0423F0860DCC
S1130B40BD40336549624930A612CE0000811727A3
S1130B5009BD0343FF0308BD0343FF0318BD02D3CC
S1130B604859485948599721D720BD0343ED0020DF
S1130B7014F8BD04FEFE031827094500FE030845CA
S1130B800065494B05DFCE02B5DF02CE0028DF0445
S1130B90BD4087DE02A600BD4033DE0208DF029CB2
S1130BA00423F2860DBD40334B05DFCE02B5DF02D0
S1130BB0CE0028DF04BD4087DE02A600BD4033DE40
S1130BC00208DF029C0423F2860DBD403365494FC1
S1130BD02002860162499720BD0343FF0318DE28E3
S1130BE0FF031ABD0343FF0308DE28FF030ABC0307
S1130BF01A2705860C7E03F196202608BD0343FFC1
S1130C0003102006CE0310BD03D8BD0343FF030029
S1130C10DE2EEE09ED030014F3FF0302FE030ADFE8
S1130C201CFE0308DF18FE0318DF1ADE183C00144C
S1130C3008DF18BD02D3DF1EDE1A3C001408DF1AD9
S1130C40BD02D39C1E2236DE1C09DF1C26DDFE03FA
S1130C50183C00BD02D309DF1EFE0308DF18FE03A3
S1130C6018DF1AFE030A09DF1CDE181408DF183C1B
S1130C7000BD02D3DF0EDE1EBD40F32705860A7ECB
S1130C800BF5DE1A1408DF1A3C00BD02D309ED008F
S1130C900EDF1EDE1C09DF1C26CFDE1EBD0586ED21
S1130CA00300BC030025D6BC030222D196202609EA
S1130CB03C00FE0310450020053D03104500654936
S1130CC0624930A609CEFFFF810B2703BD02D3FF83
S1130CD00320BD02D3BD0586FF0338BD0343FF03D4
S1130CE008DE2CFF030ABD02D3BD0586FF0318BD31
S1130CF00343FF0300DE2CFF0302FE03003C00ED70
S1130D000318FF0300FE03084500ED0338FF030842
S1130D10FE032009FF03202710FE0300BC03022268
S1130D2008FE0308BC030A23D165496249CEFFFFCC
S1130D30FF032086179F00BD411A3014239C00270F
S1130D4006BD02D3FF0320BD02D3270109FF031808
S1130D50BD02D3270109FF0328BD0343FF0300DEBF
S1130D602CFF0302BD02D39790860D9797978E862A
S1130D7083978FCE0D9FDF56BD4000BD401B964B21
S1130D80265EFE03282736CE05DFFF009CBD40E724
S1130D90964B264CFE032809FF032826F0201EFE4E
S1130DA00318FF031A2716CE05DFFF009CBD40E79A
S1130DB0964B262CFE031A09FF031A26F0FE0300A5
S1130DC0FF009CBD40E7964B2616FE032009FF0357
S1130DD020270DFE03001408FF0300BC030223BFF9
S1130DE0BD421F966A847E27037F006E654962496F
S1130DF0CE0000FF0320CE0008FF031830A60081B8
S1130E000B270FBD02D3FF0320BD02D3BD0586FF10
S1130E100318BD0343FF0300DE2CFF0302CE0000D2
S1130E20DF2030A60081082708BD02D3270109DF8F
S1130E3020BD03F5FF03506F076F08EE05ED035067
S1130E4009FF0352DE20270A09DF208620BD04643F
S1130E5020F2BD03BAFF0358DFD60909EE00DFE92B
S1130E60CE0000DFE6FE0300DF9C3D008FCE02B51E
S1130E70DF9109DF95CE02DDDF938608978F860127
S1130E809787862497908602978ABD41987F00872A
S1130E909696D6959092D2918B01C9009721D7202E
S1130EA04B008F964B2660FE0350A606E605A0086D
S1130EB0E20725539021D220254DDE206BFE0350FE
S1130EC0A608E607AB0CE90B8B05C9003637CE0242
S1130ED0B56BE3FE0350A608E6079B21D920A708BB
S1130EE0E707DEE69CE92505CE0000DFE6FE030009
S1130EF0ED0318FF0300BC0302220CFE032009FFCC
S1130F00032027037E0E6565496249CE0000FF0376
S1130F1020CE0008FF031830A600810B270FBD0266
S1130F20D3FF0320BD02D3BD0586FF0318BD0343D1
S1130F30FF0300DE2CFF0302CE0000DF20BD41CE04
S1130F402608BD02D3270109DF20BD03BAED002026
S1130F50FF0350DE28ED002EFF0352FE0350BC03B6
S1130F60522737DF00FE0352DF02BD4003964B26B3
S1130F7029DE00BC03502603FE0352FF03503D0547
S1130F80DFFE03004500ED0318FF0300BC0302224B
S1130F9009FE032009FF032026C16549624930A6E2
S1130FA0008108276DEE01A60485202622BD034397
S1130FB0FF0308BD0343FF0300FE03083C00FE03D8
S1130FC0003C00FE03084500FE030045006549BDE2
S1130FD00343FF0308DE2CFF030ABD0343FF0300A2
S1130FE0DE2CFF0302FE03003C00FE03083C00FE6F
S1130FF003004500FE030845001408FF0308BC0372
S11310000A220DFE03001408FF0300BC030223D5CB
S11310106549BD03F5FF0358BD03F5FF0350EE0713
S1131020FF0352FE0358EE07FF035ABC0352240386
S1131030FE0352DF202767FE0350EE05DF22FE0386
S113104058EE059C222502DE229C2024037E0442C5
S1131050FE0350EE0B1405FF0354FE0358EE0B146D
S113106005FF035CFE0354A600FE035CE600A70034
S113107008FF035CFE0354E70008FF0354DE200965
S1131080DF2026E0FE03526BFE035A6BFE03503250
S1131090A70732A708FE035832A70732A7086549F5
S11310A062499F008617BD411A9F029600D601D05F
S11310B0039202CE0000FF0348FF0338D704C1287F
S11310C02306BD02D3FF0348D604C11E2306BD0276
S11310D0D3FF0338BD02D3FF0340BD03BAA6008487
S11310E001B70350BD0343FF0300DE2EEE05FF03EB
S11310F002DE2EEE07FF0304DE2EEE09ED030014DC
S1131100FBFF0306CE0302B6035026020808EE00D6
S1131110FF0320FF0322740322760323FE03222607
S1131120026549CE0001FF0308B60320F60321F04F
S11311300323B20322B70324F70325FE0308FF03A6
S113114018FE0318ED0322FF031AFE0340DF28FEF6
S11311500318BD1255FE031ABD1255BD408A15125F
S11311602B3A263BFE03382733DF28FE0318BD1233
S113117055FE031ABD1255BD408A15122B1E261F9B
S1131180FE03482717DF28FE0318BD1255FE031A75
S1131190BD1255BD408A15122B0226037E123ECE87
S11311A00302B6035027020808EE00DF20CE000138
S11311B04D2603FE0304BD0586DF22FE0318097DC8
S11311C00350270ADF0EFE0304BD40F3DE0EBD0507
S11311D086ED0300DF1CFE031A097D0350270ADF96
S11311E00EFE0304BD40F3DE0EBD0586ED0300DFF5
S11311F01EDE1CBC030624583C00DE1EBC03062471
S11312004F3C00DE1C4500DE1E4500DE1CED0022C6
S1131210DF1CDE1EED0022DF1EDE2009DF2026D1CA
S1131220B60318F60319F00323B20322B70318F721
S11312300319250A4D2604C10125037E1141FE032D
S11312400808FF0308BC032422037E113B7E111609
S113125086597E03F1DF2675DF24CE0302B60350E0
S113126026020808EE009C2625E6CE0302B60350AB
S113127027020808EE009C2825D6CE0026B6035087
S113128026020808EE0009DF0EFE0304BD40F3CE7B
S11312900026B6035027020808EE0009ED000EBD33
S11312A00586ED03003C00380024624935A600CED3
S11312B0FFFF810B2703BD02D3FF0320BD0343FFC0
S11312C00310DE2CFF0312BD02D3BD0586FF0318F5
S11312D0BD0343FF0308DE2CFF030ABD03BAA600C7
S11312E0B70358BD02D3BD0586FF0338BD0343FFD2
S11312F00300DE2CFF0302FE03003C00FE03083C57
S113130000B60358812A26035B2034812B2603521E
S1131310202D812D2603552026812F26035E201F94
S1131320815E26188610BD04D9964B811626109F1F
S1131330008617BD411A9E00260A20FE7E03EFFE9A
S113134003104500FE032009FF03202729FE0300A4
S1131350ED0338FF0300BC0302221BFE0308ED0368
S113136018FF0308BC030A220DFE03101408FF0330
S113137010BC031223816549624930A609CEFFFFE0
S1131380810B2703BD02D3FF0320BD02D3BD058615
S1131390FF0338BD0343FF0308DE2CFF030ABD022D
S11313A0D3BD0586FF0318BD0343FF0300DE2CFFF6
S11313B00302BD03BA0909EE008C000224037E0374
S11313C0EFDE2EEE00DF20CE141E21A6001827EE3D
S11313D021E6011891202604D1212704140320EAD0
S11313E021A60218B70358FE03003C00B60358BDFB
S11313F004D9FE03084500FE032009FF0320271C2F
S1131400FE0300ED0318FF0300BC0302220EFE03DB
S113141008ED0338FF0308BC030A23CB65494142A6
S11314203F414348415347415449434F4B45584634
S1131430494E434C47444C4F4553474153494C5301
S1131440514054414A006249CEFFFFFF0320CE02BF
S1131450F8FF0348FF03409F008617BD411A30146C
S1131460289C00272914129C002711DE00DF1EBDD2
S113147002D3FF03203014289C1E2712BD0343FF10
S11314800348BD04C7BD0343FF0340BD04C7BD03F8
S113149043FF0308BD04C7CE0310BD03D8BD03BA80
S11314A0A6005F813C27125C813D270D5C813E27AD
S11314B0085C814E27037E03EFF70358BD02D3BDBA
S11314C00586FF0318BD0343FF0300DE2EFF03025E
S11314D0964B27037E03F17F0020DE2CFF0304FEDE
S11314E003003C003D0310BD408A15128B01B1037B
S11314F058270BF60358C103262F8101272B96206A
S11315002716FE030A3C00FE03003C00BD408A157A
S1131510128B01B103582611FE0300FF030A860152
S11315209720B6035885012617FE032009FF0320E0
S1131530270EFE0300ED0318FF0300BC0304239FE2
S11315409620271FFE030A3C00FE03084500FE0305
S113155002DF2EFE030ABD04FEFE03404500FE0327
S113156048450065498601200286FF97206249307C
S1131570A609CE000081172709BD0343FF0328BD38
S11315800343FF0338BD0343FF0300FF030214FBBF
S1131590EE00ED030014F3FF0306CE0001FF030485
S11315A02011FE03023C003D0330BD408A15129118
S11315B020260EFE03023C004B0330FE0304FF030F
S11315C03AFE030408FF0304FE03021408FF0302A7
S11315D0BC030623CDFE033ABD044BFE0338270C9F
S11315E045003D0330FE0328450065494B05DFCE29
S11315F002B5DF02CE0028DF04BD4087DE02A6006C
S1131600BD4033DE0208DF029C0423F2860DBD4098
S1131610333D03304B05DFCE02B5DF02CE0028DFB9
S113162004BD4087DE02A600BD4033DE0208DF02AF
S11316309C0423F2860DBD403365496249CEFFFF09
S1131640FF03209F008617BD411A30141A9C0027FF
S113165006BD02D3FF0320BD0343FF0310BD02D325
S1131660BD0586FF0318BD0343FF0300964B270304
S11316707E03F1DE2CFF03043DE6E84B02B5FE03D6
S1131680003C003D02B5524B02B5FE032009FF03A6
S113169020270EFE0300ED0318FF0300BC03042300
S11316A0DD3D02B5FE0310450065496249CE02BD29
S11316B0BD03D8CE02B5BD03D8BD03433D02B54E2C
S11316C0DE2A45001408DF2A3D02BD524B02B5DE76
S11316D02809DF2826E665496249BD02D3DF22CE08
S11316E00008DF28BD03F5BD0495FF0358BD03F5CD
S11316F0BD049596228D09FE035896238D026549F3
S1131700C608D720C63049C900E700087A00202659
S1131710F3396249BD0343FF030809BD04C8BD038F
S1131720BAD629272E7F00207F0021A60046790003
S113173021790020085A26F3FE03088604A70086B0
S113174010A7019620A7029621A7033C0061FE037F
S113175008450065494F200A86022006868020023B
S11317608601971C6249BD02D34A9718BD02D3B7BC
S11317700320BD0343FF0310BD03BADF24961827DB
S1131780097400287600297E17C6FE0310A60249B4
S1131790DE24F60320961C270D2B198502270E69DB
S11317A0005A26FB201366005A26FB200C68005AB8
S11317B026FB200564005A26FB08DF24DE2809DF07
S11317C02826C77E1808FE0310A60249DE24F60365
S11317D020961C270F2B168502271B690169005AC6
S11317E026F92019660066015A26F920106400665D
S11317F0015A26F92007680169005A26F90808DF0A
S113180024DE2809DF2826BECEE6E82403CEE7023C
S11318103C00FE0310450065494F20068601200266
S11318208680971C6249BD03BAFF0358DE28DF2671
S1131830BD03BADF24FE0358DF20DE26DF22DE20CC
S1131840A60008DF20DE24D61C27062B08AA0020C9
S113185006A4002002A800A70008DF24DE2809DF70
S1131860282707DE220927CD20D265494F20068686
S11318700120028680971C6249BD02D34A9718BD95
S113188041CE261ABD02D3DFCABD03BADF2496189F
S113189027097400287600297E195D7E192FBD035F
S11318A0BADF26BD03BADF24961827097400287608
S11318B000297E18EEDE24A600DE26D61C27062B81
S11318C008A0002016AB002012E600D70F7F000E00
S11318D0DE0E970FBD40F3960FDE2608DF26DE24CA
S11318E0A70008DF24DE2809DF2826C96549DE248D
S11318F0A600E601DE267D001C27082B0CE001A2D1
S1131900002015EB01A900200F970ED70FEE00BDA4
S113191040F3960ED60FDE260808DF26DE24A70045
S1131920E7010808DF24DE2809DF2826C16549DE2F
S113193024A600D61C27062B0890CB20129BCB2074
S11319400E970F7F000EDECABD40F3960FDE24A76C
S11319500008DF24DE2809DF2826D46549DE24A612
S113196000E6017D001C27082B0CD0CB92CA201561
S1131970DBCB99CA200F970ED70FDECABD40F39672
S11319800ED60FDE24A700E7010808DF24DE2809AD
S1131990DF2826C965496249BD02D3DF28BD03F5A6
S11319A0FF03506F076F08EE0B1405FF0352BD4091
S11319B0EAFE0350A607E608E006A2052429BD4076
S11319C0CFB6008DFE0352A70008FF0352FE03505A
S11319D0A607E608CB018900A707E708DE2809DF88
S11319E0282704D66A27CA65494F20028601971C16
S11319F06249BD02D34A9718BD0343FF031809BDCA
S1131A0004C86C048604A7018610A702BD0343FF23
S1131A10032009BD04C88604A7018610A702BD03DC
S1131A20BADF240F9F169E41A600E601FE03207D27
S1131A3000182762A702E70374002876002931DE24
S1131A4024A600E6010808DF24FE03207D001C27ED
S1131A5014A102251F27082012E103250E2015E1F9
S1131A60032208200FA102220B27EEA702E703FEA0
S1131A700318AF02DE2809DF2826C39E160EFE03D4
S1131A80203C0061FE03204500FE03183C0061FE7B
S1131A90031845006549A70331DE24A60008DF24A6
S1131AA0FE0320D61C2606A1032506200BA1032332
S1131AB007A703FE0318AF02DE2809DF2826D92072
S1131AC0BA6249BD02D34A971ABD02D3DF24BD02CC
S1131AD0D309DF22BD02D3DF20DE24961A2703EDCB
S1131AE00024DF28BD03F5BD0495DF1EBD03BAED58
S1131AF00022961A2703ED0022DF1CDE1CA600E656
S1131B0001ED00207D001A2703ED0020DF1CDE1EFE
S1131B10A700087D001A2703E70008DF1EDE24095A
S1131B20DF2426D765496249BD02D34A971ABD020C
S1131B30D3DF24BD02D309DF22BD02D3DF20DE249C
S1131B40BD02D397907F008FBD401BCE04F4DFA06D
S1131B50CE0504DF9E8601B700A63DE6E84B0328C8
S1131B60BD03BAED0022961A2703ED0022DF1CDE26
S1131B701CA600E601ED00207D001A2705ED0020DB
S1131B802002164F373636DF1CBD40814B05043D1D
S1131B90E7023D0328524E4B03284B04F48614BB42
S1131BA000A68D127F00A6DE2409DF2426C1BD41D4
S1131BB0D4BD421F6549BD41809797978E7F008FA2
S1131BC07E40B16249BD03F5EE07DF28DE2EEE0B41
S1131BD01405DF20740028760029DE282715DE206E
S1131BE0A600E601A701E7000808DF20DE2809DFD8
S1131BF02826EB6549CE003ADF22DE22EE032605D5
S1131C00DE41DF2439DF2214092005DE2408080818
S1131C10DF24A60081A327E281A427DE819427DAAA
S1131C2081B52607EE01ED002420E281B6260414D6
S1131C300920DD81B027D681B127D281B227CE8198
S1131C40B427CA81B3271E81D0272781D1272381B6
S1131C50CF27A781CC27B681CD27B281CE26B00865
S1131C60A600CC20ABDE202708DE24EE019C202633
S1131C709A3986597E03F10FDE1EA604E603EE05AB
S1131C802603CE003AA704E703DE1EA606E605EE09
S1131C90032704A706E7050E39DE1EA601811125D8
S1131CA0160F6F00C60BE701C694E70A6F0B800B93
S1131CB0A70C8660A70D0E396249BD41CE2606CE1B
S1131CC00338BD03D8BD0343FF0310DE28FF03120E
S1131CD0BD0343FF0308DE28BC03122403FF0312E1
S1131CE0BD0343FF0330DE28FF0332BD0343FF037C
S1131CF028DE28BC03322403FF0332FE0310DF2650
S1131D00FE0312DF20CE03383C00DE20BD055EDE7C
S1131D10200926EFCE0001FF032AFE0328DF26FE5A
S1131D200332BD055BCE0001BD055BBD408A1512C3
S1131D304D2A014FB7032C4A27028601B7032DCE43
S1131D400001FF030CFE0308DF26FE030CBD055B48
S1131D504B03203D0320FE0332B6032D2603CE00A1
S1131D6000B6032C2701086BFE0328DF2675BD058A
S1131D705BBD408A15122A037E1E3B3D0320FE03F1
S1131D8032B6032C2603CE0000B6032D270108BD6E
S1131D90055BBD408A15124A26037E1E3BFE032ABC
S1131DA0FF030AFE030AFF032A3D0320FE0328DF84
S1131DB026FE030AB6032C270108BD055BBD408A35
S1131DC015122A163D0320FE030AB6032D27010827
S1131DD0BD055BBD408A15122A0CFE030A08FF03E9
S1131DE00ABC033225BDFE030ABC0332250409FFE5
S1131DF0030AFE0330DF26FE030A08BD055BFE036B
S1131E000ABD055B55FE0328DF26FE030A08BD054F
S1131E105BFE030ABD055B555E3D0320FE030ABD60
S1131E20055B555BFE0330DF26FE030ABD055B52EE
S1131E30FE0310DF26FE030CBD055EFE030C08FF47
S1131E40030CBC031222037E1D4565496249BD0390
S1131E5043FF0308DE28FF030ABD0343FF0330DE0C
S1131E6028BC030A2403FF030ABD0343FF0328DE3F
S1131E7028BC030A2403FF030A3DE6E84B0310FED3
S1131E800328DF26FE030ABD055BCE0001BD055B0A
S1131E90BD408A1512CE0001810127020909FF0302
S1131EA020CE00008101270108FF0322FE0308DF82
S1131EB0263DE6E84ECE0001BD055EFE030ABD05E3
S1131EC05ECE0001FF0318FE0318FF031A7D0323EF
S1131ED02716B6030AF6030BCB018900F00319B2E7
S1131EE00318B7031AF7031BFE0330DF26FE031A99
S1131EF0BD055BFE031AED0320BD055B52FE0328FE
S1131F00DF26FE031AED0320BD055BFE031ABD05A3
S1131F105B555B3DE6F05E3D0310524E4B0310FEF5
S1131F200308DF26FE031AED0320BD055EFE031839
S1131F3008FF0318BC030A258E65496249BD02D314
S1131F404AB70340BD0343FF0338DE28FF033ABD0D
S1131F500343FF0318DE28BC033A2403FF033ABDFE
S1131F600343FF0300DE28BC033A2403FF033ACEF5
S1131F700002FF031AFE0318DF26FE031ABD055BE9
S1131F80FE031A09BD055B554B0308FE031A08BD81
S1131F90055BFE031ABD055B554B03303DE7023D6F
S1131FA003083D0330523D03085B3D03305B5E4B49
S1131FB00328B603402634FE0300DF26FE031ABDC1
S1131FC0055BFE031A09BD055B553D03304E5B5BA3
S1131FD0FE031A08BD055BFE031ABD055B553D03F0
S1131FE0084E5B5B523D03285B2032FE0300DF2674
S1131FF0FE031A09BD055BFE031ABD055B553D03CF
S9030000FC
