S00B00004441544120492F4FF3
S1130000305BFE031A08BD055BFE031ABD055B5594
S11300103D03085B523D03285B3DE6F05BFE03387D
S1130020DF26FE031ABD055EFE031A08FF031ABC91
S1130030033A24037E1F75B603402664FE0300DFE3
S113004026CE0002BD055BCE0001BD055B55FE0357
S113005018DF26CE0002BD055BCE0001BD055B5551
S11300605EFE0338DF26CE0001BD055EFE0300DF21
S113007026FE033ABD055BFE033A09BD055B55FE4A
S11300800318DF26FE033ABD055BFE033A09BD05EE
S11300905B555EFE0338DF26FE033ABD055E201580
S11300A03DE6E84EFE0338DF26CE0001BD055EFEC8
S11300B0033ABD055E65496249BD02D34A9720BD36
S11300C002D3DF2296202703ED0022DF24BD034361
S11300D0DF26DE289C2224037E0442BD03F5A60607
S11300E0E6059025D22425F09625D624A708E7070F
S11300F0EE0B1405DF28DE22272CDE263C00140834
S1130100DF269620270FBD02DEDE28A701E70008C0
S113011008DF28200ABD02D3DE28A70008DF28DE76
S11301202209DF2226D465496249BD02D34A9720B9
S1130130BD02D3DF2296202703ED0022DF24BD0376
S113014043DF26DE289C2224037E0442BD03BADF5B
S11301501EDE289C2425F2DE222728DE1E96202778
S113016007A601E6000820035FA60008DF1E363755
S113017036BD4081DE2645001408DF26DE2209DF75
S11301802226D865496249CEFFFFDF20CE0000DF7A
S11301902430A60981082713A61281082708BD0266
S11301A0D3270109DF24BD02D3DF20BD02D3972268
S11301B0BD03F5EE05DF00DE24ED00209C002502E2
S11301C0DE006B3332DE2EA708E707AB0CE90B8B9E
S11301D005C9009705D7049622EE0B1405ED0024FB
S11301E09C042407A700089C0425F965496249BDBD
S11301F00343DF20BD03F5EE05BD044BDE204500BF
S113020065496249BD03BADE282713DE2EA600081D
S1130210DF2E847FBD4063DE2809DF2826ED860DAE
S1130220BD4033654962499F008617BD411A9F024C
S11302309600D601D0039202CEFFFFFF0348FF03CE
S113024038D704C1282306BD02D3FF0348D604C10E
S11302501E2306BD02D3FF0338BD02D3FF0340BDF6
S113026002D3FF0302BD03F5EE0B1405FF0300DE0A
S11302702EEE07BD044BDE2EEE07ED0300FF030454
S1130280FE0302BD044B5E8643BD04D9BD02D3FF09
S11302900320FF0322740322760323FE0322260293
S11302A06549CE0001FF0308B60320F60321F003DD
S11302B023B20322B70324F70325FE0308FF031820
S11302C0FE0318ED0322FF031AFE0340BD23732B24
S11302D01C261EFE03388CFFFF2714BD23732B7BC3
S11302E0260FFE03488CFFFF2771BD23732B6C2759
S11302F06AFE0302DF0EFE031809BD40F3DE0C267E
S11303006DDE0EED0300DF00FE0302DF0EFE031AB6
S113031009BD40F3DE0C2656DE0EED0300DF02FEBF
S11303200302DF04DE00A600DE02E600A70008DF09
S113033002DE00E70008DF00DE0409DF0426E5B67C
S11303400318F60319F00323B20322B70318F703C3
S1130350192508FE031827037E22C0FE030808FFA0
S11303600308BC032422037E22BA7E229575865993
S11303707E03F1ED0300DF00FE0302DF0EFE03182F
S113038009BD40F3DE0C26E5DE0EED0000DF02FEC3
S11303900302DF0EFE031A09BD40F3DE0C26CEDE97
S11303A00EED0000DF04DE02A600DE04A100260D2F
S11303B04D271208DF04DE0208DF0220E924038649
S11303C0FF398601394F396249BD03F5FF0358CE21
S11303D00221DF20860D9797FE0358EE07DF009673
S11303E001D6008049C200250586317E03F19601BD
S11303F0D6009B21D9209763D762DE62DF64862012
S1130400A7009C602707A701089C6026F9FE0358F3
S1130410EE072724DF00DE20DF02FE0358EE0B1474
S113042005DF04DE04A60008DF04DE02A70008DFFF
S113043002DE0009DF0026EBCE0221BC0064271F88
S1130440DF1EA6008120240C8A40BD40338608BDEF
S11304504033865FBD4033DE1E08BC006426E1BD28
S113046041089664D665D02192209722D723FE03B3
S113047058A606E605EE059023D2222402DF229632
S113048022D623FE0358A707E708D7019700DE000A
S11304902722FE0358EE0B1405DF02DE20DF04DE04
S11304A004A60008DF04DE02A70008DF02DE00095C
S11304B0DF0026EB65496249BD03F56F076F08DE6F
S11304C0729C74270DBD4105DE2E6C08EE0B847FF3
S11304D0A70565496249BD02D3972886209729302C
S11304E0A60081172705BD02D39729860C979797F5
S11304F08E8603978F9629979081212603BD4150BC
S1130500BD401BBD40FF9628840126037E25BACE3C
S1130510003ADF1EDE1EEE03DF1E2615BD252BBDB1
S1130520252BBD252BBD252B7E25BA860DBD41AAC5
S113053039EE07DF20BD1BF5DE2427D8968F84F71C
S1130540978FDE20BD044BCE05DF4500DF9CBD4107
S113055098964B27037E26BE8DD17F0026DE22EEA1
S113056007BD044BCE05DF4500DF9C968F8A0897B4
S11305708FCE3558FF037DCE3544FF037F8653B7B6
S11305800381CE037DDFD6CE0000DFE6CE0005DF9B
S1130590E9BD4198964B27037E26BE96264C9726A6
S11305A081072506BD252B7F0026BD1C0BDE2426D6
S11305B0ACBD252BBD252B7E25149628840226034D
S11305C07E2658CE0000DF20BD1BF5DE24260FBD9D
S11305D0252BBD252BBD252BBD252B7E2658A602FC
S11305E0E601CE003AEE03270EE10722F82508A122
S11305F00822F22502205B968F8A08978FCE364414
S1130600FF037D8653B7037FCE037DDFD6CE000084
S1130610DFE6CE0003DFE9DE22EE07BD044BCE05A4
S1130620DF4500DF9CBD41988620BD41AA862DBDD3
S113063041AACE0000DFE6DE24EE01BD044BCE0568
S1130640DF4500DF9CBD4198BD252B964B27037EDB
S113065026BEBD1C0B7E25CB962884042760CE00C5
S11306603ADF1EDE1EEE03DF1E26022051A609819C
S11306705E2720815F271C81602718816E271481E3
S113068055271081B326DCA60C818626D6A60D81BB
S11306905226D0EE032727EE07DF20BD1BF5DE240C
S11306A026C1968F84F7978FDE20BD044BCE05DFDD
S11306B04500DF9CBD4198BD252B964B27A5BD2544
S11306C02BBD41D4BD421F654962499F008617BDB9
S11306D0411A3014089C002509860197267F001CC6
S11306E0201930A600EE0181082709810A27037E1C
S11306F003EF15041505DF1E7F0026860C979797D8
S11307008E8603978FBD02D3FF0300B60301979033
S113071081212603BD4150BD401BBD40FF962627C5
S113072044961C9702DE1ADF00BD05F8DF1E272A57
S1130730960A971CDE08DF1AE60008C1202710C1BC
S113074024270CC15F2708C13025D6C15A22D24ABA
S113075026E620119626270220C7BD2870BD41D465
S1130760BD421F6549CE003ADF20BD2870BD287008
S11307707F0027DE1EEE02FF0302CE0302DF9CCEC3
S11307800002DF9ADE1EA6032A0B140DDF9C841FD1
S1130790979B7F009A968F84F7978FBD4195BD28CC
S11307A070964B26B5DE20EE0327A9DF201409DF5F
S11307B022A600270481F7250586597E03F181A32B
S11307C027E381A427DF819427DB81B52609EE0185
S11307D01403ED002220D881B62606DE2214092057
S11307E0CE81B0273381B1272F81B2277C81B327F3
S11307F07881B4277481D027C081D127BC81CF27C9
S1130800A481CC276481CD276081CE260608A6006A
S1130810CC209CDE22082097EE019C1E264BCE3570
S113082058FF0302CE3544FF03048653B70306CEB4
S11308300302DFD6DE41DFE6CE0005DFE986089A53
S11308408F978FDE20EE07BD044BCE05DF4500DF1A
S11308509CBD4198964B27037E275A96274C972791
S1130860810725058D0A7F0027DE2214037E27AF2A
S1130870860DBD41AA396249BD41CE27037E03EFEF
S1130880BD40A5964B26F6DE00DF4F96558A80972D
S11308905565496249BD0343DF209F008602BD417F
S11308A01ADE002706EE062702EE07BD044BDE2003
S11308B0450065496249BD41CEBD421327037E030D
S11308C0EF514E4103EC8DFEA27983C05B3DE702FC
S11308D0515E8646BD0447558612BD04475E30A668
S11308E0012A03BD04C8BD02D3260108DF205BBD75
S11308F002D3260108DF22B6FF2A847FB7FF2ADE4F
S1130900200926FDB6FF2A8A80B7FF2ADE200926A1
S1130910FDDE2209DF2226DF7F004B65496249BDE7
S113092002D38121260286239790860D9797978E6E
S11309308680978FBD401B964B2666BD03F56F07D7
S11309406F08DE2EA60CE60B8B05C900AB08E90781
S1130950979DD79CA606E605A008E2078001C20081
S1130960979BD79ABD40E4964B2636966A842826F0
S113097030DE2E968CD68BAB08E9078B01C900A715
S113098008E707AB0CE90B9701D700DE00860DA73B
S113099004DE2EA608E6078B01C900A006E20525A1
S11309A0A1BD421F7F006E65496249BD0343DF203C
S11309B0BD03BACE0000DF22962FD62E9B29D9285C
S11309C09725D724962FD62E9025D2242412DE2EB6
S11309D0A60008DF2E810D26EBDE2208DF2220E4AC
S11309E0DE22BD044BDE20450065496249BD03F5A6
S11309F06F076F08FF02B5BD02D3260108DF20BDD3
S1130A0003BADF1C9629D6289021D220253B962FA5
S1130A10D62E9B29D9289723D722962FD62E9B21D1
S1130A20D9208001C2009725D724FE02B5DF2E9677
S1130A3025D6249023D2222410DE24A60008DF2405
S1130A40810D2705BD046420E665496249BD03BAEA
S1130A500909DF20DE28DF22BD02D3260108DF24B6
S1130A60BD03F5FF02B5A60CE60B8B04C9009B255C
S1130A70D9249701D700A60CE60B8B05C900AB0857
S1130A80E9079705D704DE00DF02A600810D270FD2
S1130A909601D6009005D204240508DF0020EB96C9
S1130AA001D6009003D2029707D706B602B6F60223
S1130AB0B5363736378608369621D6203637363758
S1130AC0860936DE24BD044BDE06BD044B8606BD16
S1130AD004D965496249BD02D3260108DF20BD035C
S1130AE0BA0909DF22BD03F5CE0001FF02B5860D68
S1130AF0B702B7962FD62E3637363786083686B5E0
S1130B00C60236373637860936DE20BD044BCE00A2
S1130B1000BD044B8606BD04D9964B2626962FD6D7
S1130B202E363736378608369623D622363736376A
S1130B30860936DE20BD044BCE0000BD044B86067C
S1130B40BD04D965496249BD02D3260108DF20BD31
S1130B5003F5A60CE60B8B05C900AB08E907970360
S1130B60D702A60CE60B8B04C9009B21D92097154C
S1130B70D7149707D7069003D202250586157E035E
S1130B80F1DE14A60008DF149C022704810D26F16F
S1130B90962FD62E36373637860836CE0000FF021B
S1130BA0B586B5C60236373637860936DE20BD042B
S1130BB04B9615D6149007D2069705D704DE04BDCC
S1130BC0044B8606BD04D965496249BD0343DF2051
S1130BD0BD02D3260108DF22BD03BADE28272896EA
S1130BE02FD62E9B29D9289725D724DE2EDF00DE89
S1130BF02209DF222718DE00A60008DF009C242734
S1130C000D810D26F120E88601BD044720129601CE
S1130C10D600902FD22E9703D702DE0208BD044BD4
S1130C20DE20450065496249BD0343DF20BD02D390
S1130C30260108DF22BD03BA9629D6288B01C900F4
S1130C409023D2222405DE2808DF22962FD62E9B5D
S1130C5023D9228001C2009723D722CE0001DF00CE
S1130C60DE2E9C222710A60008DF2E810D26F1DE41
S1130C700008DF0020EADE00BD044BDE20450065ED
S1130C80496249BD0343DF20BD02D3260108DF22A8
S1130C90BD03BADE2827529629D6289023D22224CF
S1130CA004DE28DF22962FD62E9B29D9289725D714
S1130CB024962FD62E9B23D9229701D700DE000934
S1130CC009A60008810D27049C2E26F3DF0AA6003E
S1130CD0810D2705089C2426F5DF029603D6029091
S1130CE00BD20A9705D704DE04BD044BDE20450071
S1130CF065496249BD0343DF20BD02D3260108DFF5
S1130D0022BD03BA9629D6289023D2222406DE28AF
S1130D102734DF22962FD62E9B23D9229701D70082
S1130D20DE000909A60008810D27079C2E27030968
S1130D3020F1DF009601D600902FD22E8B01C9003E
S1130D409703D702DE02BD044BDE204500654962ED
S1130D5049BD0343DF20BD02D3260108DF22BD03C2
S1130D60BA9629D6289023D2222407DE28273F08C2
S1130D70DF22962FD62E9B23D9229701D700DE009F
S1130D800909A600089C2E2714810D27030920F1C8
S1130D900909A60008810D27049C2E26F3DF069678
S1130DA007D606902FD22E9709D708DE0808BD046F
S1130DB04BDE20450065496249BD0343DF20BD0287
S1130DC0D3260108DF22BD03BADE2827489629D698
S1130DD0289023D2222404DE28DF22962FD62E9BAD
S1130DE023D9228001C2009701D700962FD62E9BCB
S1130DF029D9289725D724DE00A600089C24270497
S1130E00810D26F5DF069607D606902FD22E970978
S1130E10D708DE0808BD044BDE204500654975216E
S1130E20A6001808DFC936BD403332DEC94D26EFAF
S1130E308D35DEC96E00BD2E4C8620BD403339DFB2
S1130E40C996C9BD2E4C96CABD2E363997C844449E
S1130E5044448D0796C8840F8D01398A30813A2520
S1130E60028B07BD403339860DBD40333930080845
S1130E708D10DECC088D0BDECC0886058D06BD2ECC
S1130E806739860997CBDFCCA600BD2E36DECC08A9
S1130E907A00CB26F18620BD403339860A97CBBD34
S1130EA02E3F863ABD40338620BD4033DEC9DFCCB9
S1130EB0EE00BD2E3FDECC08087A00CB26F0BD2E16
S1130EC0673997C88620BD403396C84A26F4393618
S1130ED00797CB0E3297CDD7CCDFC9BD2E6796CD01
S1130EE0BD2E3696CCBD2E3696CBBD2E36DEC9BD74
S1130EF02E3F30BD2E3F860ABD2EC2964BBD2E36E8
S1130F00DE59BD2E3FBD2E67BD2E6D4FCE0000BDF8
S1130F102E9BCE0014BD2E9B8604CE0028BD2E9D94
S1130F20CE02B5BD2E9BCE02C9BD2E9BCE02DDBD29
S1130F302E9BCE02F1BD2E9B20FE00FF00FD700013
S1130F40FF0000F700F5E800EA0000FF00EEC6002D
S1130F50550000DC00F8E000260000FA00DCF00098
S1130F60D90000F700B5EC00F200001B00F65600B3
S1130F70A00000F800D8D500F30000FA00D77100F3
S1130F801D0000B8007FD300330000F700F2F90021
S1130F90B200007700F32600EC0000FD00D5F50058
S1130FA0D00000FD00FBB000F80000FE00FB700064
S1130FB0D10000FE00F32D00A00000FF00FFE500BB
S1130FC0A50000F5007DC0006A0000BE00F2240008
S1130FD0D80000BA00EE55006F0000FE00CFBB0041
S1130FE07100005C00FE7A003F0000CE0075C20074
S1130FF07E00007B00DAE600710000F300DA4000B6
S9030000FC
