S00B00004441544120492F4FF3
S113100085AD397EFCF57EFD3B7EFD8C7EFD077E45
S1131010F9257EFDD27EF0247EFD2F7EFD0B7EFD24
S11310200F7EFDB896777F0077840748CEF0375F50
S1131030BDE003EE006E00F3ACF39AF045F427F242
S113104089F441F29A967881072607BDC00CBDFC4D
S1131050F539817F260139BDF37396781680202BEC
S1131060037EF1D5C1082742C1092714C10A271BF1
S1131070C10B2710C10C2705C10D2733397EF18C14
S11310804F7EF1D5BDF2A2C6122005BDF2A2C6EE76
S1131090374FBDF269BDF2B3BDF3734F33BDF2698F
S11310A086A19777CE0000DF803986F75F20EEBDFA
S11310B0FD0FF680284FC50826035F2002C6EEBD4B
S11310C0F2C4CE00D8BDE009CE0067BDE012BDE099
S11310D00FCE009DBDE01ECE00DCBDE009CE006356
S11310E0BDE012BDE00FCE009DBDE012BDE018CE04
S11310F00087BDE01ECE0067BDE009BDE00FCE0055
S1131100C4BDE01ECE0063BDE009BDE00FCE00C843
S1131110BDE01ECE007CBDE009CE0067BDE012BD7F
S1131120E00FCE009DBDE01ECE0078BDE009CE00EC
S113113063BDE012BDE00FCE009DBDE012BDE01B1B
S1131140CE0087BDE01ECE009DBDE01ECE0063BD77
S1131150E009BDE00FCE00C4BDE012BDE018CE0032
S1131160C4BDE01ECE009DBDE009CE0067BDE01207
S1131170BDE00FCE0087BDE01ECE00C8BDE009BDB6
S1131180E01BCE00C8BDE01E4F5F2003BDF198BD3B
S1131190F269BDF2B37EF0A0CE0000DFC4DFC60763
S11311A0010FDE3CDFC8DE3EDFCA064FC6F539E676
S11311B00008C540261E5D2A030820F3D12126F924
S11311C0A10026F5086D002B030820F8E600C40FE3
S11311D0D721A60139D6E2D72136FE0120261532C1
S11311E0D641C5402705CEF8408DC4CEF8348DBF16
S11311F036CEF4558100270AE60008C10F26F94AC5
S113120020F29621484848488A0FE60008C10F2773
S11312100E1126F6E600C40FC10F260F0820F5E6CE
S113122000C40FC10F2604323620B4322002DEE09F
S1131230A60016C40FC10F260E86A1977786095FF4
S1131240CE0000DF80201E4D2B04C6A12002C6A0C4
S1131250D77708DFE0CEF22EDF8016847F44444443
S113126044C40FC003BDF2C439BDF2C4CE0078BD7E
S1131270C00FCE007CBDC012DE78DFC4DE7ADFC6CC
S1131280DE7CDFC8DE7EDFCA39DE78DFD8DE7ADFD7
S1131290DADE7CDFDCDE7EDFDE39BDF1988DCA8DDF
S11312A01239DED8DFC4DEDADFC6DEDCDFC8DEDE1C
S11312B0DFCA39DEC4DFD8DEC6DFDADEC8DFDCDE53
S11312C0CADFDE39363736D7842B048600200286FF
S11312D0FF97837F0085BDE024CE004FBDE012BDA3
S11312E0E00FCE0099BDE01E3297842B04860020C7
S11312F00286FF97837F0085BDE024CE004BBDE0CE
S113130012BDE00FCE0099BDE012BDE01BCE00C4BB
S1131310BDE012BDE018CE0078BDE01E33D7842BAB
S1131320048600200286FF97837F0085BDE024CEDB
S11313300057BDE012BDE00FCE0099BDE01E32970C
S1131340842B048600200286FF97837F0085BDE0FE
S113135024CE0053BDE012BDE00FCE0099BDE012D3
S1131360BDE018CE00C8BDE012BDE018CE007CBDC3
S1131370E01E39DE2ADF99962C979BDE2DDF9D96A1
S11313802F979FBDD0187F0077DE9DDFC8DE9FDFDB
S1131390CADE99DFC4DE9BDFC639BDF373BDF2B389
S11313A0CE0078BDE009BDE0307EF3DECE0078BD2E
S11313B0E009CE4190DF87CE0000DF89BDE027CE73
S11313C0005BBDE01ECE007CBDE009CE4212DF878B
S11313D0CE0000DF89BDE027CE005FBDE01ECE0059
S11313E067BDE012CE005BBDE009BDE00FCE004B4F
S11313F0BDE01ECE005FBDE009BDE00FCE0057BDCD
S1131400E01ECE0063BDE012CE005BBDE009BDE08E
S11314100FCE0053BDE01ECE005FBDE009BDE00F5E
S1131420CE004FBDE01E3996782B0FCE0078BDE07C
S11314302DD684C10F2E03D7E239BDFD3B7F00E2D8
S1131440394F97E2BDF3ACCE0000DF78DF7ABDF30D
S11314509ABDF29A390F030F3EB633B30F2BAE4E3B
S1131460CB1F2F3F4F8F94ADBECEDD09B914A3C35C
S1131470E40F23AE4EC367870AEA1F2F3F4F9485BC
S113148087988998A9C9D8E9D8E7E5D4E3D4C3A350
S1131490940F05A4C4E6E78A8BADCDEC3EB30FEE02
S11314A01E8C9AAC9E57C5D3E5D70F65C3A3858719
S11314B0CBCDBEAE9D9BE30F2ACE0F53B4979ABDFE
S11314C0DE0F13B4D7DABD9E0F15DB68881BD50F6A
S11314D035BB08E80F11B3B40F08E80F33B30FEEB0
S11314E08F9F14878A9DAECEDDEAE7D4C3A3940F01
S11314F005ECCEAE8C85A3C3E5EC0F33BEAB0F0C6D
S1131500AECEECEA8583E30F0CAECEECEBC9A9C9F1
S1131510E7E5C3A3850F6787DED30F05A3C3E5E71C
S1131520C9898EEE0F08AACAE8E5C3A3858CAECE9E
S1131530EC0F23EE8E0F298B8CAECEECEBC9A98772
S113154085A3C3E5E7C90F05A3C3E5ECCEAE8C893B
S1131550A7C7E90F39B935B50F38B834B3910F6D52
S113156088E30F07E76A8A0FE88D0F0CAECEECEA2A
S1131570B8B533B31F2F3F4F5F14A3C3D4D5B79867
S113158099BA9C9DAECEDD3AD9D8B70F47CABBAA4B
S1131590A7B6C7D6E7ECCEAE8C85A3C30FBEE316C1
S11315A0D60F8ECEECEBC989C9E7E5C3830F6CCEA9
S11315B0AE8C85A3C3E50F8EAECDEAE7C4A3830F3B
S11315C06E8E89C98983E30F6E8E89C989830F6CF6
S11315D0CEAE8C85A3C3E5E8B80F8E89E9EEE30FA0
S11315E0E3B3BE8EEE0F0785A3C3E5EE0F8E88EE40
S11315F099E30FE3838E0F8EB8EEE30F8EE3EE0FC5
S1131600058CAECEECE5C3A3850F8ECEECEAC8887C
S11316100F45E3D4E5ECCEAE8C85A3C3D40F8ECEB8
S1131620ECEAC888A8E30F05A3C3E5E7C9A98B8C36
S1131630AECEEC0F0EEEBEB30F0E85A3C3E5EE0FD8
S11316400EB3EE0F0E93B8D3EE0FEE0EE30F0EB8FB
S1131650EEB8B30F0EEE83E39FBEEEBEB3E317D72F
S11316601F2F65C3A38587A9C9E7E9E31B9B5BDB40
S11316704F3EBE3BB30F5E9E93D31F2F0587A9C970
S1131680E7E5C3A3851B9B5BDB4F8BE3EB6DDCCCF6
S1131690AE9E8D0F0EE31F65C3A38587A9C9E7E935
S11316A0E33AABBCCBBA2F0985A3C3E5E9E31B9BA3
S11316B05BDB4F3EBE3CB98785A3C3E50F1EDED37B
S11316C0931F2F3F4F5F6F8F33BE8BBEEB0F0BBE4D
S11316D0EB0F00E00F2ECA0F65C3A38587A9C9E7E6
S11316E0E9E30F8E87A9C9E7E5C3A3850F68C9A9F4
S11316F08785A3C3E40F67C9A98785A3C3E5E3EE80
S11317000F06E6E7C9A98785A3C3E40F6DDEBEAD66
S1131710A989C9A9A30F02A0C0E2E9E7C9A98785DD
S1131720A3C3E50F8E87A9C9E7E30F3CBC39B30F08
S11317304CCC49C1B090810F8E6986A7E30F33BEAC
S11317400F898799A9B7B3B7C9D9E7E30F8987A9DF
S1131750C9E7E30F0587A9C9E7E5C3A3850F008996
S113176087A9C9E7E5C3A3850F65C3A38587A9C96D
S1131770E7E9E00F8987A9C9D80F04A3C3E4E5C644
S1131780A68788A9C9E80F2EA999C9A9A4B3C3D467
S11317900F0985A3C3E5E9E30F09B3E90F0993B67C
S11317A0D3E90FE909E30F09B3A0B3E90F09E9830A
S11317B0E39F39B4B6E6E8D9C9B8A999888493A354
S11317C0B4C3D3E41F2FBCD6961E9E5EDE56E35FE1
S11317D04C88E888C40F5DBDACA998A7A4B3D39F77
S11317E0E9D8E7E5C3A38587A9C9D88F3EB01F2FE1
S11317F0058AACCCEAE5C3A3851E9E5EDE5FE907DD
S113180083C30F3EBA37B31FBCCDBEADBCD696D68C
S1131810E32F0C85A3C3E5EC1E9E5EDE5F24E888FF
S1131820E8AC0F1DBDCCC9D8C7C4B3930F0A9BAB9A
S1131830C9D9EA0F093C8010093D815D095DC13DAC
S11318400103040380030104020403040404800468
S113185001200220032004208020013B023B815B05
S1131860013C023C815C013D815D023D825D013EA3
S1131870023E033E043E803E015B025B813B015C11
S1131880025C813C015D813D025D823D005C035C44
S1131890045C065C075CC85CCEF919FF012886A1CC
S11318A0BDF93F7F012A7F012BCEF8AFDF8039CE0F
S11318B0F91BFF01288640BDF93FCEF8C0DF80390F
S11318C086088D74CEF8CADF8039FE012A8C005B4D
S11318D02744DF8308FF012A7F0085BDE024CE0072
S11318E078BDE01E86419777CEF8EEDF80398620FA
S11318F08D46CEF8F8DF803986408D43CEF902DF7D
S11319008039865F8D32CEF90CDF803986088D28C8
S1131910CEF8AFDF80397EF9D000002000800003CC
S113192006C7876060CEFA81FF012886A18D107FEB
S1131930012ACEF95FDF8039977886429777399705
S113194077FE0128A60008E60008FF01289779D74A
S11319507D86409778977CCE0000DF7ADF7E3986DB
S1131960A08DDCB6012A4CB7012A810426C4CEF925
S113197074DF8039CEFA81EE00FF01287F012ACE80
S1131980F97FDF80B601288B04B701289779B60167
S113199029F6012AC10B2C048B0420028004977DB4
S11319A0B701298DACC10B260E86B0B701289779F3
S11319B086A0B70129977D5CF7012A56240486A0E6
S11319C0200286A19777C10C2605CEF898DF8039CE
S11319D0CEF923FF012886A1BDF93FCEF9E1DF80CE
S11319E039CEF91FFF01288645BDF93FCEFA14FF11
S11319F00128CEF9F8DF803986429777FE0128A6C0
S1131A00002708977808FF012820E77F0077CEFA9F
S1131A1032DF8039506C6561736520657865726367
S1131A2069736520746865206A6F79737469636B80
S1131A303A00DE24FF012ACEFA42DF24CE1000FF52
S1131A4001284F4A26FD7EFA4C7EFD63FE012809DB
S1131A50FF0128270139FE012ADF24CEF921FF01E5
S1131A602886A1BDF93FCEFA6CDF80398678BDF9AE
S1131A7038CEFA77DF803986459777FE01EDAD00E1
S1131A8039B070E070E0A0B0A0B070FFDE24AD000B
S1131A90DE80270C9681369680367F00807F008119
S1131AA0DEA12702AD009677271784E0444444441E
S1131AB08B0E97A47F00A3DEA3EE002704AD0020C5
S1131AC0CF309C0027C63297A33297A4DEA3AD0083
S1131AD020BE96777F0077841F48CEFAE35FBDE08F
S1131AE003EE006E00FAEFFB0FFB33FB60FBBABDA5
S1131AF0C030BDFB7F2604DF7C200FA600977CA6A8
S1131B0001977D8C020F26028D648622977739CE49
S1131B10007CBDE02DDF7CBDFB7F2713967981041B
S1131B202C05BDFD3B2008967CA700967DA7017F70
S1131B30007739CE02176F00088C022F26F8CE02E8
S1131B400F8D2B863997208608B701C7B780517F40
S1131B500123CEFB5BDF8086E2200286459777393E
S1131B60CE0F0ADF78DE41DF7C8623977739010FB9
S1131B7086F8A401A70186DFA400A700010E39CED0
S1131B800078BDE02DDF787D0078261C96794881A9
S1131B90202C155FCE020FBDE003DF99969AD699EB
S1131BA0FE000CBDE00C2E07BDFD3BCE000039DE6F
S1131BB099394150000041A00000CE0078BDE009F1
S1131BC0CEFBB2BDE012BDE018CEFBB6BDE012BD47
S1131BD0E0275FBDE0067D00832B2E7D00852A0A69
S1131BE07C008426057C0083270B7D0083260696D3
S1131BF08481392F0286394D270F9720C608811713
S1131C002C02C60BF701C72003BDFD3B7F007739CB
S1131C10F6802BB6802A84C0365D2B037EFCDCC69E
S1131C2080F701EC010EC605CE01076D01260A6D91
S1131C300027206A006A01201A6A0126166D002610
S1131C4012FF011BEE02270837010FAD00010E330E
S1131C50FE011B080808085A26D17D011D27117AA8
S1131C60011D260C010FB6802B84F7B7802B010EC3
S1131C707D01BF2717B601C02A05B780522003B7DC
S1131C8080514A81CE2C028632B701C0BDD01BDE02
S1131C9022AD00BDFD0FF68028C408B6020F84F7FC
S1131CA01B7D00412B1084EF36BDFD0732F68028E2
S1131CB0C50427028A10B7020F010FF6802AB60264
S1131CC01084072704C4FD2009B6020F842026F5DA
S1131CD0CA02F7802A010E7F01EC200EBDD01EDE61
S1131CE01EAD00FE01EF2702AD00F6802AC43F328C
S1131CF01BB7802A3B8605B7011DB6802B8A38B7EF
S1131D00802B393B4F200A8640200686802002869D
S1131D10C037F6802AC43F1BB7802A33398DECB60E
S1131D20802885042705CED0212003CEE0333986D0
S1131D3004BA0210B70210BDFCF539860220F2B6CF
S1131D40802B8A38B7802B7EFFF5CE021F32368473
S1131D501C44375FBDE00333393236CE022F8DEF9A
S1131D60EE00393020FAFF012A32368DEE175FBDBE
S1131D70E003BDE009FE012ABDE01E39BDE00932E1
S1131D80368DD8175FBDE003BDE01E39DE6DFF025E
S1131D9015FF021136B6021184F8270A86FFB7022E
S1131DA0128607B70211BDFD0F32B4802848484897
S1131DB0BA02111BB702113996CC81012E122D06DD
S1131DC096CD81C7240A96EE854026048A0197EEB3
S1131DD039FF010F8E00FFCEBFFF86F0C602979930
S1131DE0D79ABDFF9C8CFFFF26F086FF08A700A1B1
S1131DF00026066F006D0027F3DF9996992E037E67
S1131E00FD3F969A847F27037EFD3F09DF00C6FFCE
S1131E10DE000886015C095D2604A7002007A100F6
S1131E2027037EFD3F4C27FD8C000226E95D27E059
S1131E30CEFF2BDF99CE0002DF9BDE99A60008DFE0
S1131E4099DE9BA70008DF9B8C004326ED4FA7007B
S1131E50089C0026F9A700DE00355F8640BDE00C33
S1131E60DF6B96008B20488520270884C08A109A4F
S1131E70429742BDC018CEFF6CDF9D8606979986B7
S1131E8002979BDE9DEE00DF9FDE9D0808DF9DDE4E
S1131E909DA600DE9F6F01A7008604A701A600DEB1
S1131EA09DE601A602080808DF9DDE9FA700E70162
S1131EB00808DF9F7A009B26D67A009926C1BDC008
S1131EC036BDFD1DAD00DE22AD00BDC002BDD00299
S1131ED0BDE002CE9FFF8608979D86FCC6029799B7
S1131EE0D79ABDFF9C8CBFFF26F0CEA000DF99DE01
S1131EF0996D022B02AD0296998B04979981C02D9E
S1131F00EEBDD0277D00412A15CEBC09FF001ABDC5
S1131F10FD07B68028850427058602B701E98608EF
S1131F20B701C7B68030010E7EFA8C012C012C4615
S1131F300172017248023FFAD2D02AF024D01BD099
S1131F4024C03300000000D02D3900D033D03097A6
S1131F50296E000BFF00000100002400180BDC07B1
S1131F60E84110000040AAAAAA7F0025800CFF06C1
S1131F700FFF34008044FF04FF0004008018730442
S1131F8041C004008028803C80CB370A8030002E7A
S1131F9000FF2E0080600304033F3D394F979B9759
S1131FA09C08A600979F08A60097A0E60108A60033
S1131FB09B9C979C24087C009B26037C009C7800B7
S1131FC09C79009B24037C009C7C009A26DF7C0087
S1131FD09926DA969C91A02608969B919F2602202A
S1131FE0065D2B037EFD3F7C009D39FFFFFFFFFF55
S1131FF0FFFFFFFFFF7EFFF5FC10FD03C039FDD29C
S9030000FC
