S00B00004441544120492F4FF3
S1130000FFFFFFFFFFFFFFFFFFFFFFFFFFFFFFFFFC
S1130010405201A601B601AF000000000041525356
S1130020495A45080042494E494E20083842494E33
S11300304F555408BD434F4E46494708EB44434C83
S113004020202010FA4445434845580A08554E4498
S11300504546201001455252484C500A57474554D2
S113006020202010E047544C20202010F64845580A
S11300704445430E0649464320202011144C49535D
S113008054454E11334C4C4F202020113B4C4F43D0
S1130090532020113F504F4C4C20200E57505045B8
S11300A02020200F4A5050442020200F3450504F1D
S11300B04C4C200F955050552020200FB5505249DC
S11300C05354520FBA5242494E20200FE552574C16
S11300D0532020114E534443202020115B5352518E
S11300E04F464602C85352514F4E2002F354414CDE
S11300F04B2020115F554E4C2020201175554E5435
S1130100202020117A564152434C52101D56415220
S11301105345541020564152545354109257424957
S11301204E202010B3564C495354201A024E4557C2
S113013054415002FF544E414D45201BA24C4153A3
S11301405420201C965448454144451D165354429E
S1130150484C500A5200FFFFFFFFFFFFFFFFFFFF65
S1130160FFFFFFFFFFFFFFFFFFFFFFFFFFFFFFFF9B
S1130170FFFFFFFFFFFFFFFFFFFFFFFFFFFFFFFF8B
S1130180FFFFFFFFFFFFFFFFFFFFFFFFFFFFFFFF7B
S1130190FFFFFFFFFFFFFFFFFFFFFFFFFFFFFFFF6B
S11301A0FFFFFFFFFFFF7DE1C6270B8D2F20077D9B
S11301B0E1C627028D32B64309817E271421FE5FF2
S11301C0C2188C1502261221FE5FC6188CBE322678
S11301D008B6046E26057E025E8D01399653267D8F
S11301E08D06CE32C8BD403CBD19C90C0A0A5468FC
S11301F06520343035322052313420526F6D205016
S113020061636B206973206E6F7420636F6D70611E
S11302107469626C652077697468207468697320F6
S11302206D616368696E652E0D506C656173652040
S1130230636F6E7461637420746865206C6F6361AE
S11302406C2054656B74726F6E6978207365727676
S11302506963652063656E7465722E0D0039CE0581
S1130260CFC60532A700085A26F9CE02B4C60F0934
S113027021A60018365A26F7CE05D4C60509A600CD
S1130280365A26F930B64309817E270C21B602B4CA
S1130290F602B518A706E707967CA70A962FA712B9
S11302A0962CA71339184309160C00D0000000003F
S11302B002B600005FC2B6046E26028D0B3206320F
S11302C03121FE4028186E0196558A089755966D7F
S11302D084EF976DCE02E0FF0473967CB704753902
S11302E096558A089755966D84EF976D7514056B2E
S11302F07E4027965584F797557F04757E41E3BD6C
S113030014ECBD16538D10F603162602D74BFE03CC
S1130310042703BD15563996708A0197708D6C7F3A
S11303200316D670964B8139270A7C0316C501261D
S1130330037C0316C4FED77039BD41E9BD4210B633
S1130340FF18B6FF1B2B31B6FF2A85082620B6FFFF
S113035019854027ED86FABD4042B6FF1B85C026AD
S113036017BD41ECBD41FE8629BD41E94F39BD4170
S11303709E8639974B86FF39D6BAC5042705BD0436
S11303800620058DDCBD41C2867F39B6FF2A85086B
S11303902601397F00B7B6FF188802B7FF18880214
S11303A0B7FF18B6FF2A850826C7CE0005BD403C16
S11303B0BD40DE4F97709782968185042705BD4125
S11303C0C22040B6FF1A86A7BD03392636BD41D1E7
S11303D0964B262FBD420D20F4CE011FDF91CE0295
S11303E01E968185012703CE019EDF9386FF97BC6D
S11303F0BD41B0240E96BC270A7F004BBD40159624
S11304004B27B07E4030BD41FE7F0070F6FF1ABD21
S1130410419E070F3686F794BABD41E9F6FF1AB636
S1130420FF2A85082612B6FF1B85C027F2CE0005D9
S1130430BD403CB6FF1B2BE4BD419E3206F6FF1ABD
S1130440CE0000DFBB7F00B77E41FEFFFFFFFFFF52
S1130450FFFFFFFFFFFFFFFFFFFFFFFFFFFFFFFFA8
S1130460FFFFFFFFFFFFFFFFFFFFFFFFFFFFFFFF98
S1130470FFFFFFFFFFFFFFFFFFFFFFFFFFFFFFFF88
S1130480FFFFFFFFFFFFFFFFFFFFFFFFFFFFFFFF78
S1130800BD14EC2730BD14EF272BBD13A32612FE15
S113081002FEA601810A261D5FBD15564F5F7E1597
S11308204CFE02E0A605E606BD153DFE02E0A60765
S1130830E6087E154C7E166DBD1647BD1697BD4065
S1130840CFC1252708966A27F5C603206B966A2729
S113085004C60620637F0310BD1714966A26F23778
S1130860BD1714327D006A26E8C00182002404C644
S1130870082045B70311F70312BD16D9FE0311274B
S113088019966A260EC605F7030BBD1714270B9697
S11308906A27F7C606F7030B2011966A26F5BD17DB
S11308A014B603102705C604F7030BBD1726BD179E
S11308B06B32BD16297E1676F7030B20F1BD164761
S11308C0BD18027F0314B6030A2707BD1836261184
S11308D02005BD184F260AB6031040BD1970BD1976
S11308E093BD176B32BD16297E1676BD13A0271251
S11308F0FE02FEA6018111260408FF02FEBD14EFCC
S113090026037E166DBD15A92406BD1653C6014FD8
S11309102BF0B702CBF702CCFE02E0A60726E3E6F3
S11309200826015CF702C9CE0000FF02C7BD167F8E
S1130930BD117A964B7F004B4D27037E09E4862038
S1130940B702BD8601B702C586FFB702C6BD40F631
S1130950BD400FC63FBD40D2BD130FBD400CFE02CB
S1130960CB26050886012005860DF6FF0CF6FF054B
S1130970C4302750F6FF185725F34A26ED0926E818
S1130980FE02E2BC02DE2775F602C5BD1576B6028C
S1130990C981012710FE02E21408BC02DE275EF6BC
S11309A002C6BD1564FE02C708FF02C7FE02E2B616
S11309B002C9BC02DE274614084A26F6FF02E2B644
S11309C002C62B12B602C98101270BB602C64C819E
S11309D02027037E094AB602C54C811F27037E09DE
S11309E045BD1175C602FE02C727170FB602C7F62A
S11309F002C8FE02E0A705E7060E5F2005BD1175DB
S1130A00C601BD15567E1676BD1647BD143F312767
S1130A101DFE02F8A6052606E606C1042302C60446
S1130A20F702BE860410B702BFBD15A924127E16B4
S1130A306D85F027037E166158495849584958492D
S1130A407A02BF2AEC36BD14A1327A02BE26E97EB0
S1130A5014CBCE0D2F2003CE0AB0FF030EBD1647D4
S1130A60BD143F2705BD15A924037E166DFE030E94
S1130A708C0D2F212602C4EFE1012604A1002707D3
S1130A80EE0226F4182025181404FF02EA090921AD
S1130A90EE0018FF02E6FE02EA21A60018BD14AF1C
S1130AA0FE02EA08FF02EABC02E626ED317E14CB20
S1130AB000650AC2434F4D4D414E442048454144D0
S1130AC0455200660AD64845414445522044454CA7
S1130AD0494D4954455200670AEA434F4D4D414E32
S1130AE04420415247554D454E5400680B00415235
S1130AF047554D454E542044454C494D4954455263
S1130B0000690B184E4F4E2D4E554D45524943200A
S1130B10415247554D454E54006A0B2C4D49535391
S1130B20494E4720415247554D454E54006B0B4E9C
S1130B30494E56414C4944204D4553534147452065
S1130B40554E49542044454C494D49544552006C36
S1130B500B60434845434B53554D204552524F5229
S1130B60006D0B7342595445434F554E5420455222
S1130B70524F5200C90B9B434F4D4D414E44204EA2
S1130B804F542045584543555441424C4520494E05
S1130B90204C4F43414C204D4F444500CA0BB753A2
S1130BA0455454494E4753204C4F535420445545C3
S1130BB020544F2072746C00CB0BCB492F4F204232
S1130BC05546464552532046554C4C00CC0BE053F9
S1130BD0455454494E475320434F4E464C49435481
S1130BE000CD0BF9415247554D454E54204F5554B5
S1130BF0204F462052414E474500CE0C1A47524FD3
S1130C00555020455845435554452054524947476B
S1130C1045522049474E4F524544012D0C2D494E13
S1130C2054455252555054204641554C54012E0CB3
S1130C303D53595354454D204552524F5201910C46
S1130C4049504F574552204F4E01920C5F4F50452B
S1130C50524154494F4E20434F4D504C4554450149
S1130C60930C6F55534552205245515545535401E9
S1130C70940C7D504F574552204641494C01950CE8
S1130C80905245515545535420434F4E54524F4C66
S1130C9001960CA250415353454420434F4E5452A5
S1130CA04F4C00640CB3434F4D4D414E44204552CC
S1130CB0524F5200C80CC6455845435554494F4EEF
S1130CC0204552524F52012C0CD8494E5445524E95
S1130CD0414C204552524F5201900CE85359535401
S1130CE0454D204556454E5401F40CFD45584543A9
S1130CF05554494F4E205741524E494E4702580DC4
S1130D0011494E5445524E414C205741524E494E82
S1130D104702BC0D2B4445564943452044455045A4
S1130D204E44454E54204556454E5400650000003F
S1130D30000D3E4E554C4C205354415455530041E4
S1130D400D4A504F574552204F4E00420D604F50B0
S1130D5045524154494F4E20434F4D504C45544504
S1130D6000430D7055534552205245515545535437
S1130D7000440D835245515545535420434F4E541E
S1130D80524F4C00450D9550415353454420434F19
S1130D904E54524F4C00610DA6434F4D4D414E44AD
S1130DA0204552524F5200620DB94558454355549F
S1130DB0494F4E204552524F5200630DCB494E5479
S1130DC045524E414C204552524F5200640DD95069
S1130DD04F574552204641494C00650DEE45584554
S1130DE0435554494F4E205741524E494E47006691
S1130DF00E02494E5445524E414C205741524E49E1
S1130E004E4700410000BD14EC2746BD13F22741B4
S1130E107F02B64FBC02E62738E60008C14025042D
S1130E202732C007C0302B2CC10F222885F026247E
S1130E307802B6497802B6497802B6497802B649CA
S1130E40FB02B6F702B6BC02E626CEF602B67E1563
S1130E503A7E166D7E1669BD164731BD11B5BD14B7
S1130E60EF2705BD14EF26037E166DBD15A92406D4
S1130E70BD16534FC6052BF0B702CBF702CC7F0249
S1130E80CD7F02CEBD167FBD162E7F008DC618BD48
S1130E9010FCBD11D68640B702BDBD40F6BD11FAA7
S1130EA0B602BB2B197C02CEBD40EABD400C8D328C
S1130EB025E8B602CEB702CDC54027DE2007F602EC
S1130EC0CD50F702CEBE02C3BD162EC619BD10FC0E
S1130ED0BD16767F004BF602CEBD1556D68D4F7EDD
S1130EE0154CFE02CB86FD8D3BC60DB6FF0CB6FF3E
S1130EF00585402613B6FF184725F35A26ED8C00C6
S1130F000027E60926E30D3986028D20BD40C097EF
S1130F106AD78D86FB8D0DB6FF05854026F98604BC
S1130F208D0A0C3994FC97FCB7FF01399AFC97FCA5
S1130F30B7FF0139BD167FBD117FC605BD10FCC6C4
S1130F4070BD10FCBD16297E1676BD164731BD1145
S1130F50B5BD15A9253C2B375AF702CEC00882002F
S1130F60242DBD15A9252BF702CDC0028200241F14
S1130F70BD167FBD118CC605BD10FCF602CD5858B8
S1130F8058FB02CECB60BD10FCBD16297E16767EC2
S1130F90165D7E166DBD167FBD14EC26037E166DA0
S1130FA0BD400FBD40EABD4078F6FF04BD1539BD14
S1130FB040C97E1676C6157E10FCBD164731BD119C
S1130FC0B5BD13F226037E166DBD167FBD118CFED2
S1130FD002EA2006E600BD40D208BC02E626F5BDC2
S1130FE016297E1676BD1647BD1697CEFFFFFF0362
S1130FF011BD16D9BD1726BD176B32BD16297E1635
S9030000FC
