S00B00004441544120492F4FF3
S1130000B787AA7D071227037E9A8ECE0221DF913D
S1130010DF98DF95CE03B9DF9386FF97908621970B
S113002097CE000DDF77CEFFFFDF79CE9632DF0269
S1130030CE0221DF629C642609CE0000DF6239080B
S1130040DF62A600812027F7DE62BDA6E52772A63F
S113005000814027168125263986019777DF62B60D
S113006004649778FE0465DF79DE6208DF62BDA46C
S113007009BDA7DB9790DE6209A600813A2764BD1B
S1130080A409BDA7DB9797DE6209A600813A27532E
S1130090202C81612D08817A2E0484DFA70008DFDB
S11300A062DE02E600271A08DF0211279B6D002793
S11300B0030820F90808086D0027037E982E7E891E
S11300C034DE62090908BDA6E526FA5D2F1309C1CD
S11300D006260E08A60081402704812526037E9863
S11300E051DF627F0711DE0209086D0026FBEE0175
S11300F0DF0096902D3B273681202D352E05CE9797
S11301005120618121260ACE9757D69726567EA183
S11301107081252D192E138CA1152612D69726032E
S11301207EA15FC11A26077EA14E81282C037E89F9
S11301303BCE971BDF02EE0027269C002708DE0239
S11301400808080820EEDE02E603969081FF2606E2
S1130150A60297902006969781212D02D797D78ED5
S1130160DE006E00D697C12027C72DC2A6002DC180
S11301701127BB0820F681EB26107D0712260139D2
S1130180860DBD8033C6EB7E9A8E81C626037E978C
S1130190C9C4BFC1B42707C1B627037E8033FE0795
S11301A013BC071526013936B6071281012602321F
S11301B0397D071027193281F42602847F9720861F
S11301C0EB7C071020B0DE0ABDA4019620202E7D12
S11301D0072326E2860DBD8033CE0221DF62CE00E6
S11301E000DF14DF1A7F070EBDA409BDA38632D633
S11301F04B26095CF707238D047F07233981F427F5
S11302000C81F62605BDA4012003BDA3F9BC071586
S113021027F308DF0ADF02BD8B2E39BDA409073698
S1130220BDA386DF0232062608DE62860DA1002702
S11302300FBDA4090736DE6209BDA6E5325D2D05B2
S1130240FE0715200D062705BDA3862002DE02BD8C
S1130250A3F9DF044F971B964B270139BDA59ABD1F
S1130260A4F67EA5BCBDA409964B270139BDA3867F
S1130270DF068601B70712FE0715DF02C606D700A0
S11302808620BDCBEE7A000026F6C60D2043FE077D
S1130290158680A7006F0108BC0717272708BC072D
S11302A0172721FF0715CE02212002DE629C642756
S11302B020A60008DF62FE0715A70008FF0715BC8B
S11302C0071726E78685974B09BDA401FF0715C6C6
S11302D0EBCE0000DF62C10D260A8608BDCBEE8698
S11302E03A7ECBEE7F0831FE071509096D002C0715
S11302F09C022703FF0715B6071281022602323239
S11303007F0712860BBDF22E860DBDF22EFE071559
S1130310DF047F070E7EA24ABDA409273BBDA38646
S1130320FF071DBDA4092605FE071D2007BDA386E2
S113033096002603BDA3F9FF071FDF00964B270194
S113034039CE0000DF62CE071DBDA71123037E89CD
S11303503B8D08BDA348204A7E8934FE0715FF075C
S113036021FE071DDF00CE071FBDA730DE08DF001A
S1130370CE0715BDA721FF0715CE0717BDA711226C
S113038015BE06E2FE07210909FF07158685974B6E
S1130390BD92297E91D8DE08DF00DE0CBDA71CDFEC
S11303A00C39FE07158680A7006F01A7026F033979
S11303B0860120014FB7070EBDA409BDA386DF0245
S11303C0BDA409BDA386BDA3F9DF04BDA409BDA3D3
S11303D086DF06DF00DE0208BDA70C220ADE04BDAC
S11303E0A70C23037E893BCE0000DF627EA24A8DE8
S11303F016B70726398D10B70727398D0AB707288E
S1130400398D04B7072539DE62A601CE0000DF620C
S1130410398D21BDA409964B2614BDE00CBDDD1811
S1130420BD9E7CBDA7DBD601BDDBDDBDCBBFCE0051
S113043000DF62399690B107BF270481212603BDEE
S11304409D8F9690812127EB32327EA1158DE5BDDB
S1130450A409BDA7DBDF10BDA4974D27015CC10330
S11304602202C603D7137F0012CE0000DF62B687D4
S113047098841027048638974BBDE00CBD9E7CBD44
S1130480DB0ABDCBBF7E9E7CCE0001DF04DF06BD50
S1130490A4092705BDA7DBDF04BDA409270ABDA75E
S11304A0DB2603CE0001DF06BDA4092705BDA38614
S11304B02003FE0713DF02CE0000DF62CE270FDF2A
S11304C000DE04BDA70C230E8684974BCE8000DF8C
S11304D004CE0000DF06DE029605D604495944CA5C
S11304E080E700A701DE06DF00CE0004BDA721DF00
S11304F004DE02BDA3F9DF02BC071526BF39FE07DF
S113050013FF0715DF06DF082014BDA4092605FE26
S113051007152003BDA386DF06FE0715DF08BD9E71
S113052009FE07158680A7006F0108BC0717270678
S113053008BC071726258685974B09BDA401FF072C
S113054015969081212603BDCBBF8D43DE08DF02C3
S1130550FE0715DF047F070E7EA24AFF0715DE851E
S1130560A6009C952609964B26D7BD9E6320EF08CE
S1130570DF85FE0715917827A89179270A917A27B4
S1130580DA847FA70020A909096D002DB120B2B635
S113059007BF81FF2772B607C08502273EBD9E7143
S11305A0B607BF81212607DE8508DF8520479690A0
S11305B036969736B607BF9790B607C19797DE85EC
S11305C008DF95968F847F978F96878A809787BD5B
S11305D0A5F67F0087329797329790861F919022D5
S11305E005B107BF2305BD9E9D201396908121264A
S11305F00D964B2609BDE00CBDDD18BDCBBF8D7C2F
S11306007F07C086FFB707BF39CE0000FF0062B680
S113061007C08501270A9690B107BF2703BD9D8FA8
S1130620B607C085022705868D974B398A01B7071F
S1130630C08D3E96908121261696828515270586C3
S11306408F974B39851C27F78A409782BDE00C961B
S113065090B707BF7F008FDE859C912706DE930845
S1130660DF9539968F8A80978FBDA5F6DE91DF8559
S113067039DE85DF008D05DE00DF8539CE021EB64A
S113068007BF81212609968185012703CE019EDFBC
S113069093CE011FDF95DF85DF98DF9139BDF57FAC
S11306A0BDF539C65FBDF50EC63FBDF50EBDF4D828
S11306B04F978F39BDA409BD9E09BDA7DB26037CD6
S11306C00000DE8520088D9B964B263CDE91D67873
S11306D0A6009C9527F00811270E917926F28D1516
S11306E0BD9D8F8692974B39DF85DE00092706DF93
S11306F000DE8520DBDE859C952604DE91DF859671
S11307009081212603BDCBBF39CE0000DF1A200B18
S1130710860120014F971A8601971BBDA409BDA32A
S113072086961A26020808DF06BDA409BDA386BD65
S1130730A3F90808DF08DF00CE0006BDA7112303D4
S11307407E893B8D08CE0000DF627E9FF4BD9E71E2
S1130750B607BF9190270781FF2703BD9D8F96970A
S1130760B707C19690B707BF81212660BDE00C96FC
S11307708285202605868F974B39B607C0850226C9
S11307804B8501270ABDFE81DEB508DFB5203D9605
S11307908185042637BD9E7CBD9608BDDBC8BDDCC3
S11307A0A8964B260DBDDBC89682851C2608868F2D
S11307B0974BBD961E39C612CE0127DF0CCE97ABE0
S11307C0BD8888BDDD53BD9E7CBD961E86029A7091
S11307D0977096828A409782B607C08A02B707C08C
S11307E07F008FDE85DF9539968F847F978FBDA537
S11307F0F6BD9E7C964B260EDE069C08261996793D
S9030000FC
