S00B00004441544120492F4FF3
S113000078DE43DF029F04DE3FBDAA4CDF3B6F0076
S11300106F0109DF43DE02A60036099C0426F87F3F
S1130020002E8D23CE90760736010F8D03320639CC
S1130030DF10DE10EE00DF0C270CDE100808E600EF
S113004008BD888820EC39869097067F00077F00DA
S113005035BDB0D6BDAA3FDF0C86109713CE023A49
S1130060DF14DF164F97189719CE060CDF1AC6094E
S1130070CE00137E8888060C05023A20000000009A
S11300807EBC307EBC307EBC30BD912A865DB70715
S113009027865FB70726867EB707258623B70728F6
S11300A07F87AA7F0724CE93A6DF00CE046D960037
S11300B0A7009601A701967CA702C61BCE06AFDF58
S11300C00CCE91BDBD8888DE45FF071DBD9E7CCE4C
S11300D00263DF607F07127F04727F07107F0723AC
S11300E07F06E47F08317F06E57F07C27F07C0C62D
S11300F0FFF707BFB60478847FB70478FE071DFFB7
S113010006EAFF06ECFF06EEDF00CE0050BDA71C9A
S1130110FF06F07F070AFF0713FF071530C696098D
S1130120095A26FBFF07177E91D8010FC680CE0718
S11301302ADF0CCE050CBD8888C614CE050CDF0A58
S1130140DF0CCE91A9BD88880909DF0CDE0A967CF4
S1130150A702CE07AADF02CE072ADF00A6022B2DB4
S1130160A6052629EE002738A601168C87B0270F8E
S11301708C87B2270A843E852026028436A701DEB6
S113018002E70008DF02DE00BDAA3D20CDDF10C675
S113019006BD888AE700E701DE00EE00E60120DF05
S11301A0B687A98A01B787A93987A80094EC008784
S11301B0B000F5910087B200F5AC0000007E97BD59
S11301C07EBC307EBC307EBC307EBC307EBC307E9B
S11301D0BC307E93507E93817F06E4FE06ECBC0621
S11301E0EE27067C06E4BD06AFD64B27028D3A7D8A
S11301F006E40E26E3010F8680B706E497B20EBD2F
S1130200F36F7F08317F87AA7D06E52F03BD957CB8
S1130210966D8510270884EF976D8681974B964BD2
S113022026057D06E42DD820AF7F0712CE9341BD6D
S113023088CB964B2D0ABD9608BD83B8BD961E3952
S1130240843F48CE9285BD0445BD88CBCE9330BD56
S113025088CB964B3697017F0000DE007F004BBDB4
S1130260B0C2CE0020BD88CB32818A270881942772
S113027004818B260D8620DE64A700A70186B37E49
S11302808033860D7EF2A69310931492AF92BB92A4
S1130290CC92DF92DF92DF92DF92EA92F193149391
S11302A014934192FA92FA92FA9302932292EA49AF
S11302B06C6C6567616C20417267004C696E6520E7
S11302C02320546F6F204C61726765005465787405
S11302D0204275662E204F766572666C6F770051EA
S11302E0204F766572666C6F770053796E7461780F
S11302F00053656D616E746963004D542046696CEA
S1130300650044657669636520617420454F460045
S11303105352510044657669636520416363657394
S1130320730042756666657220416363657373008A
S1130330202D206572726F72206E756D6265722059
S113034000454449544F52204552524F520D000B20
S113035007010FFE06EC7D070A270EBC06EE2609F0
S1130360C686D74B7F070A2011E70008BC06F02693
S113037006FE06EA7C070AFF06EC068601B706E4D9
S11303803907010F84FBFE06EEBC06EC26048A0442
S11303902011E60008BC06F02606FE06EA7F070ADE
S11303A0FF06EE0639298108264E7D0712260F7DA9
S11303B007292605CE00002012CE01F8200D7D0766
S11303C0292605CE00542003CE024C9CAA26287A66
S11303D00724860BBDCBEEDEA88C00142609B607D5
S11303E029438402B70729CE03E2DFAA7C00A5BD16
S11303F0CB817F00A5323239810D260C7D07242C58
S1130400337C07248D3320F4810B2612CE02FF9C0B
S1130410A826E4F6072953C402F7072920D9CE03F6
S1130420E29CAA26D27D072427037C0724BDCBEEB9
S11304303232200532327F072496A8260696A981F7
S113044015230C860DBDCBEE7D0729261820357D9E
S1130450072926218602B70729B6061E81012736F9
S1130460CE02FFDFA8CE01F8DFAA7C00A5BDCB81B8
S11304707F00A5200F7F0729B6061E810227178655
S11304801EBDCBEE7D0712270CC606378620BDCBDA
S1130490EE335A26F6397C00B0BDF2C2209B889513
S11304A0168995128A95128D9512EA9597CA959B8D
S11304B0EB95A8EC9576ED95A5E49572C694F9C7ED
S11304C095E1C895E5C995E8B09548B194F9B29419
S11304D0F9B394F9B494F9F0951AF194F9F294F902
S11304E0F394F9F494F9F694F90D0A00BDF7DC9647
S11304F0768180260139162D037E06C4CE949E8C07
S113050094E927F1A100270508080820F2EE010E5E
S11305106E00C47F20E3C6F120DFDE60C60A8620B9
S113052009A10026055A26F820028D04C6F020C928
S1130530DE608C03AD27108620DE60C642A700086B
S11305405A26FAA700DF6039DE608620C6428C0294
S113055063271B09A10026165A26F8DF60D660D14E
S1130560622604D661D16322E309DF6220DAC6B0D1
S11305702087860420028603B706E539B606E5819E
S1130580032E11BD9D8FBDE00C5FBDDBDDBDCBBF78
S11305907F06E5397E882A860C2002861EBDCBEEB6
S11305A04FB70729397EF34BB60831260E8620B79C
S11305B00831BA87AAB787AA7E94F9812127037CD8
S11305C008319690812127DCB60723BA071026D478
S11305D07F07127F0071BE06E2CE0000DF627E91CB
S11305E0D8860120054F20028602F600B027154D5B
S11305F02707F6061E5C11260B7F00B0B7061E8681
S11306001E7ECBEEB7061E393233972ED72FCE007F
S1130610008628E60037084A26F9DE2E6E003233BB
S1130620972ED72FCE0027C62832A700095A26F9BD
S113063020E84C495354009A1B5345415243480007
S113064088E8494E53455254009A6544454C4554F4
S113065045009B184D4F5645009BB44E4C534541A5
S11306605243480088E252454E554D424552009C43
S113067088434F5059009BB0415050454E44009D13
S11306800A4F4C44009CFE53574E009F1053415652
S113069045009F145752495445009F0946494E440A
S11306A0009C11534B4950009EB44D41524B009C49
S11306B04D4C4153544C494E4500A053534B495063
S11306C0009EB443415244008EC8534F5254008D8F
S11306D044524556534F5254008D41555050455243
S11306E043415345008EBA4C4F57455243415345FD
S11306F0008EBE43415345008E575052494E54001C
S1130700A115494E50555400A1A15F009BEF5D0017
S11307109BF57E009C0123009BFB0088E820139A34
S11307201B20139F1421019F1021019F0921019C6B
S1130730FE21049D0A21049C11211B9EB4210DA1BC
S113074015200CA1A1210D9C4D211C8EC820130045
S1130750001415121A16FF071C1BFF271003E800CC
S113076064000A000107202C3A3B2E3D0D2B2D304E
S1130770313233343536373839204C696E65730D70
S11307800020436861726163746572730D002046D2
S11307907265650D00547970652022432220746FC0
S11307A020636F6E74696E75650D0041534349494A
S11307B0202020544558542020202020207F00AEA3
S11307C0BD06C7172A037E997636DE60099C622629
S11307D005BD9530323681C62619DE628C03AC27FE
S11307E00A8620BD803386F1BD8033867FDE62A712
S11307F0008620BD803333C10D2643B687AA8A8084
S9030000FC
