S00B00004441544120492F4FF3
S1130000BE02F239FE02FEEE04A600E601B702E8E3
S1130010F702E90808FF02ECFF02EAFB02EDB9026D
S1130020ECB702E6F702E7FE02FE1405FF02FEFE4D
S113003002EA39861536FE02FEA60181082705CE9E
S113004000002049EE02FF02F8A6042A157F0016DC
S113005086489717BD4048D64B2704BE02F239FEA6
S113006002F8EE0B1405FF02FCFF02FAFE02F8A6EA
S113007005E606FB02FDB902FCB702F6F702F7FE3D
S113008002FE1405FF02FE7F0300FE02FA31393638
S11300908D0332200444444444840F8B308139233B
S11300A0028B07FE02FABC02F62712A70008FF0221
S11300B0FABC02F6260586FFB703000A390B39FE9F
S11300C002F8070F36B602FAF602FBF002FDB2029E
S11300D0FCA707E708EE0BA60284BFA70232063985
S11300E0BD1229FE02FEC6FFA601810A270F810B5D
S11300F02707CE0000FF030439EE04200CEE02E6CD
S1130100041405C44027EBC67FB60306B70309B63B
S11301100304B70307B60305B70308F70306FF0391
S113012004FE02FE1409FF02FEFE0304394F7F029F
S1130130F5FE03048D1BF6030609E400E700083905
S1130140FE03078D0CF6030920EFFE03048D09203E
S1130150E57D02F52A1520054F5D2A0143B702F417
S11301602A0C4353CB01890020044F7F02F4FF0380
S113017001373636BD4081B602F42A03BD4090FEF5
S11301800301450039FE02E28DC71408FF02E2BCF8
S113019002DE260586FFB7030039BD1229FE02FEE2
S11301A0A601810A270A810B2717810C27170D390D
S11301B0EE02A6042A037E1255844027F11405207A
S11301C006EE04200208086BFE02FE1409FF02FE7C
S11301D075A600844026443C0030BD407BEE0315E8
S11301E009FF0301F603027F02F4815F27054D270F
S11301F023206E7F004B7302F4B6030181802259E1
S113020026035D26544353CB018900B70301F7034A
S113021002FE0301B603017D02F4392038B603035C
S11302202706BD0D6DBD0D6839301403FF02F27F42
S113023003030808FF02FEFF02B9398DEC75861529
S1130240366E00FE02FEA6018117261139C6122061
S11302500EC615200AC6242006C6602002C60CD786
S11302604BBE02F28DB7B6FF2A84BFB7FF2A39B658
S1130270FF2AB702CF8A40B7FF2A8601979039B682
S113028002CF85BF27E039861536BD0DA57F030B48
S1130290BD10E327327F030ABD0F97261EBD10331E
S11302A0272573030AFE02F6B602FBB802F785019E
S11302B0270909FF02F6BC02FA270CBD13688D83D7
S11302C08DADBD0D9332392094FE031227358D3444
S11302D0B6030A270617BD108F20217D030C2A19A7
S11302E0F70314966A2605FE031226088607B70349
S11302F00B5F20028D0EB60314BD1185966ABA03F6
S11303000027C639BD40CF964B260F17BB0311B744
S11303100311FE031209FF0312397E1261B6030AA8
S11303202705BD10BF2011FE02E2BC02E42607C669
S113033009F7030B20028D0139070F36FE02E06F27
S1130340076F08B602E2F602E3F002E5B202E44403
S11303505644564456A705E706A604847FA70432EC
S11303600639F6030B7E114A7F030C7F030D7F03CE
S11303700E86FFB702F5BD0FE6FF02EC2744CE134D
S1130380F8FF030F86FF8D3B27258D372605B7031E
S11303900C201C8D2E26057F02F520138D252605A5
S11303A0B7030D200A8D1C27037E125DB7030EFED2
S11303B002EABC02E6270BA60008812C27BB812099
S11303C027B73936FE02ECC604BC02E62727A6008E
S11303D008FF02EABD4225FE030F21A10018260CE6
S11303E008FF030FFE02EA5A26DF3239085A26FCB8
S11303F0FF030F20F57E125D554E504B5041434B89
S1130400554E53494E454F494E444C4D7F030BBD09
S11304100DA5BD10E327267F030ABD0F2B2611BDB2
S11304200FE6FF02F02716FE02E6FF02EE73030A50
S1130430BD1368BD1243BD126FBD0D7F397E125DC1
S1130440BD14D82613F602EFB602EEF002F1B202A2
S1130450F044568D268D3A4F39BD150F261CF602F1
S1130460D1B602D0F002D3B202D2445644567D0330
S11304700C2B0244568D048D294F39368625BD1523
S11304807A7F031132CB018900BD157A17BD157A25
S113049039FE02F0BC02EE2708BD1566BD157A20B0
S11304A0F339FE02D23C0030BD407B7F004BE604B2
S11304B0B6030C2A0FA6036D012A064353CB018908
S11304C000BD157A17BD157A1509FE02D21408FF6E
S11304D002D2BC02D026CE39FE02EEB602F1B80238
S11304E0EF85012709C60BF7030B09FF02EEBC02D7
S11304F0F0271BFE02F0A60008812F233B8139233D
S113050008814023338146222FBC02EE26E839FEBF
S113051002D2B6030C2B27A600810425132619A6A4
S113052001810822132609A6032A05A6024C2708DE
S11305301408BC02D026E039C60AF7030B39A6001A
S1130540E601847F8104251626EEC110251026E8D5
S1130550A6002A0AA602E6045849AA0326DA1408C1
S1130560BC02D026D9394F8D0448484848E60008D3
S1130570C030C1102302C0071B393716FB0311F723
S11305800311F60316B70316B603152A0ABD40D2A3
S1130590964B27077E126143B703153339B603150B
S11305A02A1AB6030D2B03BD4078F60316BD40D2BC
S11305B0964BBA030D26058605B7FF0339B6E1C687
S11305C026037E01DABD123BBD1033FF02FABD12D1
S11305D043BD404BBD19ABBD166CCE031D5FBD17AB
S11305E087FC09CB02C10E23F5BD16F0CE031DB660
S11305F0031C2B6B1ADF16DF067F000CA604850292
S11306002705BD16C42B1985402705BD18082010E1
S113061085202705BD1827200785102703BD1891BD
S1130620DE16A60484FEA704F6031CBD1787CE03BA
S11306301DFC09B602FA26B1966D2AADCE08466BAA
S1130640EE002708A60484FEA70420F47514028C87
S1130650085423EB070FD655CA7FD46DD76D06B661
S113066002FA2703BD10BFBD40723239CE08466B73
S1130670EE002747A6042B3785722733A6032B14D5
S1130680811F232BA60281402325815A2319815FD0
S1130690261D2013841F9700860D1D2B12C12323B2
S11306A00E4C7A000026F3A6048A01A70420C1A6F2
S11306B004850127BB84FEA70420B57514028C08A9
S11306C05423AC39EE0BA604850226F8DF064D2B25
S11306D00FDE16BD1A31CE16E1BD1F38DE06A604A4
S11306E0395245464552454E434520544F3A200021
S11306F086FFB7031CCEFFFFFF032D4FCE031D1A49
S1130700DF00271F6D032B09EE02BC032D221420EA
S113071009EE0DBC032D220B2710FF032D7F034D83
S1130720B7031C8B02810E23D33936B6032D7F0009
S1130730067D034D2B0DB6031CCE031D1ABD1752A7
S113074073034DDE00BD17AE3224D816BD17521701
S113075020CEDF0A3DE6E84E4B032D4E4B03354ECB
S11307604B033D4B0345A6032B070502C3032D2072
S113077012841FC702FC00CE032D6BDE0A140D6B1E
S1130780E3DE0AB6032D396B37DE41DF0ACE0846B5
S113079017CC86FF7F0006EE00270EE604C501276E
S11307A0F68D0B24F28DAB20EE3375040A39E60383
S11307B02B0DA10225502248F1032E23432047C4C8
S11307C01FD1062741D706A10D253B2233CB0CD7D9
S11307D007C60E6BCE032EDF0875D1072413FC0861
S11307E0CB026BDE089D00221925111402DF0820BC
S11307F0E8260A171C6BDE08A100220675B6032D35
S11308000D3975B6032D0C39BD1A311405BD1F1FE2
S1130810040493028B0216BD1A85863DBD1A57DE69
S113082002BD1F457E1A7CBD1A31BD1991CE1884B4
S1130830BD1F38DE06EE05BD19D2DE06EE07270819
S1130840862CBD1A57BD19D28629BD1A57BD1A0A5E
S1130850DE06A60485042717CE1862BD1F38BD1A0C
S11308607C3920414C4C20444546494E454400CEF9
S11308701879BD1F38BD1A7C3920554E4445464968
S11308804E45440041525241592C202044494D28A0
S113089000BD1A31EE0BE602C5402608DF04DE0671
S11308A0EE078D48BD1991CE18D5BD1F38DE06EE72
S11308B005BD19D2CE18E2BD1F38DE06EE0BA60226
S11308C0854026ABDE06EE07BD19D2CE18E6BD1F65
S11308D038BD1A7C39535452494E472C2044494D53
S11308E02800292C2000205553454400DF00262FE2
S11308F0C611BD1A85CE1907BD1F38C605BD1A8598
S1130900CE1919BD1F38393D20222220204E554CC6
S11309104C20535452494E47002020202020008C64
S113092000192409D601CB04BD1A85202CC61CBD90
S11309301A85F6034ED00CC006C1182C12F6034FCC
S1130940D00CC006C1182C07F60350D00CC0049676
S1130950002604D1012402C004CE1987BD1F38DE4D
S1130960041405A60008DF02BD1A57DE000927118A
S1130970DF005A2704DE0220EACE198BBD1F38207F
S1130980058622BD1A57393D2022002E2E2E2E2EEA
S113099000C61FBD1A85D60C5CF1034E2507270A35
S11309A0F1034F2405BD1A5520EE394FF605932661
S11309B003B6059D16481BCE19C6211D4C1A18F7FF
S11309C0034EFF034F392A2A4831314F2A597731D0
S11309D066848D0BA6002706BD1A570820F639DF5A
S11309E000CE02B6DF02CE000FDF04BD40D8DE0425
S11309F06F01DE0208DF0239756B21A60018270794
S1130A00BD4033750820F2756E01DE06DF140FC693
S1130A10193715FADE066BC60A379F00DE41DF0878
S1130A207F0035BD42137F004B150A0EDE14DF062E
S1130A30396BE6032B04C6022006C41F8D47140B32
S1130A40A6028D13085A26F875D60CF10350260514
S1130A503986208D0286206B37847F811F220A8B82
S1130A60408D0E86088D0A865F8D067C000C3375DA
S1130A70397D02FA27037E10A37E40336B37860D3F
S1130A808DEF337539179B0CB10350230B8DED7F1C
S1130A90000C8DBD8DBB8DB939070F36DE006BDEC2
S1130AA0066BDE0E6BDE106BD64BC128276DC15B67
S1130AB02504C15C2365C106236596548510265B15
S1130AC0BD1BC3D64C2703BD1C0ABD1B91274CC1BB
S1130AD06E260D7D0893273AC6FFE706830720326A
S1130AE0F603BB2736BD1B7A2528964C27057D00C7
S1130AF0552A17964B974CDE10E706040E8307968B
S1130B006D8A40976D7F004B2011974BBD1C0ABD29
S1130B101B91966D84BF976D7F004CC6FF204CBD22
S1130B201BC3D64C2606BD1BF5BD1B91D6552A2AE0
S1130B30F603BB27258D43964C2415D655C47FD781
S1130B4055D64BD74C4D271ABD1C0ABD1B912012FC
S1130B502610DE10E706040E8307D64C2604964BB7
S1130B60974C966D8A40976D5FD74B75DF1075DF94
S1130B700E75DF0675DF00320639BD1F5AEE0B1401
S1130B80055FA60027095C08914B26F60C20010D91
S1130B9039BD1F55DF10BD1F50040EDE10D64BE1CA
S1130BA005260E9D09260ADE063C053DE702522075
S1130BB0033DE6E8DE064505DE10D64BE705040EE8
S1130BC083093996548510272330140D960236DF95
S1130BD0008602BD411A2711A609851027041409AD
S1130BE020ED329702EE022005BD41F2DE4D2702D0
S1130BF0EE07DF0E39BD1F503C05BD1F604505BD26
S1130C001F553C05BD1F65450539BD1F603C05BD2D
S1130C101F504505BD1F653C05BD1F55450539865B
S1130C201536BD1F5025093DE6E84505847FA70418
S1130C303239B6E1C626037E01DAB6085A27059191
S1130C407C2701397F030BBD123B9F008617BD41F2
S1130C501A2603BD41F20F7F085AFF02B7BC02B93E
S1130C6027448D53964B263EBD1C1F2539BD1F5569
S1130C702534FF0318BD1F60252CFF031ABD1F6513
S1130C8025243DE6E84E4505847FA704FE031A4E5D
S1130C904505A704FE03184505A704CE1A99FF08C5
S1130CA05B967CB7085A320E964B260AB6030B277E
S1130CB005974BBD2013398681B70312CE032DFF50
S1130CC0030FBD0DC633C115276EBD0EA8BD119D02
S1130CD0253DBD1D80263133C11126EABD0EA83342
S1130CE0BD0EA8BD119D254D2B4B4D2648C17F221D
S1130CF044F102CE233FF702B6F602CEF102B62744
S1130D00C45C4FBD1D8027F1C615BE02C32029BD9A
S1130D100F2B2721FE02D48C00082619FE02D2BD17
S1130D2011D18D5C26E2FE02D21408FF02D2BC026D
S1130D30D026EC20907E125D37B3030F4CFC0403E5
S1130D402DC303017B16BD1F5A25332B07B30301A3
S1130D509D0523158614911723029717FF02F8BDEA
S1130D604048964B2618FE02F8B303018307FC00A3
S1130D70EE0B8620A70214056BCE032D6BE33239EC
S1130D808D197A03122607865AB7030B200CFE032B
S1130D900FE7006F0108FF030F4F392B244D262165
S1130DA05D271EC17F221AF702CEC1272512C1304A
S1130DB0230CC15B250AC15C2304C16E2602C6FF55
S1130DC0397E125DB6E1C626037E01DA62499F00D0
S1130DD08617BD411A2603BD41F29E00BD4012DEB6
S1130DE000A601812227F58118223B27EF811727CE
S1130DF03581032731810226E3A60A81072627A627
S1130E000D810E2621A60F8102270481FF261707D4
S1130E100F970005028304960014FEDF0033759ECD
S1130E20006B37066549BD202DC65AD74B6549B6B8
S1130E30E1C626037E01DA861536B6085A270491E0
S1130E407C270ABD203FC65AD74B7E1EEEBD1F55D8
S1130E502BF1E60627EDF702CEEE07FF0301BD1FD7
S1130E60502BE0FF031ABD1F5A2BD8FF031832BDC5
S1130E70123BBD10E32723BD10E3271BBD1243F62D
S1130E8002CEBD112DFE031A3C05FE03074500F6F4
S1130E900309BD113920577E125DBD1033FF02FADC
S1130EA0BD1243FE0318EE0B1404B602CE81FF26D6
S1130EB004866E20011CC702C700BD19DFCE1EF0D8
S1130EC08D76DE028D7FCE1EF78D6DFE0301BD197A
S1130ED0DF8D72CE1F0A8D60FE031A14058D408DBE
S1130EE064B602FA2605BD1A7C2003BD10BF323950
S1130EF04552524F522000204F43435552524544CD
S1130F0020494E204C494E4520002C205245504546
S1130F10544954494F4E20434F554E54203D003CB4
S1130F20004B05DFCE02B6DF02CE0014DF04BD4065
S1130F3087DE046F01DE023921A600182706BD1AD8
S1130F40570820F439A6002706BD1A570820F63999
S1130F505F863120135F8632200EC6108633200848
S1130F605F863420035F86359707861536963536B7
S1130F7036860E36DE0E6B36DE106B36D735967C33
S1130F808A809706BD41EF3275DF103275DF0E326D
S1130F9032329735DE060DD64B26010CA6043139C4
S1130FA0BD19F80D434F4D4D414E44200039BD1934
S1130FB0F820464F52204552524F522048414E4449
S1130FC04C455200DE4D2731EE0727176BBD19F84B
S1130FD020494E204C494E452000757F02FABD1928
S1130FE0D22016BD19F820494E20494D4D4544499B
S1130FF0415445204C494E4500BD19F8202D204D43
S9030000FC
