S00B00004441544120492F4FF3
S1130000FFFFFFFFFFFFFFFFFFFFFFFFFFFFFFFFFC
S1130010405201A601AE01BE00000000004152534F
S1130020495A4503C941534B4552521E2F42494E2A
S1130030494E20040442494E4F5554049A434C52AD
S11300405245501C1F434F4E46494704D244434C2B
S11300502020200CFE44454348455805EF554E44A6
S11300604546200C05455252484C50063E455252D6
S11300704C49531C324745542020200CE447544C2F
S11300802020200CFA48455844454309ED4946438D
S11300902020200D1F4C495354454E0D234C4C4FEA
S11300A02020200D2B4C4F435320200D2F504F4C1C
S11300B04C20200A3E5050452020200B3A505044FA
S11300C02020200B2450504F4C4C200B8550505571
S11300D02020200BAE5052495354520BB352455476
S11300E05259201DC45242494E20200BE952574C0C
S11300F05320200D3F5344432020200D4E53525192
S11301004F46460BE25352514F4E200BE853544294
S1130110484C50063954414C4B20200D52554E4CFE
S11301202020200D68554E542020200D6D5641523C
S1130130434C520C215641525345540C24564152BF
S11301405453540C965742494E20200CB7564C49F0
S113015053542015BD4E45575441500253544E41FB
S11301604D452020674C4153542020215B54484581
S113017041444521DB54415045494E230A544150E2
S113018045415022EB5452494D202022B000FFFF3C
S1130190FFFFFFFFFFFFFFFFFFFFFFFFFFFFFFFF6B
S11301A0FFFFFFFFFFFFB6E1C626038D1939B6E155
S11301B0C6270A967CB1085A26037F085A39B6E145
S11301C0C626EB8D1539965327037E02528D06CE33
S11301D032C8BD403C860CBD4033BD19F80D0D54EA
S11301E06869732052313420526F6D205061636B03
S11301F0206973206E6F7420636F6D70617469621F
S11302006C652077697468207468652034303532F1
S1130210206F722074686520343035342E0D506C94
S11302206561736520636F6E7461637420746865BF
S1130230206C6F63616C2054656B74726F6E6978A7
S113024020736572766963652063656E7465722ECA
S11302500D0039BD10E02716FF0307F70309BD1091
S1130260E3260BFE0307FF0304DE41FF0307BD1271
S1130270438D22F603172602D74BFE03042715BD30
S1130280114AFE0307270D5FB6FF18851027015C8E
S11302904FBD11403996708A0197708D6C7F03179A
S11302A0D670964B8139270A7C0317C50126037C37
S11302B00317C4FED77039BD41E9BD4210B6FF181B
S11302C0B6FF1B2B31B6FF2A85082620B6FF1985F9
S11302D04027ED86FABD4042B6FF1B85C02617BDF8
S11302E041ECBD41FE8629BD41E94F39BD419E86A1
S11302F039974B86FF39D6BAC5042705BD03842038
S1130300058DDCBD41C2867F39B6FF2A85082601EA
S1130310397F00B7B6FF188802B7FF188802B7FF05
S113032018B6FF2A850826C7CE0005BD403CBD404F
S1130330DE4F97709782968185042705BD41C220C0
S113034040B6FF1A86A7BD02B72636BD41D1964BEB
S1130350262FBD420D20F4CE011FDF91CE021E9642
S11303608185012703CE019EDF9386FF97BCBD41A3
S1130370B0240E96BC270A7F004BBD4015964B2730
S1130380B07E4030BD41FE7F0070F6FF1ABD419E35
S1130390070F3686F794BABD41E9F6FF1AB6FF2A6D
S11303A085082612B6FF1B85C027F2CE0005BD4086
S11303B03CB6FF1B2BE4BD419E3206F6FF1ACE006D
S11303C000DFBB7F00B77E41FEBD10E02733BD10C8
S11303D0E3272EBD0F972612FE02FEA601810A26F0
S11303E0205FBD114A4F5F7E1140FE02E0A605E684
S11303F0067F02F5BD1131FE02E0A607E6087E1174
S1130400407E125DBD123BBD1287BD40CF964B2787
S1130410037E1261C1252708966A27EEC60320755C
S1130420966A2704C606206D7F0311BD1304966ADD
S113043026F237BD1304327D006A26E8C00182002B
S11304402404C608204FB70312F70313BD12C9FED4
S113045003122719966A260EC605F7030BBD13046B
S1130460270B966A27F7C606F7030B2011966A2610
S1130470F5BD1304B603112705C604F7030BB60331
S11304800E9A6A2603BD1304BD131DBD136232BD4B
S1130490121D7E1266F7030B20F1BD123BBD140C36
S11304A07F0315B6030A2707BD1440261B2005BD8C
S11304B014592614B6031140BD157AB6030E2B0544
S11304C0863BBD157ABD159DBD136232BD121D7EDE
S11304D01266BD0F942712FE02FEA60181112604A6
S11304E008FF02FEBD10E326037E125DBD119D24AC
S11304F006BD1243C6014F2BF0B702CBF702CCFE68
S113050002E0A60726E3E60826015CF702C9CE004E
S113051000FF02C7BD126FBD0D6D964B7F004B4DA2
S113052027037E05CB8620B702BD8601B702C586A8
S1130530FFB702C6BD40F6BD400FC63FBD40D2BDA9
S11305400EFFBD400CFE02CB260508860120058661
S11305500DF6FF0CF6FF03C4302750F6FF1857259D
S1130560F34A26ED0926E8FE02E2BC02DE2775F610
S113057002C5BD116AB602C981012710FE02E21448
S113058008BC02DE275EF602C6BD1158FE02C7088B
S1130590FF02C7FE02E2B602C9BC02DE2746140807
S11305A04A26F6FF02E2B602C62B12B602C9810140
S11305B0270BB602C64C812027037E0531B602C53F
S11305C04C811F27037E052CBD0D68C602FE02C7A1
S11305D027170FB602C7F602C8FE02E0A705E70612
S11305E00E5F2005BD0D68C601BD114A7E1266BDB1
S11305F0123BBD103331271DFE02F8A6052606E680
S113060006C1042302C604F702BE860410B702BF63
S1130610BD119D24127E125D85F027037E12515870
S1130620495849584958497A02BF2AEC36BD1095B1
S1130630327A02BE26E97E10BFCE09162003CE060A
S113064097FF030FBD123BBD10332705BD119D2439
S1130650037E125DFE030F8C0916212602C4EFE10E
S1130660012604A1002707EE0226F41820251814F9
S113067004FF02EA090921EE0018FF02E6FE02EA7D
S113068021A60018BD10A3FE02EA08FF02EABC027C
S1130690E626ED317E10BF006506A9434F4D4D415E
S11306A04E4420484541444552006606BD484541F4
S11306B04445522044454C494D495445520067062F
S11306C0D1434F4D4D414E4420415247554D454E27
S11306D054006806E7415247554D454E5420444561
S11306E04C494D49544552006906FF4E4F4E2D4E1C
S11306F0554D4552494320415247554D454E5400AE
S11307006A07134D495353494E4720415247554DAB
S1130710454E54006B0735494E56414C4944204DD3
S113072045535341474520554E49542044454C496F
S11307304D49544552006C0747434845434B535574
S11307404D204552524F52006D075A425954454369
S11307504F554E54204552524F5200C90782434FC1
S11307604D4D414E44204E4F542045584543555419
S113077041424C4520494E204C4F43414C204D4F63
S1130780444500CA079E53455454494E4753204C90
S11307904F53542044554520544F2072746C00CB61
S11307A007B2492F4F2042554646455253204655DD
S11307B04C4C00CC07C753455454494E475320432F
S11307C04F4E464C49435400CD07E0415247554DE6
S11307D0454E54204F5554204F462052414E4745D4
S11307E000CE080147524F555020455845435554B3
S11307F04520545249474745522049474E4F524598
S113080044012D0814494E54455252555054204623
S113081041554C54012E082453595354454D2045F9
S113082052524F5201910830504F574552204F4E6B
S1130830019208464F5045524154494F4E20434F70
S11308404D504C455445019308565553455220523A
S113085045515545535401940864504F574552200F
S11308604641494C0195087752455155455354200A
S1130870434F4E54524F4C019608895041535345AF
S11308804420434F4E54524F4C0064089A434F4DFA
S11308904D414E44204552524F5200C808AD455870
S11308A045435554494F4E204552524F52012C084E
S11308B0BF494E5445524E414C204552524F52016D
S11308C09008CF53595354454D204556454E540135
S11308D0F408E4455845435554494F4E2057415276
S11308E04E494E47025808F8494E5445524E414C21
S11308F0205741524E494E4702BC091244455649BD
S1130900434520444550454E44454E5420455645A4
S11309104E5400650000000009254E554C4C2053F0
S1130920544154555300410931504F574552204FBB
S11309304E004209474F5045524154494F4E2043BF
S11309404F4D504C4554450043095755534552208B
S1130950524551554553540044096A524551554531
S1130960535420434F4E54524F4C0045097C504140
S11309705353454420434F4E54524F4C0061098D0C
S1130980434F4D4D414E44204552524F520062094F
S1130990A0455845435554494F4E204552524F5255
S11309A0006309B2494E5445524E414C20455252BF
S11309B04F52006409C0504F574552204641494C9C
S11309C0006509D5455845435554494F4E20574174
S11309D0524E494E47006609E9494E5445524E412C
S11309E04C205741524E494E4700410000BD10E093
S11309F02746BD0FE627417F02B64FBC02E62738E3
S1130A00E60008C14025042732C007C0302B2CC1A2
S1130A100F222885F026247802B6497802B6497850
S1130A2002B6497802B649FB02B6F702B6BC02E642
S1130A3026CEF602B67E112E7E125D7E1259BD12AE
S1130A403B31BD0DA5BD10E32705BD10E326037E94
S1130A50125DBD119D2406BD12434FC6052BF0B790
S1130A6002CBF702CC7F02CD7F02CEBD126FBD1246
S1130A70227F008DC618BD0D00BD0DC68640B7028D
S1130A80BDBD40F6BD0DEAB602BB2B1E7C02CEB640
S1130A9002C52BEDBD40EABD400C8D3225E3B60204
S1130AA0CEB702CDC54027D92007F602CD50F702B4
S1130AB0CEBE02C3BD1222C619BD0D00BD12667F93
S1130AC0004BF602CEBD114AD68D4F7E11408D3FAC
S1130AD0FE02CBC60DB6FF0C0FB6FF0084389AFC9D
S1130AE08520261D97FC0EB6FF184725EB5A26E5F0
S1130AF09C4127DF0926DC0F96FC8A0197FC0E0D2A
S1130B003984DF97FC0EBD40C0976AD78D0C390736
S1130B100FD6FCC5012706C4FED7FC2005C602F784
S1130B20FF030639BD126FBD0D72C605BD0D00C6AB
S1130B3070BD0D00BD121D7E1266BD123B31BD0D90
S1130B40A5BD119D253C2B375AF702CEC008820063
S1130B50242DBD119D252BF702CDC0028200241F38
S1130B60BD126FBD0D7FC605BD0D00F602CD5858F0
S1130B7058FB02CECB60BD0D00BD121D7E12667EF9
S1130B80124D7E125DBD126FBD10E026037E125D14
S1130B90BD400F868EB7FF03C6105A26FDF6FF062A
S1130BA0860EB7FF03BD112DBD40C97E1266C61562
S1130BB07E0D00BD123B31BD0DA5BD0FE626037EA3
S1130BC0125DBD126FBD0D7FFE02EA200AE600BD74
S1130BD040D2964B260608BC02E626F1BD121D7EC5
S1130BE01266DE41FF03BF3939BD123BBD1287CE09
S1130BF0FFFFFF0312BD12C9BD131DBD136232BD39
S1130C00121D7E1266BD10E02714FE02FEDF00BD39
S1130C104213D64B27057F004BC6017E112D7E1251
S1130C205D4F200286FFB702C0BD119A25657D0283
S1130C30C02B024353B702C1F702C2FE02FEFF02F9
S1130C40C3BD10E32721FE02C3FF02FEBD119D2593
S1130C50427D02C02B08B402C1F402C22006BA02CB
S1130C60C1FA02C27E112EBD0F2B2727BD11D17DE3
S1130C7002C02B08B402C1F402C22006BA02C1FAAF
S1130C8002C2FE02D2BD116B1408FF02D2BC02D014
S1130C9026DA397E125DBD10E02719BD119D251499
S1130CA0B702C1F702C2BD119D2509B402C1F40205
S1130CB0C27E112E7E125DBD123BBD140C7F031546
S1130CC0B6030A270ABD14D8260DBD14912008BD09
S1130CD0150F2603BD14A2BD159DBD136232BD12AE
S1130CE01D7E1266C608F702B5BD126FBD0D72F601
S1130CF002B58D0CBD121D7E1266C60120E8C61415
S1130D00F702B5964B8145260139BD126FBD400FE0
S1130D10BD40F6F602B5BD40D2BD40C97E127FBDCE
S1130D2040C339BD126F8D4A7E1266C61120D1862A
S1130D3010B7FF038604BD40428690B7FF0339BD58
S1130D40126F8DF58DE58D2ABD121D7E1266C604C7
S1130D502094BD123B318D4DBC02FE27037E125DF3
S1130D60BD126F8D2E7E1266C63F7E0D00C65F7E5D
S1130D700D00BD12298D2EBC02FE27037E125DBD1F
S1130D8040F68D42C620F702BD8D5FF602BB27F9FF
S1130D907E400C8D31C640F702BD8D4EBD40EABE8B
S1130DA002C37E400CFE02B9FF02B7DF00201081AF
S1130DB0112607FF02B708FF02FEBD4012DE00A69F
S1130DC001811726EA3962497F02BB7F02BCBF0258
S1130DD0C3FE02B9861536200AA60136DF00BD40DF
S1130DE012DE00BC02B726F165496249F602BC2B4B
S1130DF05B33C1152607C6FFF702BB654937BD4003
S1130E00F633BD0EA8BD119D2538BD0EE1F702C510
S1130E10C6FFF702C633C111272137C115271E3378
S1130E20BD0EA8BD119D2510BD0EF3F702C633C13A
S1130E3011270837C11527057E125D8D6BBD0EFF86
S1130E406549BD0F2B27F186FFB702BCFE02D2BD58
S1130E5011D1BD0EE1F702C5C6FFF702C6B602D432
S1130E602607F602D5C108270EFE02D21408BD11CA
S1130E70D1BD0EF3F702C6B602D4F602D5FB02D3F7
S1130E80B902D2B702D2F702D3FE02D2BC02D026F4
S1130E90ACFE02D8FF02D2FE02D6FF02D0FE02DA76
S1130EA0FF02D47F02BC2086CE0EC717211D182B4B
S1130EB03C5086FFFB02B8B902B7B702B7F702B8D5
S1130EC0B702FEF702FF39010509031703030305FF
S1130ED00509090903030301010104010380050352
S1130EE0002B0D4D26075D2704C11F25057E125DCD
S1130EF0C6FF392BFB4D26F5C12022F127F239F626
S1130F0002C52B23BD400FF602C5FB02BDBD40D276
S1130F10D64B2614F602C62B09CB60BD40D2D64B65
S1130F202606C6FFF70303397E1261FE02FEDF00C8
S1130F30A601810A265AEE02A60484202752BD4245
S1130F4013D64B2704BE02F239FE02D2FF02D8FEAA
S1130F5002D0FF02D6FE02D4FF02DADE02EE0B1448
S1130F6005FF02D2FE02FEEE041405FF02D0FE02CB
S1130F70FEA608E60926044D26015C58495849583E
S1130F8049B702D4F702D51409FF02FEFE02D23992
S1130F90CE000039BD1229FE02FEDF00A601810A3F
S1130FA026EEEE02A60484A0812026E4FF02E0BD22
S1130FB0412C1405FF02DCFE02FE1409FF02FEFEB2
S1130FC002E0A609E60AEB0CA90BB702DEF702DF82
S1130FD0EE0B1405FF02E47F030086FFB702F5FF62
S1130FE002E239BD1229FE02FEA601810127158104
S1130FF009271181082699DF00BD4213D64B270427
S9030000FC
