S00B00004441544120492F4FF3
S11300007F0008BDCE7781102610DE14EE046D004B
S113001026C008FF02B7862720C0FE02B5FF02B73C
S1130020DE41FF02B520EF8FE08FE08FE08FE08F9D
S1130030E7E60008DF10CE02B5DF0CDE10DF10DECD
S113004010A60008DF10DE0CA70008DF0C5A26EF0C
S1130050398630A602810A2705860E974B398659C0
S11300609753BD8F6426F686109797BD92612660DC
S1130070CE02B5BD90DECE02B5DF02CE02C4DF04EF
S1130080BD90D4CE002EDF02CE006FDF049F2EBDC4
S113009090D4CE0071DF02CE0081DF04BD90D4CEB7
S11300A000A4DF02CE00B4DF04BD90D4CE00BFDFD5
S11300B002CE011EDF04BD90D4CE03B9DF02DE45BB
S11300C0DF04BD90D4DE2EDF02DE3FDF04BD90D41A
S11300D0BD922C39BD8928DE029C0426F73986019D
S11300E08D24D63F96408D1BD64796488D15DF024A
S11300F0CE046DC609A60008DF04DE028D08DF0207
S11301005A26F2E70008A7000839BD8F6427013991
S1130110BD926D27037E91B3BD928026F8CE02B5C1
S1130120DF16CE02C4DF04BD91BACE02D3BD90DE89
S1130130CE02B5DF02CE02D3C60EA60008DF04DE6F
S113014002A100267F5A26F28E0319CE002EDF1656
S1130150CE006FDF04BD91BA2670CE0071DF16CEDB
S11301600081DF04BD91BA2661CE00A4DF16CE0063
S1130170B4DF04BD91BA2652CE00BFDF16CE011EF5
S1130180DF04BD91BA2643CE03B9DF16DE45DF0492
S1130190BD91BA2635DE2EDF16DE3FDF04BD91BAEF
S11301A026289E2E30EE03BDAA3E5F86086F000807
S11301B04A26FABD922CBDCBBF39BD8AB3DE169C4C
S11301C00426F739860E974B20E9BDBC30CD424951
S11301D04E415259202050524F4752414D20202029
S11301E042494E415259202050474D2053415645D3
S11301F02020534543524554202093EA939FC43111
S113020093EA936893EA9318C43193EA936893EE5C
S113021093B9C43193EA9368F60FDCA8C431C431AE
S11302209368F5C093CBC431C4319368968E810F23
S11302302717811227138602978E7F006ACE920EAB
S1130240BD92F8BD043E964B3986FFDE98A7008622
S113025002978E7F006ADE9809FF0095BD92B52053
S1130260D5CE920486128D0A26157E92E08603CEA0
S113027091FA978E7F006ABD92F8BD043E964B3981
S113028086809A8F978F860E978EBD9392CE921802
S1130290BD92F8BD043EBD9392DE98A6008140272E
S11302A0088160260B860197800808DF98964B39F1
S11302B08637974B39964B270139968E8102270A48
S11302C0DE93DF959687847F200496878A809787BC
S11302D0860F978EBD9392CE9222BD92F8BD043EB6
S11302E0BD9392DE986F018660D67B26028640A776
S11302F0000808DF98964B399690270E811E230D2F
S11303008121270B8127270A220B8608394F39863A
S113031002398604398606398D78BDE00C964B2760
S113032001398D6227429682C501263C9680263D7E
S11303308D3F263496708502262ECE0127DF0CCE03
S113034091CEC610965381592603CE91E0BD903DBF
S1130350967B270DCE0139DF0CCE91F2C608BD90F5
S11303603DBDDBC8BDDD53398637974B3986262022
S1130370F996818507399682851C27088460882030
S113038026024C394F399682851026F0850826F4CA
S113039020E4CE011FDF98DF91CE021EDF9339BD2A
S11303A0E00C964B2701398DCD27BD8DC426B99617
S11303B0828406810626B120D9964B2607DE98DF73
S11303C085BDDD18BDCBBF7F007039968736BDDD96
S11303D03F324D2C06967084FD9770DEB5260A9642
S11303E06E8A80976E8637974B397F008F398DFAE6
S11303F0DE91DF953900FFFFFFFFFFFFFFFFFFFFE7
S1130400FFFFFFFFFFFFFFFFFFFFFFFFFFFFFFFFF8
S1130410FFFFFFFFFFFFFFFFFFFFFFFFFFFFFFFFE8
S1130420FFFFFFFFFFFFFFFFFFFFFFFFFFFFFFFFD8
S1130430FFFFFFFFFFFFFFFFFFFFFFFFFFFFFFFFC8
S9030000FC
