S00B00004441544120492F4FF3
S11300004051882A882F882F0000881E0049444EBA
S113001020202088471205040E010C8D00000000EA
S113002000008835898D88CB8C38967CB7046A8625
S113003040B705CE39B605CE85402606CE05CE7E20
S1130040B6EB8624974B3930860AA102261C861704
S1130050A10B2616EE03A6048520270EDF00EE056D
S1130060DF08DE00EE07DF042604BDD1650CCE00F8
S113007001DF06DF0ADE00EE0B090909DF02DE02FA
S11300806F086F096F0A6F0B6F0C6F0D6F0E6F0F98
S1130090BDAA3BDF02DE069C0A2610DE028604A708
S11300A0008601A7018680A702DE069C04270508B6
S11300B0DF0620CACE0001DF06DE0A9C08270508F9
S11300C0DF0A20BADE008624A704393233D7179713
S11300D01630EE01DF04EE0BBDAA3EDF02DF063070
S11300E0EE05DF1030EE07DFC430EE0ADF089C04B3
S11300F02723970CEE0BBDAA3EDF0630EE0E9CC400
S1130100260730EE109C102719C6087E89B7DE0238
S1130110BDB6EB204E7F000CDE02DF04DE109CC473
S113012026E7D6119610584958495849D70F970EC3
S1130130DF00DE06DF08DEC4DF0A960C26D09C0052
S11301402612D60F960EDB059904D7059704D7031C
S11301509702202ADE02BDB6EBDE08BDB6EBDE0256
S1130160BDB70FBDAA3BDF02DE08BDB70FD60F96A1
S11301700EDB099908D7099708DE0A0926BADE06B4
S1130180BDAA3BDF06DE000926A65F202A3233978C
S113019016D717C6084FCE05CEA700085A26FACEA2
S11301A089A8FF00597EBF8BD64B260B30EE0AA6DA
S11301B007AB052710C60830BDAA3ABDAA3A35DEFA
S11301C016D74B6E00E608D703A6069702970411CC
S11301D02EE34F584958495849D7119710EE0BBD93
S11301E0AA3EDF00CEE950BDB6EB4F4CCE02B5D6E9
S11301F002A701085A26FACEE926BDB6EBDE00DFD7
S11302000ADFC4DF1496029708CE02B5BD044B275B
S11302104E96029709CE02B5BD044B2736DEC4A61E
S113022000970C847FA700E602272830E603270501
S1130230BDB7C02C1830BDAA3A35DEC4DF12BDB636
S1130240EB960C970DDE08DF06DE0ADF14DEC4969B
S11302500CA700DEC4BDAA3BDFC496094A26B4D667
S1130260119610DB0B990AD70B970AD7C597C4963A
S1130270084A26939607CE02B55FBD0457CEE950CF
S1130280BDB6EBDE12BDB70FDE14DF08DF0E30960D
S11302900DA701D606D0072743A60A8880A70ACE51
S11302A00006D602D0074F465624029B030926F7C0
S11302B0DB019900D70B970AD7099708DB1199102E
S11302C0D70D970CDE0AA600DE0EE600A70008DFB5
S11302D00EDE0AE70008DF0A9C0C26EAD606CE02E8
S11302E0F5960448BD04574CD607BD0457CE037D8C
S11302F0BDB70FBDB6EBBDB4AE96039705DE08DF00
S11303000EBDB6EBCE037DBDB6EBBDB3D3DE0EBDE5
S1130310B70FBDAA3B7A000526E596029705DE00D5
S1130320DF0AD607D10527624F50DB0258495849E6
S11303305849DB0B990AD70D970CCE037DDF0EC607
S113034008DE0CA6006F0008DF0CDE0EA70008DF35
S11303500E5A26ED96039718DE08DF0EDE0ADF0C30
S1130360DE0CBDB6EBDE0EBDB6EBBDAA3BDF0ECE9A
S1130370037DBDB6EBBDB4AEBDB23EDE0CBDB70F62
S1130380BDAA3BDF0C7A001826D6D6119610DB0BDB
S1130390990AD70B970A7A000527037E8B227A00E5
S11303A00427037E89F796029704CE02F5DF06EE52
S11303B002DF08960891092759D602D705D0084FBD
S11303C0584958495849DB019900D70B970AD60276
S11303D0D0094F584958495849DB019900D70D971E
S11303E00CDE0ABDB6EBDE0CBDB6EBDE0ABDB70F04
S11303F0DE0CBDB70FD6119610DB0B990AD70B97FD
S11304000AD6119610DB0D990CD70D970C7A0005BE
S113041026CFDE060808DF067A00042692CE05CE33
S1130420D64B270ECE037DC640DA6DD76D861F9757
S11304304C5FBDB70F7E89B73233D717971630EEAE
S113044001EE0BBDAA3EDF0C30EE05DFC430EE0733
S1130450DF1030EE0AEE0BBDAA3EDF0030EE0EDFF9
S11304601230EE109CC4262230EE13EE0BDF06BDD4
S1130470AA3EDF0E9C00271B9C0C271730EE179C0E
S113048012260730EE199C10270DC60830BDAA3A73
S11304907E89B8C61E20F530EE154FA704099C06C8
S11304A026F9DE00DF06DE0CDF04DEC4DF08DE0E24
S11304B0DF02DE10DF0ADE02BDB6EBDE06BDB6EB00
S11304C0DE04BDB6EBBDAA3BDF04BDB4AEBDB24590
S11304D0DE02BDB70FBDAA3BDF02DE0A0926D5DE68
S11304E006BDAA3BDF06DE080926C1DE02DF0EDEFA
S11304F01209DF1226B0D64B2092FFFFFFFFFFFF49
S1130500BDA9E7BDCE70BDCE77BDCE778100261BD9
S113051030BDB1A22615A603E6044D2706C01E82EF
S11305200020F7C11E250BC01E20F8860C974B7EB9
S1130530A9FDD7059704DE045F8C00002707CB12C2
S113054089000920F4CBBC898DD705970430BDAA56
S11305503308DF08BDAA3ADF0AEE02EE0BBDAA3E5D
S1130560DF0230EE25EE0BBDAA3EDF0E86089706AD
S1130570DE0A8D18DE088D147A000626F3DE0EDFFF
S113058002DE0A8D07DE088D037EA9FDC609A600DA
S113059036095A26F9DE04A60008DF045F37373728
S11305A037373686023686043636BDB245DE02C695
S11305B0083232A700085A26F9DF023960BF9FBF0C
S11305C0DF40CF60806080408060306020406EC536
S11305D0ACB7D02DC7507960724179602B71145536
S11305E07CC7B7ADBD1EBC42726265457262298389
S11305F00E6C8BC6BFA0A813AD376D665A4C6D66E2
S11306002C950C849AC2C493900D9D2F686A505502
S1130610686A32A6109CA7BBC784780C8C2A6470C5
S1130620486064703CB518B3B2B2C67560107A2ADB
S11306306176436C617648C225C7BCA6C2664A1976
S1130640682D607C4079607C57CC36D8C299BC59FF
S11306503627573360834086608368D24AE6C68A69
S1130660B24D2538483D6189439361897AD560EF5D
S1130670C77BA744184C3C4A648F489F648F8CD531
S113068078F3C46C9A3D10633259689550AA689502
S11306909DD090F2BF5F8B390C7B2C6A6D995AB355
S11306A06D99ADC8A8ECB7527C380E93297C729D25
S11306B065BA729DBCBDBDE1AC486E3A14AA2B8EDE
S11306C0799F72BE799FC7AFD0D29F40604020BF50
S11306D0309F809F80BF809FCF9FDFBF913A534858
S11306E02FD238AF869F8DBE869FD48EEBAA8338D7
S11306F0485242E143BD8D9D9ABA8D9DD67CF193BB
S11307007439405F57EC52C89299A5B39299D36A51
S1130710F37B653D3B6C6FF262D09795AFAA9795DA
S1130720CD59EF635844387B87F373D59B90B7A0BA
S11307309B90C34AE74C4D4D398A9FEF85D59E89DE
S1130740BC939E89B73DDA3843593D99B5E697D2B3
S11307509F83BF869F83A833C9273D6643A6C9D814
S1130760A8CC9F7CBF799F7C972DB51939754DB264
S1130770DAC7B7C29E76BC6C9E76852A9F103884F1
S113078058BBE7B3C3B59B70B7609B70732A870CE3
S11307903B9365C2EF9CCDA6976AAF55976A622FCB
S11307A06F0D40A074C6F384D3959266A54C9266EF
S11307B05237571348AD83C7F16CD6838D629A457F
S11307C08D624342421E53B791C5EB55D471866086
S11307D08D41866038502F2DFFFFFFFFFFFFFFFF85
S11307E0FFFFFFFFFFFFFFFFFFFFFFFFFFFFFFFF15
S11307F0FFFFFFFFFFFFFFFFFFFFFFFFFFFFFFFF05
S9030000FC
