S00B00004441544120492F4FF3
S1130000FFFFFFFFFFFFFFFFFFFFFFFFFFFFFFFFFC
S11300104052173A00000000000000000045444927
S1130020544F521F2C008802DF8902DB8A02DB8DC9
S113003002DBEA0360CA0364EB0371EC033FED03E4
S11300406EE4033BC602BFC703AAC803AEC903B12B
S1130050B00311B102BFB202BFB302BFB402BFF01A
S113006002E3F102BFF202BFF302BFF402BFF602E1
S1130070BF4C4953540008C15345415243480018EA
S113008018494E5345525400090B44454C455445B8
S11300900009BE4D4F5645000A5A4E4C5345415235
S11300A0434800181252454E554D424552000B39F3
S11300B0434F5059000A56415050454E44000BBB23
S11300C04F4C44000BAF53574E000DBE53415645A1
S11300D0000DC25752495445000DB746494E4400DD
S11300E00AB7534B4950000D654D41524B000AF37A
S11300F04C4153544C494E45000F01534B49500059
S11301000D6543415244001E10534F5254001C8C41
S1130110524556534F5254001C8955505045524332
S1130120415345001E024C4F57455243415345002D
S11301301E0643415345001D9F5052494E54000F23
S1130140C5494E50555400105A5F000A955D000A87
S11301509B7E000AA723000AA1001818201308C1D7
S113016020130DC221010DBE21010DB721010BAFDA
S113017021040BBB21040AB7211B0D65210D0FC5FA
S1130180200C105A210D0AF3211C1E10201300000C
S11301901415121A16FF071C1BFF271003E800642E
S11301A0000A000107202C3A3B2E3D0D2B2D303147
S11301B03233343536373839204C696E65730D0067
S11301C020436861726163746572730D0020467226
S11301D065650D00547970652022432220746F20D8
S11301E0636F6E74696E75650D0041534349492010
S11301F0202054455854202020202020021002148E
S11302000225023A0249025002590267026F027D36
S1130210537271004C696E65202320746F6F206CDB
S113022061726765005465787420627566666572EC
S1130230206F766572666C6F770051756575652001
S11302406F766572666C6F770053796E74617800AF
S113025053656D616E7469630044657669636520F6
S1130260616363657373004D542066696C65004473
S1130270657669636520617420454F460042756662
S11302806665722061636365737300202D20657257
S1130290726F72206E756D626572200045646974B8
S11302A06F72206572726F720D00FF280002B20037
S11302B00000BD409F96768180260139162D037E6D
S11302C0423DCE00268C007127F121A1001827049D
S11302D0140320F121EE01180E6E00C47F20E0C645
S11302E0F120DCDE60C60A862009A10026055A2614
S11302F0F820028D04C6F020C6DE608C03AD271002
S11303008620DE60C642A700085A26FAA700DF60EE
S113031039DE608620C6428C0263271B09A10026B1
S1130320165A26F8DF60D660D1622604D661D163FE
S113033022E309DF6220DAC6B02084860420028624
S113034003B706EC39B606EC81032E11BD0C40BD93
S113035040DE5FBD413BBD40307F06EC397E1F3837
S1130360860C2002861EBD41864FB70732397E4077
S113037066B6083B260E8620B7083BBAFF2AB7FFAD
S11303802A7E02BF812127037C083B969081212786
S1130390DCB6072CBA071726D47F071B7F0071BE73
S11303A006E9CE0000DF627E168C860120054F2010
S11303B0028602F600B027154D2707F606565C1193
S11303C0260B7F00B0B70656861E7E4186B70656BA
S11303D03960D74BBD16DC8659974B7E1F387D0597
S11303E09326037E04DE8108264E7D071B260F7D9F
S11303F007322605CE00002012CE01F8200D7D071D
S1130400322605CE00542003CE024C9CAA26287A1C
S1130410072D860BBD4186DEA88C00142609B6077D
S113042032438402B70732CE03E2DFAA7C00A5BDC3
S113043042287F00A5323239810D260C7D072D2CF0
S1130440337C072D8D3320F4810B2612CE02FF9CC2
S1130450A826E4F6073253C402F7073220D9CE03A4
S1130460E29CAA26D27D072D27037C072DBD418659
S11304703232200532327F072D96A8260696A981AE
S113048015230C860DBD41867D0732261820357D47
S1130490073226218602B70732B60656810127366F
S11304A0CE02FFDFA8CE01F8DFAA7C00A5BD42285A
S11304B07F00A5200F7F0732B606568102271786D4
S11304C01EBD41867D071B270CC606378620BD410D
S11304D086335A26F6397C00B0BD4093209B8108B0
S11304E027037E056ECEF736BD062C7D071B260D31
S11304F0CE00007D07322724BD0639201F4F5849FE
S1130500DE006B9700D7015849DB01990075DF00C5
S11305107D073227028B0837368608759CAA2D4D35
S11305207A072D860BBD4186CEF73AF6059D5A2BE8
S113053004080820F9EE00DFAAFF05A47C00A5FE4C
S113054005A66BBD422875FF05A6DFA87F00A5CED2
S1130550F72AF6059D5A2B04080820F9EE009CA8FA
S11305602C09B60732438402B70732323239810D7F
S1130570260F7D072D2D037E05CA7C072D8D502067
S1130580F1810B261ECEF72AF6059D5A2B04080886
S113059020F9EE009CA82ED5F6073253C402F707C3
S11305A03220CACEF73AF6059D5A2B04080820F9E2
S11305B0EE009CAA2EB77D072D27037C072DBD4195
S11305C086860BBD41863232200532327F072DCE1E
S11305D0F732BD062C96A8260996A92611102702E3
S11305E0250C860DBD41867D0732261B203B7D07E9
S11305F03226248602B70732B60656810126037EC8
S113060004D6CE0C00DFA8BD0639DFAA7C00A5BD48
S113061042287F00A520127F0732B60656810226A3
S1130620037E04D6861EBD41867E04C4F6059D5C09
S11306305A27030820FAE60039CE064BF6059D5AE0
S11306402B04080820F921EE00183907F3080207E3
S1130650DD07DA9C7F00AEBD4240172A037E081CEA
S113066036DE60099C622605BD02F9323681C62653
S113067019DE628C03AC270A8620BD421986F1BDBF
S11306804219867FDE62A7008620BD421933C10D60
S11306902643B6FF2A8A80B7FF2A7D071B27037EDD
S11306A00934CE0221DF91DF98DF95CE03B9DF93C1
S11306B086FF979086219797CE000DDF77CEFFFFB8
S11306C0DF79CE0071DF02CE0221DF629C6426094D
S11306D0CE0000DF623908DF62A600812027F7DE42
S11306E062BD15AD2777A6008140271681252639DE
S11306F086019777DF62B604449778FE0445DF7974
S1130700DE6208DF62BD12CDBD167A9790DE620903
S1130710A600813A2769BD12CDBD167A9797DE628D
S113072009A600813A2758203181612D08817A2E4B
S11307300484DFA70008DF62DE0221E60018271D1B
S113074008DF02112799216D001827030820F714E8
S113075003216D001827037E06C57E1864DE620936
S11307600908BD15AD26FA5D2F1309C106260E082A
S1130770A60081402704812526037E06E8DF627FE8
S1130780071ADE020908216D001826F921EE011866
S1130790DF0096902D3B273681202D352E05CE0186
S11307A09020658121260ACE0196D697265A7E107E
S11307B02681252D192E138C0FC52612D6972603B4
S11307C07E1012C11A26077E0FFE81282C037E1884
S11307D06BCE015ADF0221EE001827289C00270661
S11307E0DE02140420EEDE0221E60318969081FF57
S11307F0260821A6021897902006969781212D029B
S1130800D797D78EDE006E00D697C12027C32DBEA2
S113081021A600182DBB1127B50820F481EB261062
S11308207D071B260139860DBD4219C6EB7E0934AE
S113083081C626037E0660C4BFC1B42707C1B6279C
S1130840037E4219FE041ABC041C26013936B6077D
S11308501B8101260232397D071727193281F426BC
S113086002847F972086EB7C071720B0DE0ABD1236
S1130870C59620202E7D072C26E2860DBD4219CE7A
S11308800221DF62CE0000DF14DF1A7F0715BD12DC
S1130890CDBD124A32D64B26095CF7072C8D047F56
S11308A0072C3981F4270C81F62605BD12C52003D7
S11308B0BD12BDBC041C27F308DF0ADF02BD1A6A9F
S11308C039BD12CD0736BD124ADF0232062608DED4
S11308D062860DA100270FBD12CD0736DE6209BD69
S11308E015AD325D2D05FE041C200D062705BD1235
S11308F04A2002DE02BD12BDDF044F971B964B2730
S11309000139BD145EBD13BA7E1480BD12CD964B61
S1130910270139BD124ADF068601B7071BFE041CF6
S1130920DF02C606D7008620BD41867A000026F67F
S1130930C60D2043FE041C8680A7006F0108BC047A
S11309401E272708BC041E2721FF041CCE022120D9
S113095002DE629C642720A60008DF62FE041CA756
S11309600008FF041CBC041E26E78683974B09BDC0
S113097012C5FF041CC6EBCE0000DF62C10D260ABF
S11309808608BD4186863A7E41867F083BFE041C6C
S113099009096D002C079C022703FF041CB6071BE2
S11309A08102260232327F071B860BBD4033860D3F
S11309B0BD4033FE041CDF047F07157E1105BD1204
S11309C0CD273BBD124AFF0424BD12CD2605FE04EB
S11309D0242007BD124A96002603BD12BDFF04263B
S11309E0DF00964B270139CE0000DF62CE0424BD20
S11309F0426723037E186B8D08BD120D204A7E18B2
S1130A0064FE041CFF0428FE0424DF00CE0426BD7B
S1130A10426DDE08DF00CE041CBD4261FF041CCE23
S1130A20041EBD42672215BE06E9FE04280909FF1B
S1130A30041C8683974BBD16DC7E168CDE08DF0013
S1130A40DE0CBD4264DF0C39FE041C8680A7006FF7
S1130A5001A7026F0339860120014FB70715BD12A4
S1130A60CDBD124ADF02BD12CDBD124ABD12BDDF9B
S1130A7004BD12CDBD124ADF06DF00DE0208BD420E
S1130A806A220ADE04BD426A23037E186BCE00008C
S1130A90DF627E11058D16B7072F398D10B7073029
S1130AA0398D0AB70731398D04B7072E39DE62A6AE
S1130AB001CE0000DF62398D21BD12CD964B261484
S1130AC0BD4174BD4141BD0D2DBD167AD601BD4158
S1130AD03BBD4030CE0000DF62399690B107C92794
S1130AE00481212603BD0C409690812127EB3232EC
S1130AF07E0FC58DE5BD12CDBD167ADF10BD135B2B
S1130B004D27015CC1032202C603D7137F0012CE16
S1130B100000DF62B6FF18841027058638974B392A
S1130B20863DD682C460C12026F3BD4174BD0D2D1F
S1130B30BD4132BD40307E0D2DCE0001DF04DF0605
S1130B40BD12CD2705BD167ADF04BD12CD270ABD1F
S1130B50167A2603CE0001DF06BD12CD2705BD128D
S1130B604A2003FE041ADF02CE0000DF62CE270F04
S1130B70DF00DE04BD426A230E8682974BCE8000DE
S1130B80DF04CE0000DF06DE029605D60449594490
S1130B90CA80E700A701DE06DF00CE0004BD426183
S1130BA0DF04DE02BD12BDDF02BC041C26BF39FE19
S1130BB0041AFF041CDF06DF082014BD12CD26052D
S1130BC0FE041C2003BD124ADF06FE041CDF08BD20
S1130BD00CBAFE041C8680A7006F0108BC041E2703
S1130BE00608BC041E26258683974B09BD12C5FF43
S1130BF0041C969081212603BD40308D43DE08DF1E
S1130C0002FE041CDF047F07157E1105FF041CDEB1
S1130C1085A6009C952609964B26D7BD0D1420EF7A
S1130C2008DF85FE041C917827A89179270A917A18
S1130C3027DA847FA70020A909096D002DB120B20D
S1130C40B607C981FF2772B607CA8502273EBD0DC4
S1130C5022B607C981212607DE8508DF852047964D
S1130C609036969736B607C99790B607CB9797DE16
S1130C708508DF95968F847F978F96878A809787DC
S1130C80BD14BA7F0087329797329790861F919050
S1130C902205B107C92305BD0D4E2013969081216D
S1130CA0260D964B2609BD4174BD4141BD40308D92
S1130CB07C7F07CA86FFB707C939CE0000FF0062F0
S1130CC0B607CA8501270A9690B107C92703BD0C48
S1130CD040B607CA850227058687974B398A01B72C
S1130CE007CA8D3E96908121261696828515270582
S1130CF08688974B39851C27F78A409782BD4174B3
S1130D009690B707C97F008FDE859C912706DE93F6
S1130D1008DF9539968F8A80978FBD14BADE91DFEC
S1130D208539DE85DF008D05DE00DF8539CE021EC4
S1130D30B607C981212609968185012703CE019E24
S1130D40DF93CE011FDF95DF85DF98DF9139BD404A
S1130D500FBD40F6C65FBD40D2C63FBD40D2BD40C8
S1130D60C94F978F39BD12CDBD0CBABD167A273342
S1130D70DE8520088D9E964B263CDE91D678A60013
S1130D809C9527F00811270E917926F28D15BD0C3C
S1130D90408689974B39DF85DE00092706DF00DEB0
S1130DA08520DBDE859C952604DE91DF8596908187
S1130DB0212603BD403039CE0000DF1A200B860106
S1130DC020014F971A8601971BBD12CDBD124A967A
S1130DD01A26020808DF06BD12CDBD124ABD12BD97
S1130DE00808DF08DF00CE0006BD426723037E1833
S1130DF06B8D08CE0000DF627E0EA2BD0D22B60709
S1130E00C99190270781FF2703BD0C409697B70728
S1130E10CB9690B707C98121266CBD417496828513
S1130E202026058688974B39B607CA8502264B8546
S1130E3001270ABD4015DEB508DFB5203D96818542
S1130E40042637BD0D2DBD425EBD4177BD4165967B
S1130E504B260DBD41779682851C26088688974BC4
S1130E60BD425839C612CE0127DF0CCE01EABD427D
S1130E704CBD416EBD0D2DBD425886029A709770CF
S1130E8096828A409782B607CA8A02B707CA7F0049
S1130E908FDE85DF9539968F847F978FBD14BABD19
S1130EA00D2D964B260EDE069C0826199679DE95A6
S1130EB0DF85A700969081212603BD4030961B272D
S1130EC003BD0C4039A6002C28961A2721DF06966C
S1130ED078BD140EDE0608089C08270ADE06BD1538
S1130EE0478620BD140EDE060808DF0620B80896E3
S1130EF07808DF06DE95A7009C93279A08DF9520E3
S1130F00A5BD1539CE0000DF62DF04FE041CBC045D
S1130F101A2726BC041A2607DE0409DF04201ABD9A
S1130F2012C5DF02EE008C80002609DE0408DF040F
S1130F30DE0220DFDE02BD1547DE04270CBD40D5EE
S1130F40DE1F862BA700BD4255860DBD4063CE0033
S1130F5000DF02FE041ADF04DE04BC041C270CBDFF
S1130F6012BDDF04DE0208DF0220EDBD425EDE02B8
S1130F70BD40D5CE0021BD4255CE01B8BD4252BDC3
S1130F804258FE041CDF00CE041ABD426DDE08DFA9
S1130F9000CE0002BD426DDE08BD40D5CE0021BDAD
S1130FA04255CE01C0BD4252FE041EDF00CE041CD9
S1130FB0BD426DDE0809BD40D5CE0021BD4255CEEF
S1130FC001CD7E4252BD145EDE6408DF08099678C6
S1130FD0A700969081212714B107C9270FDF95DE5A
S1130FE062DF917F008FBD14737E1480DE62DF06A2
S1130FF05FD71AD71BBD0EA2CE0000DF62398D4E1B
S9030000FC
