S00B00004441544120492F4FF3S1130000D64B26098401270286FFB70443DE41DF6DS113001062398D3AB704448D35B704458D30B70441S113002046DE41DF6239BD0C408D238401368D1ECES1130030840148331B368D1684014848331BD64B44S11300402607D681C4F81B9781DE41DF62397F071AS11300501ABD12CDBD167A960139D690C121274515S1130060F107C926079697B107CB274AC11F220378S1130070BD0D4E8680978FBD14BA964B81812603A1S11300807F004BD690C11F2203BD0D4EBD1539CE46S11300900221DF91DE959C91270309DF95BD14BAF7S11300A0DE41DF6239F607C9C1FF270AD19027066ES11300B0868A974B20EABD0CBACE0221DF62DE9518S11300C0DF02DE62DF95964B2631DE85A6009C02B8S11300D02609DE95DF62BD0D1420E308DF85DE9579S11300E0917A27E6A70008DF958C03B92708917851S11300F02704917926D4BD0DA32091367F004B8D22S1130100F532974B39B6071B8A80B7071B7D071555S1130110260ADE069C04271B9C022717DE04DF0048S1130120CE0002BD426DDE04DF00DE02BD426A275ES1130130082311DE04DF06DF02B6071B847FB7073ES11301401B7E0A48DE08DF00CE041CBD4261251A6ES1130150CE041EBD426722197D0715260DFE041E1ES1130160DF00CE041CBD426D24078683974B7E16A8S1130170DCFE041CFF0428DE06DF00FF0426CE009CS113018008BD426125E4FF0424DF18BD161E8D5E00S1130190DE02FF0426DF00CE0008BD426125CBFF4ES11301A00428DE06FF04248D64BD15FADE02DF0098S11301B0FF0424CE0008BD426125AFFF0426DE08FBS11301C0DF00CE041CBD426125A0FF04287D071575S11301D02706FF041C7E1139BD16298D30DE08DF89S11301E000CE0006BD42612581DF067E11058D3CEFS11301F0FE0426DF08FE0428BF04289E00342004E1S113020009E600379C0826F8BE042820198D1DFE37S11302100424BF0424BE042634200433E700089CCDS11302200026F8BE0424DE16DF080639070F36DE82S113023008DF16FE0428DF00CE0426BD426DDE086AS1130240DF00CE0424BD42613239FE041A09DF16F0S1130250FE04208CA7102607FE041CDF16202B8C1ES113026080002607DE1608DF16201FDE168D4EDFFFS113027016BC041C2714EE00DF00CE0420BD426728S113028022E927068601970020037F0000FE04224ES113029027177D04222D15FF0422DE168D1FDF167DS11302A0FE04220926F17F0000DE1639FF0422DE57S11302B0168D12DF16FE04220826F120E908A60096S11302C02CFB7E15D809A6002CFB7E15E9CE000078S11302D0DF14FF04228D6EDE629C642766BD15ADBBS11302E027058685974B39DF625D2C57C1FE2D08A3S11302F0CE8000FF042020248D61DF62C127230407S1130300C6278610495944CA80B70421F704200936S1130310BD15ADDE629C6427275D2E24DE62A60037S1130320812B27037C001408DF628D2FDF62F70422S113033022D61427085F40F20422F70422B70423CCS11303408601394F397D071A2608CE80007C071AAAS11303502003CEA710FF0420DE6239CE0000DF00A8S1130360DE622003DE62089C64270BBD15AD2647C0S1130370DF62C1FE2D059601D60039A60080303615S1130380CE00099601D6009B01D900240333201026S11303900926F49701329B01C9009701D70020C4B4S11303A0DE62089C642709BD15AD260BC1FF2DF242S11303B0DF62C67F86FF397E18648601B7071B8615S11303C080978FDE02DF00DE04BD426A233BDE023BS11303D0BD1547863A8D37DE020808DF02A6002DD8S11303E0068D2BDE0220F39C04271E961B2707B6DES11303F007308D1A20E18D117D083B27BDB6FF2AF9S113040084FFB7FF2A7F083B39860D7F071BF60858S11304103BC121276AD690C120260CD68EC1132653S1130420037E40637E4033DE95D68EC1132612814FS11304300D270E811F2E0A8A408D0686088D02869ES11304405FA7009C932606368D2932200308DF958AS1130450810D2701397D044327FA860A20E396900BS11304608121270CB107C92707811F22127E0D4E57S11304707E0DFB968F847F978F8D3FDE91DF9539BCS1130480CE0000DF629690B107C927048121260AB5S1130490DE9586FFA700DF85200F8120270BDE95E0S11304A09C91270509DF958DCA9690812126037EACS11304B04030811F2203BD0D4E39BD425E964B264ES11304C0219690DE91DF988121262F968285202621S11304D0048688200D968F2D13BD416BDEB52655FDS11304E08689974B4FB707CA97822049DEB527F014S11304F009DFB5BD4165DE93202ACEF5E9968F2C40S113050006CEF5D97F006ABD4237968F2C19966ABCS1130510850127089678DE95A70020088518270707S1130520967920F208DF95966D8510270884EF9759S11305306D8681974BBD42583986209790861397D4S113054097978E4F978F39E600A601485854544622S113055037B70716FA07162744337F0716CE019AD2S1130560DF007F07157C071521A001E200182CF598S11305707A071521AB01E900183637B607152609A5S11305807D07162607862020057C07168A30BD14B1S11305900EDE00080833328C01A426C43932C605A5S11305A0D7008620BD140E7A000026F639A600DF97S11305B016CE01A421E600185A088C01B82714218CS11305C0A1001826F3DE165D2F07088620A1002758S11305D0F94F39DE16860139DF00CE041CBD4267AFS11305E02204FE041C39DE0039DF00CE041ABD42A9S11305F0672304FE041A39DE0039DE180909DF0016S1130600DE06BC041A27010909086D002CFBBD4253S11306106A230139DE166F018680A70020EB86016CS1130620FE0426BC04282602394F367F0716DE084ES1130630DF16FE0424DF00CE0426BD426DDE028DEBS113064017DF0232B70716DE048D0DDF04DE068DD8S113065007DF06DE16DF0839DF00CE0426BD426759S1130660221526057D0716260ECE0428BD426725D1S113067006CE0008BD4261DE0039B60421F604202ES113068048585454469701D700DE00397F06EBFEE4S113069006F3BC06F527067C06EBBD0654D64B27ADS11306A0028D397D06EB0E26E30F8680B706EB97A5S11306B0B20EBD40997F083B7FFF2A7D06EC2F03D5S11306C0BD0345966D8510270884EF976D86819745S11306D04B964B26057D06EB2DD820B07F071BCE0DS11306E0029CBD4252964B2D0ABD425EBD419BBD4CS11306F0425839843F48CE01FA211A18BD4252CEDDS1130700028BBD4252964B3697017F0000DE007F7CS1130710004BBD40D5CE0020BD425532818527080FS1130720818527048186260D8620DE64A700A70123S113073086B37E4219860D7E4063B604488505263DS11307400D8A04B70448BD424932327E425B8A04B2S1130750B70448390FC680CE0733DF0CCE050EBD73S1130760424FC608CE050EDF0ADF0CCE02AABD42F8S11307704C0909DF0CCE04485F967CA10027045C79S11307800820F8F70510BD4246865DB70730865F3ES1130790B7072F867EB7072E8623B707317FFF2A38S11307A07F072DCE03DEDF00CE04709600A70096EFS11307B001A701967CA702DE45FF0424BD0D2DCEC2S11307C00263DF607F071B7F04757F07177F072C99S11307D07F06EB7F083B7F06EC7F07CC7F07CAC60AS11307E0FFF707C9FE0424FF06F1FF06F3FF06F531S11307F0DF00CE0050BD4264FF06F77F0711FF04FFS11308001AFF041C301480148014D4FF041E7E16B6S11308108C088601971A20037F001A8601971BBD56S113082012CDBD124ADF0A964B270C81852635FE70S1130830041C7F004B200EBD12CDBD124ABD12BD5BS11308400808BD15D8DF00DF0C964B2619CE000A28S1130850BD42672216DE62DF00DE64BD426A230405S1130860200D9E1C8685974B399E1C868620F79FFBS11308701C7F0715DE62E600089C6427E5A60011CCS11308802725B1073026057A07152016B1072F262CS11308900E08A6001127CB9C6427C78A802003BDBDS11308A01D8FDF623620D108DF629F0E7F072CDEAAS11308B0629C6426088602B7072C7E193DA6008137S11308C02A26057A072C2075BD15AD26955D2F9235S11308D0DF629C6426057C072C2020E600089C64CBS11308E02780A600B1073026057C071520031127B1S11308F00ADF62B1073127D63620E29F12DE1CDF01S113090000DE0EDF16CE0016BD426DDE08DF02FFECS11309100422DE0EDF00DE12DF16CE0016BD426DADS1130920DE08DF00CE0002BD426DDE08B6071527E3S11309300A2E04094C20F8084A20F4DF14961A27DAS1130940057D072C2E06DE0E9C1C26167E18699645S11309501A2603BD1480DE41DF627F072C9E1C7EB5S113096013FD961A2603BD145EDE0A0908DF0ADFAAS1130970027F0715DE1CDF10B6083B26D2DE109C72S11309800E2605BD1A0720E1A60009DF10DE029C31S11309900C27BCE6007D07CC270AC1602306C17A78S11309A02202C02008DF024D2C20847FB1073026ACS11309B0055D2D4A20C7B10731260AC1302D10C16BS11309C0392E0C2034112607202FB1072E26085D5ES11309D02CAB7A07152008B1073026085D2C1A08BDS11309E0DF022099B10731260AC1302D0CC1392EFES11309F008208A5D2D08112784DE0A7E196C099C63S1130A000A26F6087E196CB6072C2E3B26037E1B9DS1130A1096DE028D206D002D03BD12BDFF0426DF7ES1130A2004BD12C5FF0424DF02DF0A961A2603BDA3S1130A3013BA7E09F7BC041A270C09BC041A27064AS1130A40096D002D0108398101271FDE02DF10DE48S1130A500A6D002C0108BD12C5DF02DE10DF0A0991S1130A608DD3BD12BDDF047E13BABD1539CE00008FS1130A70FF0422DE0ABD12C5DF06DF12FF0424DFF5S1130A800A0808DF160909EE00FF0420DE0209BD8AS1130A9012BDDF04DE60862009A7008C022126F83FS1130AA0DF64DF62DE169C02260BDE649C62270391S1130AB009DF62DE169C042726A6002C0BEE00FF3DS1130AC00422DE16B607300808DF16DE64A7000825S1130AD0DF649C6026CEBD02F99C6426C7DE16FF47S1130AE00426BD09F7DF10DF02CE0420BD154786BAS1130AF03ABD140E860BBD40338602B7071B86B37ES1130B00BD4219BD168CFE041CDF00CE0010BD4290S1130B106DBD0A3CDE0ADF00CE0008BD4261DF0A7BS1130B20DF00DE0CBD426A2204DE0ADF0CB60730A9S1130B30DE129C06274508A10026F7FF0426DF02E3S1130B4008FF0424DE0A08DF0ADE0608DF06BD0A01S1130B5001BD11EEFE04222714DE02B60422A70012S1130B60B60423A7017F04227F04232008DE028623S1130B7080A7006F0108B6073020B7BD0A48DE120FS1130B80B60420A700B60421A7017D071727067A1BS1130B9007177E086C39DE0ADF06B6072EDE0E9CC8S1130BA0122724A100260DDF00DE066D002C037C35S1130BB00715DE0009DF00DE066D002C010808DFE2S1130BC006DE009C1226DC7F0000B6071597012C78S1130BD003730000CE0014BD4261DF04DE02DF00B7S1130BE0FF0426CE0004BD4261FF0424BD0A01DED9S1130BF004270D7D00042C05BD120D2003BD11EE4CS1130C00BD0A48DE0EDF10DE109C122725A600095FS1130C10DF10DE0AB1072E26076D002C1008200D08S1130C20B1073026068680A700084FA70008DF0A10S1130C3020D5DE0ABD1A35DF0296142C02DF0AFE27S1130C40041A6D002D2EFF04260808FF0424FE0458S1130C501CFF04280808FF041CDE0A0808DF0ADE5BS1130C600C0808DF0CBD11EEFE041A8680A7006F85S1130C7001BD0A48961A270139DE0208BD12C5DFF4S1130C8002BD12BDDF047E13BA4F2002867FB70077S1130C900DBD12CDBD124ADF0EBD12CDBD124ABD2FS1130CA012BDDF1009DF00DE0EBD426A23067E1886S1130CB06B7E1864DE62DF00DE64BD426A23F24F9DS1130CC01636377F071ABD12CD2711BD167A8C0050S1130CD00026EEBE06E9BD186B7E168C7F0715CE86S1130CE00000FF0062DE0EDF06DF02960D970C3374S1130CF032D7129713DE12260139B6083B26E6DEF8S1130D0002BD12BDDF04DF00CE0002BD426DDE086DS1130D100909DF00DE12BD426A2305BD1105201258S1130D208D62D60D2606910C2F082004910C2C02FES1130D30970CDE04DF029C1026C0F6083B26A6DED4S1130D400CDF0BDE06DF02202EDE02BD12BDDF0447S1130D508D32910B260DBD1105B6FF2A8840B7FFD1S1130D602A2014D60D2606910C2F082004910C2C51S1130D7002970CDE04DF02DE109C0226CC9C0626C1S1130D80B97E1CE5DE12DF00DE02BD4264A6017DF1S1130D9007CC270A81612D06817A2E02802039BD75S1130DA012CDBD124ADF02BD12CDBD124ABC041CD5S1130DB02703BD12BDDF04DF00DE02BD426A230348S1130DC07E186BCE0000DF62DE027D07CC2719C6D9S1130DD0619C04272C0808A6002DF6112DF8817AB1S1130DE02EF48020A70020EEC6419C042713080897S1130DF0A6002DF6112DF8815A2EF48B20A7002081S1130E00EE39860120014FB707CCCE0000DF6239EES1130E10FE041ABC041C2730BD12CD270BBD167A64S1130E20FE04208C80002605CE0050DF00DE008CFES1130E30000027140808DF12BD12CD270EBD167A54S1130E40CE0080BD426A22087E186BCE0020DF00EFS1130E509601970ECE0000DF627F000FFE041ADFBAS1130E6010BD12BDDF04DF00CE0010BD426DDE08F0S1130E7009DF00CE0012BD4267220E8601970FDE05S1130E8010BD1547860DBD140EDE04BC041C26CF10S1130E90960F2714CE01D4BD4252BD424027FBC158S1130EA08027F7C143270139FE041ADF10BD12BDA4S1130EB0DF04DF00FE041CFF0428CE0010BD426DD9S1130EC0DE0809DF00CE0012B6FF2A8840B7FF2AE9S1130ED0BD42672228DE12DF00DE10BD4264FF043BS1130EE026DF04DF100808FF0424BD0A01BD11EE4BS1130EF0BD0A48DE108680A7006F012029DE04FFAAS1130F000426DE12DF00DE10BD4264FF0424DF107DS1130F10BD0A01BD11EEBD0A48960EDE042003A7EAS1130F2000089C1026F9BC041C268239861736BF9BS1130F3006E97F07327E1754BD0C40CE0269DF609CS1130F400FBE06E93281172607D64B2C067E03D244S1130F50BD41F2BD42437F04724F97AE97710E8636S1130F600DBD40633900FFFFFFFFFFFFFFFFFFFFE1S1130F70FFFFFFFFFFFFFFFFFFFFFFFFFFFFFFFF7DS1130F80FFFFFFFFFFFFFFFFFFFFFFFFFFFFFFFF6DS1130F90FFFFFFFFFFFFFFFFFFFFFFFFFFFFFFFF5DS1130FA0FFFFFFFFFFFFFFFFFFFFFFFFFFFFFFFF4DS1130FB0FFFFFFFFFFFFFFFFFFFFFFFFFFFFFFFF3DS1130FC0FFFFFFFFFFFFFFFFFFFFFFFFFFFFFFFF2DS1130FD0FFFFFFFFFFFFFFFFFFFFFFFFFFFFFFFF1DS1130FE0FFFFFFFFFFFFFFFFFFFFFFFFFFFFFFFF0DS1130FF0FFFFFFFFFFFFFFFFFFFFFFFFFFFFFFFFFDS9030000FC